{
  "address": "0x76b9aA98a24F6236df39829eEC1629C5bEB64330",
  "abi": [
    {
      "anonymous": false,
      "inputs": [
        {
          "indexed": true,
          "internalType": "address",
          "name": "by",
          "type": "address"
        },
        {
          "indexed": true,
          "internalType": "address",
          "name": "oldGameRegistry",
          "type": "address"
        },
        {
          "indexed": true,
          "internalType": "address",
          "name": "newGameRegistry",
          "type": "address"
        }
      ],
      "name": "GameRegistryUpdated",
      "type": "event"
    },
    {
      "anonymous": false,
      "inputs": [
        {
          "indexed": false,
          "internalType": "uint8",
          "name": "version",
          "type": "uint8"
        }
      ],
      "name": "Initialized",
      "type": "event"
    },
    {
      "anonymous": false,
      "inputs": [
        {
          "indexed": true,
          "internalType": "address",
          "name": "by",
          "type": "address"
        },
        {
          "indexed": true,
          "internalType": "address",
          "name": "oldMaintainer",
          "type": "address"
        },
        {
          "indexed": true,
          "internalType": "address",
          "name": "newMaintainer",
          "type": "address"
        }
      ],
      "name": "MaintainerUpdated",
      "type": "event"
    },
    {
      "anonymous": false,
      "inputs": [
        {
          "indexed": true,
          "internalType": "address",
          "name": "by",
          "type": "address"
        },
        {
          "indexed": true,
          "internalType": "address",
          "name": "oldOparcade",
          "type": "address"
        },
        {
          "indexed": true,
          "internalType": "address",
          "name": "newOparcade",
          "type": "address"
        }
      ],
      "name": "OrarcadeUpdated",
      "type": "event"
    },
    {
      "anonymous": false,
      "inputs": [
        {
          "indexed": true,
          "internalType": "address",
          "name": "previousOwner",
          "type": "address"
        },
        {
          "indexed": true,
          "internalType": "address",
          "name": "newOwner",
          "type": "address"
        }
      ],
      "name": "OwnershipTransferred",
      "type": "event"
    },
    {
      "inputs": [],
      "name": "gameRegistry",
      "outputs": [
        {
          "internalType": "address",
          "name": "",
          "type": "address"
        }
      ],
      "stateMutability": "view",
      "type": "function"
    },
    {
      "inputs": [],
      "name": "initialize",
      "outputs": [],
      "stateMutability": "nonpayable",
      "type": "function"
    },
    {
      "inputs": [],
      "name": "maintainer",
      "outputs": [
        {
          "internalType": "address",
          "name": "",
          "type": "address"
        }
      ],
      "stateMutability": "view",
      "type": "function"
    },
    {
      "inputs": [],
      "name": "oparcade",
      "outputs": [
        {
          "internalType": "address",
          "name": "",
          "type": "address"
        }
      ],
      "stateMutability": "view",
      "type": "function"
    },
    {
      "inputs": [],
      "name": "owner",
      "outputs": [
        {
          "internalType": "address",
          "name": "",
          "type": "address"
        }
      ],
      "stateMutability": "view",
      "type": "function"
    },
    {
      "inputs": [],
      "name": "renounceOwnership",
      "outputs": [],
      "stateMutability": "nonpayable",
      "type": "function"
    },
    {
      "inputs": [
        {
          "internalType": "address",
          "name": "newOwner",
          "type": "address"
        }
      ],
      "name": "transferOwnership",
      "outputs": [],
      "stateMutability": "nonpayable",
      "type": "function"
    },
    {
      "inputs": [
        {
          "internalType": "address",
          "name": "_gameRegistry",
          "type": "address"
        }
      ],
      "name": "updateGameRegistry",
      "outputs": [],
      "stateMutability": "nonpayable",
      "type": "function"
    },
    {
      "inputs": [
        {
          "internalType": "address",
          "name": "_maintainer",
          "type": "address"
        }
      ],
      "name": "updateMaintainer",
      "outputs": [],
      "stateMutability": "nonpayable",
      "type": "function"
    },
    {
      "inputs": [
        {
          "internalType": "address",
          "name": "_oparcade",
          "type": "address"
        }
      ],
      "name": "updateOparcade",
      "outputs": [],
      "stateMutability": "nonpayable",
      "type": "function"
    }
  ],
  "transactionHash": "0x4d4554524e7fa9f416919ad8717ff3f5f192ef8580730ef55e6ec9cd1a6e0625",
  "args": [],
  "numDeployments": 1,
  "solcInputHash": "59920b8e96a3b80037a0cc75c09b417f",
  "bytecode": "0x608060405234801561001057600080fd5b5061091c806100206000396000f3fe608060405234801561001057600080fd5b50600436106100be5760003560e01c80639850d32b11610076578063d81620251161005b578063d81620251461014e578063da09075514610161578063f2fde38b1461017457600080fd5b80639850d32b14610128578063c6e628e31461013b57600080fd5b80638129fc1c116100a75780638129fc1c146100e05780638d374f25146100e85780638da5cb5b1461011757600080fd5b8063205f9b5d146100c3578063715018a6146100d8575b600080fd5b6100d66100d13660046108b6565b610187565b005b6100d661029a565b6100d6610300565b6065546100fb906001600160a01b031681565b6040516001600160a01b03909116815260200160405180910390f35b6033546001600160a01b03166100fb565b6067546100fb906001600160a01b031681565b6100d66101493660046108b6565b610375565b6100d661015c3660046108b6565b610483565b6066546100fb906001600160a01b031681565b6100d66101823660046108b6565b610591565b6033546001600160a01b031633146101e65760405162461bcd60e51b815260206004820181905260248201527f4f776e61626c653a2063616c6c6572206973206e6f7420746865206f776e657260448201526064015b60405180910390fd5b6001600160a01b03811661023c5760405162461bcd60e51b815260206004820152600960248201527f214f70617263616465000000000000000000000000000000000000000000000060448201526064016101dd565b6065546040516001600160a01b0380841692169033907f81a62b4ec6b8e27999c1a6c79e7116706d779c2eddbb9b7c06fc1ce4ed10472e90600090a4606580546001600160a01b0319166001600160a01b0392909216919091179055565b6033546001600160a01b031633146102f45760405162461bcd60e51b815260206004820181905260248201527f4f776e61626c653a2063616c6c6572206973206e6f7420746865206f776e657260448201526064016101dd565b6102fe600061066c565b565b600061030c60016106be565b90508015610324576000805461ff0019166101001790555b61032c6107d4565b8015610372576000805461ff0019169055604051600181527f7f26b83ff96e1f2b6a682f133852f6798a09c465da95921460cefb38474024989060200160405180910390a15b50565b6033546001600160a01b031633146103cf5760405162461bcd60e51b815260206004820181905260248201527f4f776e61626c653a2063616c6c6572206973206e6f7420746865206f776e657260448201526064016101dd565b6001600160a01b0381166104255760405162461bcd60e51b815260206004820152600b60248201527f214d61696e7461696e657200000000000000000000000000000000000000000060448201526064016101dd565b6067546040516001600160a01b0380841692169033907f83a400e9e74352cc8b22e130d79f34e3aa90d5e07e725d765d6d3fcacce9dbd390600090a4606780546001600160a01b0319166001600160a01b0392909216919091179055565b6033546001600160a01b031633146104dd5760405162461bcd60e51b815260206004820181905260248201527f4f776e61626c653a2063616c6c6572206973206e6f7420746865206f776e657260448201526064016101dd565b6001600160a01b0381166105335760405162461bcd60e51b815260206004820152600d60248201527f2147616d6552656769737472790000000000000000000000000000000000000060448201526064016101dd565b6066546040516001600160a01b0380841692169033907f4fd12bc0e83e1662ef316ba8864c9246b55e6fe5a1027c12125b905920302c8790600090a4606680546001600160a01b0319166001600160a01b0392909216919091179055565b6033546001600160a01b031633146105eb5760405162461bcd60e51b815260206004820181905260248201527f4f776e61626c653a2063616c6c6572206973206e6f7420746865206f776e657260448201526064016101dd565b6001600160a01b0381166106675760405162461bcd60e51b815260206004820152602660248201527f4f776e61626c653a206e6577206f776e657220697320746865207a65726f206160448201527f646472657373000000000000000000000000000000000000000000000000000060648201526084016101dd565b610372815b603380546001600160a01b038381166001600160a01b0319831681179093556040519116919082907f8be0079c531659141344cd1fd0a4f28419497f9722a3daafe3b4186f6b6457e090600090a35050565b60008054610100900460ff161561074c578160ff1660011480156106e15750303b155b6107445760405162461bcd60e51b815260206004820152602e60248201527f496e697469616c697a61626c653a20636f6e747261637420697320616c72656160448201526d191e481a5b9a5d1a585b1a5e995960921b60648201526084016101dd565b506000919050565b60005460ff8084169116106107ba5760405162461bcd60e51b815260206004820152602e60248201527f496e697469616c697a61626c653a20636f6e747261637420697320616c72656160448201526d191e481a5b9a5d1a585b1a5e995960921b60648201526084016101dd565b506000805460ff191660ff92909216919091179055600190565b600054610100900460ff1661083f5760405162461bcd60e51b815260206004820152602b60248201527f496e697469616c697a61626c653a20636f6e7472616374206973206e6f74206960448201526a6e697469616c697a696e6760a81b60648201526084016101dd565b6102fe600054610100900460ff166108ad5760405162461bcd60e51b815260206004820152602b60248201527f496e697469616c697a61626c653a20636f6e7472616374206973206e6f74206960448201526a6e697469616c697a696e6760a81b60648201526084016101dd565b6102fe3361066c565b6000602082840312156108c857600080fd5b81356001600160a01b03811681146108df57600080fd5b939250505056fea2646970667358221220ac1de469a150254f7544b0d83c94b0443937fecb772d598ebeb27bb5d61eb45c64736f6c634300080b0033",
  "devdoc": {
    "author": "David Lee",
    "kind": "dev",
    "methods": {
      "owner()": {
        "details": "Returns the address of the current owner."
      },
      "renounceOwnership()": {
        "details": "Leaves the contract without owner. It will not be possible to call `onlyOwner` functions anymore. Can only be called by the current owner. NOTE: Renouncing ownership will leave the contract without an owner, thereby removing any functionality that is only available to the owner."
      },
      "transferOwnership(address)": {
        "details": "Transfers ownership of the contract to a new account (`newOwner`). Can only be called by the current owner."
      },
      "updateGameRegistry(address)": {
        "details": "Only owner",
        "params": {
          "_gameRegistry": "TokenRegistry contract address"
        }
      },
      "updateMaintainer(address)": {
        "details": "Only owner",
        "params": {
          "_maintainer": "Maintainer address"
        }
      },
      "updateOparcade(address)": {
        "details": "Only owner",
        "params": {
          "_oparcade": "Oparcade contract address"
        }
      }
    },
    "stateVariables": {
      "gameRegistry": {
        "details": "GameRegistry contract address, can be zero if not set"
      },
      "maintainer": {
        "details": "Maintainer address, can be zero if not set"
      },
      "oparcade": {
        "details": "Oparcade contract address, can be zero if not set"
      }
    },
    "title": "AddressRegistry",
    "version": 1
  },
  "userdoc": {
    "kind": "user",
    "methods": {
      "updateGameRegistry(address)": {
        "notice": "Update GameRegistry contract address"
      },
      "updateMaintainer(address)": {
        "notice": "Update maintainer address"
      },
      "updateOparcade(address)": {
        "notice": "Update Oparcade contract address"
      }
    },
    "notice": "This stores all addresses in the Oparcade",
    "version": 1
  },
  "storageLayout": {
    "storage": [
      {
        "astId": 130,
        "contract": "contracts/AddressRegistry.sol:AddressRegistry",
        "label": "_initialized",
        "offset": 0,
        "slot": "0",
        "type": "t_uint8"
      },
      {
        "astId": 133,
        "contract": "contracts/AddressRegistry.sol:AddressRegistry",
        "label": "_initializing",
        "offset": 1,
        "slot": "0",
        "type": "t_bool"
      },
      {
        "astId": 1490,
        "contract": "contracts/AddressRegistry.sol:AddressRegistry",
        "label": "__gap",
        "offset": 0,
        "slot": "1",
        "type": "t_array(t_uint256)50_storage"
      },
      {
        "astId": 10,
        "contract": "contracts/AddressRegistry.sol:AddressRegistry",
        "label": "_owner",
        "offset": 0,
        "slot": "51",
        "type": "t_address"
      },
      {
        "astId": 122,
        "contract": "contracts/AddressRegistry.sol:AddressRegistry",
        "label": "__gap",
        "offset": 0,
        "slot": "52",
        "type": "t_array(t_uint256)49_storage"
      },
      {
        "astId": 5253,
        "contract": "contracts/AddressRegistry.sol:AddressRegistry",
        "label": "oparcade",
        "offset": 0,
        "slot": "101",
        "type": "t_address"
      },
      {
        "astId": 5256,
        "contract": "contracts/AddressRegistry.sol:AddressRegistry",
        "label": "gameRegistry",
        "offset": 0,
        "slot": "102",
        "type": "t_address"
      },
      {
        "astId": 5259,
        "contract": "contracts/AddressRegistry.sol:AddressRegistry",
        "label": "maintainer",
        "offset": 0,
        "slot": "103",
        "type": "t_address"
      }
    ],
    "types": {
      "t_address": {
        "encoding": "inplace",
        "label": "address",
        "numberOfBytes": "20"
      },
      "t_array(t_uint256)49_storage": {
        "base": "t_uint256",
        "encoding": "inplace",
        "label": "uint256[49]",
        "numberOfBytes": "1568"
      },
      "t_array(t_uint256)50_storage": {
        "base": "t_uint256",
        "encoding": "inplace",
        "label": "uint256[50]",
        "numberOfBytes": "1600"
      },
      "t_bool": {
        "encoding": "inplace",
        "label": "bool",
        "numberOfBytes": "1"
      },
      "t_uint256": {
        "encoding": "inplace",
        "label": "uint256",
        "numberOfBytes": "32"
      },
      "t_uint8": {
        "encoding": "inplace",
        "label": "uint8",
        "numberOfBytes": "1"
      }
    }
  }
}