{
  "address": "0x08f81163e6b0c09d7401E4104b9FD4071F0336C8",
  "abi": [
    {
      "anonymous": false,
      "inputs": [
        {
          "indexed": true,
          "internalType": "address",
          "name": "oldGameRegistry",
          "type": "address"
        },
        {
          "indexed": true,
          "internalType": "address",
          "name": "newGameRegistry",
          "type": "address"
        }
      ],
      "name": "GameRegistryUpdated",
      "type": "event"
    },
    {
      "anonymous": false,
      "inputs": [
        {
          "indexed": true,
          "internalType": "address",
          "name": "oldMaintainer",
          "type": "address"
        },
        {
          "indexed": true,
          "internalType": "address",
          "name": "newMaintainer",
          "type": "address"
        }
      ],
      "name": "MaintainerUpdated",
      "type": "event"
    },
    {
      "anonymous": false,
      "inputs": [
        {
          "indexed": true,
          "internalType": "address",
          "name": "oldOparcade",
          "type": "address"
        },
        {
          "indexed": true,
          "internalType": "address",
          "name": "newOparcade",
          "type": "address"
        }
      ],
      "name": "OparcadeUpdated",
      "type": "event"
    },
    {
      "anonymous": false,
      "inputs": [
        {
          "indexed": true,
          "internalType": "address",
          "name": "previousOwner",
          "type": "address"
        },
        {
          "indexed": true,
          "internalType": "address",
          "name": "newOwner",
          "type": "address"
        }
      ],
      "name": "OwnershipTransferred",
      "type": "event"
    },
    {
      "anonymous": false,
      "inputs": [
        {
          "indexed": true,
          "internalType": "address",
          "name": "oldTimelock",
          "type": "address"
        },
        {
          "indexed": true,
          "internalType": "address",
          "name": "newTimelock",
          "type": "address"
        }
      ],
      "name": "TimelockUpdated",
      "type": "event"
    },
    {
      "inputs": [],
      "name": "gameRegistry",
      "outputs": [
        {
          "internalType": "address",
          "name": "",
          "type": "address"
        }
      ],
      "stateMutability": "view",
      "type": "function"
    },
    {
      "inputs": [],
      "name": "initialize",
      "outputs": [],
      "stateMutability": "nonpayable",
      "type": "function"
    },
    {
      "inputs": [],
      "name": "maintainer",
      "outputs": [
        {
          "internalType": "address",
          "name": "",
          "type": "address"
        }
      ],
      "stateMutability": "view",
      "type": "function"
    },
    {
      "inputs": [],
      "name": "oparcade",
      "outputs": [
        {
          "internalType": "address",
          "name": "",
          "type": "address"
        }
      ],
      "stateMutability": "view",
      "type": "function"
    },
    {
      "inputs": [],
      "name": "owner",
      "outputs": [
        {
          "internalType": "address",
          "name": "",
          "type": "address"
        }
      ],
      "stateMutability": "view",
      "type": "function"
    },
    {
      "inputs": [],
      "name": "renounceOwnership",
      "outputs": [],
      "stateMutability": "nonpayable",
      "type": "function"
    },
    {
      "inputs": [],
      "name": "timelock",
      "outputs": [
        {
          "internalType": "address",
          "name": "",
          "type": "address"
        }
      ],
      "stateMutability": "view",
      "type": "function"
    },
    {
      "inputs": [
        {
          "internalType": "address",
          "name": "newOwner",
          "type": "address"
        }
      ],
      "name": "transferOwnership",
      "outputs": [],
      "stateMutability": "nonpayable",
      "type": "function"
    },
    {
      "inputs": [
        {
          "internalType": "address",
          "name": "_gameRegistry",
          "type": "address"
        }
      ],
      "name": "updateGameRegistry",
      "outputs": [],
      "stateMutability": "nonpayable",
      "type": "function"
    },
    {
      "inputs": [
        {
          "internalType": "address",
          "name": "_maintainer",
          "type": "address"
        }
      ],
      "name": "updateMaintainer",
      "outputs": [],
      "stateMutability": "nonpayable",
      "type": "function"
    },
    {
      "inputs": [
        {
          "internalType": "address",
          "name": "_oparcade",
          "type": "address"
        }
      ],
      "name": "updateOparcade",
      "outputs": [],
      "stateMutability": "nonpayable",
      "type": "function"
    },
    {
      "inputs": [
        {
          "internalType": "address",
          "name": "_timelock",
          "type": "address"
        }
      ],
      "name": "updateTimelock",
      "outputs": [],
      "stateMutability": "nonpayable",
      "type": "function"
    }
  ],
  "transactionHash": "0xa6d2c4f8337b73200d27f624b992dc1f4c55be0ca126ca312f9118addf183fe5",
  "args": [],
  "numDeployments": 1,
  "solcInputHash": "90450ff192f6db5913d3cec6d8efd383",
  "bytecode": "0x608060405234801561001057600080fd5b50610a1b806100206000396000f3fe608060405234801561001057600080fd5b50600436106100d45760003560e01c8063a890c91011610081578063d81620251161005b578063d81620251461018a578063da0907551461019d578063f2fde38b146101b057600080fd5b8063a890c91014610151578063c6e628e314610164578063d33219b41461017757600080fd5b80638d374f25116100b25780638d374f25146100fe5780638da5cb5b1461012d5780639850d32b1461013e57600080fd5b8063205f9b5d146100d9578063715018a6146100ee5780638129fc1c146100f6575b600080fd5b6100ec6100e73660046109b5565b6101c3565b005b6100ec6102d4565b6100ec61033a565b606554610111906001600160a01b031681565b6040516001600160a01b03909116815260200160405180910390f35b6033546001600160a01b0316610111565b606754610111906001600160a01b031681565b6100ec61015f3660046109b5565b61040a565b6100ec6101723660046109b5565b610516565b606854610111906001600160a01b031681565b6100ec6101983660046109b5565b610622565b606654610111906001600160a01b031681565b6100ec6101be3660046109b5565b61072e565b6033546001600160a01b031633146102225760405162461bcd60e51b815260206004820181905260248201527f4f776e61626c653a2063616c6c6572206973206e6f7420746865206f776e657260448201526064015b60405180910390fd5b6001600160a01b0381166102785760405162461bcd60e51b815260206004820152600960248201527f214f7061726361646500000000000000000000000000000000000000000000006044820152606401610219565b6065546040516001600160a01b038084169216907f7dc533a049cdd6f8ea9ca2c50750e4603fd8ffbaf136757bdebd45485f74974190600090a3606580546001600160a01b0319166001600160a01b0392909216919091179055565b6033546001600160a01b0316331461032e5760405162461bcd60e51b815260206004820181905260248201527f4f776e61626c653a2063616c6c6572206973206e6f7420746865206f776e65726044820152606401610219565b6103386000610809565b565b600054610100900460ff166103555760005460ff1615610359565b303b155b6103cb5760405162461bcd60e51b815260206004820152602e60248201527f496e697469616c697a61626c653a20636f6e747261637420697320616c72656160448201527f647920696e697469616c697a65640000000000000000000000000000000000006064820152608401610219565b600054610100900460ff161580156103ed576000805461ffff19166101011790555b6103f561085b565b8015610407576000805461ff00191690555b50565b6033546001600160a01b031633146104645760405162461bcd60e51b815260206004820181905260248201527f4f776e61626c653a2063616c6c6572206973206e6f7420746865206f776e65726044820152606401610219565b6001600160a01b0381166104ba5760405162461bcd60e51b815260206004820152600960248201527f2154696d656c6f636b00000000000000000000000000000000000000000000006044820152606401610219565b6068546040516001600160a01b038084169216907fae97011a27b5efe7b1d76fe38e75cc498fd64cc24e407a9c6b2185d27f611f7e90600090a3606880546001600160a01b0319166001600160a01b0392909216919091179055565b6033546001600160a01b031633146105705760405162461bcd60e51b815260206004820181905260248201527f4f776e61626c653a2063616c6c6572206973206e6f7420746865206f776e65726044820152606401610219565b6001600160a01b0381166105c65760405162461bcd60e51b815260206004820152600b60248201527f214d61696e7461696e65720000000000000000000000000000000000000000006044820152606401610219565b6067546040516001600160a01b038084169216907f174fc41b7a8efa2e31922f56f59a2078d31cd34cfda6d34ccd7b99851e5eabc590600090a3606780546001600160a01b0319166001600160a01b0392909216919091179055565b6033546001600160a01b0316331461067c5760405162461bcd60e51b815260206004820181905260248201527f4f776e61626c653a2063616c6c6572206973206e6f7420746865206f776e65726044820152606401610219565b6001600160a01b0381166106d25760405162461bcd60e51b815260206004820152600d60248201527f2147616d655265676973747279000000000000000000000000000000000000006044820152606401610219565b6066546040516001600160a01b038084169216907fbb1de5dfc6435683c75ae6ec02278b3a07398fa972883e6fc45072e867e9ca4090600090a3606680546001600160a01b0319166001600160a01b0392909216919091179055565b6033546001600160a01b031633146107885760405162461bcd60e51b815260206004820181905260248201527f4f776e61626c653a2063616c6c6572206973206e6f7420746865206f776e65726044820152606401610219565b6001600160a01b0381166108045760405162461bcd60e51b815260206004820152602660248201527f4f776e61626c653a206e6577206f776e657220697320746865207a65726f206160448201527f64647265737300000000000000000000000000000000000000000000000000006064820152608401610219565b610407815b603380546001600160a01b038381166001600160a01b0319831681179093556040519116919082907f8be0079c531659141344cd1fd0a4f28419497f9722a3daafe3b4186f6b6457e090600090a35050565b600054610100900460ff166108c65760405162461bcd60e51b815260206004820152602b60248201527f496e697469616c697a61626c653a20636f6e7472616374206973206e6f74206960448201526a6e697469616c697a696e6760a81b6064820152608401610219565b6108ce6108d6565b610338610941565b600054610100900460ff166103385760405162461bcd60e51b815260206004820152602b60248201527f496e697469616c697a61626c653a20636f6e7472616374206973206e6f74206960448201526a6e697469616c697a696e6760a81b6064820152608401610219565b600054610100900460ff166109ac5760405162461bcd60e51b815260206004820152602b60248201527f496e697469616c697a61626c653a20636f6e7472616374206973206e6f74206960448201526a6e697469616c697a696e6760a81b6064820152608401610219565b61033833610809565b6000602082840312156109c757600080fd5b81356001600160a01b03811681146109de57600080fd5b939250505056fea26469706673582212206c6434e6ef666747a516f473f823c7227bf8ac24049fe73f5384aa83d2250bc664736f6c634300080b0033",
  "devdoc": {
    "author": "David Lee",
    "kind": "dev",
    "methods": {
      "owner()": {
        "details": "Returns the address of the current owner."
      },
      "renounceOwnership()": {
        "details": "Leaves the contract without owner. It will not be possible to call `onlyOwner` functions anymore. Can only be called by the current owner. NOTE: Renouncing ownership will leave the contract without an owner, thereby removing any functionality that is only available to the owner."
      },
      "transferOwnership(address)": {
        "details": "Transfers ownership of the contract to a new account (`newOwner`). Can only be called by the current owner."
      },
      "updateGameRegistry(address)": {
        "details": "Only owner",
        "params": {
          "_gameRegistry": "TokenRegistry contract address"
        }
      },
      "updateMaintainer(address)": {
        "details": "Only owner",
        "params": {
          "_maintainer": "Maintainer address"
        }
      },
      "updateOparcade(address)": {
        "details": "Only owner",
        "params": {
          "_oparcade": "Oparcade contract address"
        }
      },
      "updateTimelock(address)": {
        "details": "Only owner",
        "params": {
          "_timelock": "Maintainer address"
        }
      }
    },
    "stateVariables": {
      "gameRegistry": {
        "details": "GameRegistry contract address, can be zero if not set"
      },
      "maintainer": {
        "details": "Maintainer address, can be zero if not set"
      },
      "oparcade": {
        "details": "Oparcade contract address, can be zero if not set"
      },
      "timelock": {
        "details": "Timelock contract address, can be zero if not set"
      }
    },
    "title": "AddressRegistry",
    "version": 1
  },
  "userdoc": {
    "kind": "user",
    "methods": {
      "updateGameRegistry(address)": {
        "notice": "Update GameRegistry contract address"
      },
      "updateMaintainer(address)": {
        "notice": "Update maintainer address"
      },
      "updateOparcade(address)": {
        "notice": "Update Oparcade contract address"
      },
      "updateTimelock(address)": {
        "notice": "Update Timelock contract address"
      }
    },
    "notice": "This stores all addresses in the Oparcade",
    "version": 1
  },
  "storageLayout": {
    "storage": [
      {
        "astId": 132,
        "contract": "contracts/AddressRegistry.sol:AddressRegistry",
        "label": "_initialized",
        "offset": 0,
        "slot": "0",
        "type": "t_bool"
      },
      {
        "astId": 135,
        "contract": "contracts/AddressRegistry.sol:AddressRegistry",
        "label": "_initializing",
        "offset": 1,
        "slot": "0",
        "type": "t_bool"
      },
      {
        "astId": 1444,
        "contract": "contracts/AddressRegistry.sol:AddressRegistry",
        "label": "__gap",
        "offset": 0,
        "slot": "1",
        "type": "t_array(t_uint256)50_storage"
      },
      {
        "astId": 10,
        "contract": "contracts/AddressRegistry.sol:AddressRegistry",
        "label": "_owner",
        "offset": 0,
        "slot": "51",
        "type": "t_address"
      },
      {
        "astId": 124,
        "contract": "contracts/AddressRegistry.sol:AddressRegistry",
        "label": "__gap",
        "offset": 0,
        "slot": "52",
        "type": "t_array(t_uint256)49_storage"
      },
      {
        "astId": 6170,
        "contract": "contracts/AddressRegistry.sol:AddressRegistry",
        "label": "oparcade",
        "offset": 0,
        "slot": "101",
        "type": "t_address"
      },
      {
        "astId": 6173,
        "contract": "contracts/AddressRegistry.sol:AddressRegistry",
        "label": "gameRegistry",
        "offset": 0,
        "slot": "102",
        "type": "t_address"
      },
      {
        "astId": 6176,
        "contract": "contracts/AddressRegistry.sol:AddressRegistry",
        "label": "maintainer",
        "offset": 0,
        "slot": "103",
        "type": "t_address"
      },
      {
        "astId": 6179,
        "contract": "contracts/AddressRegistry.sol:AddressRegistry",
        "label": "timelock",
        "offset": 0,
        "slot": "104",
        "type": "t_address"
      }
    ],
    "types": {
      "t_address": {
        "encoding": "inplace",
        "label": "address",
        "numberOfBytes": "20"
      },
      "t_array(t_uint256)49_storage": {
        "base": "t_uint256",
        "encoding": "inplace",
        "label": "uint256[49]",
        "numberOfBytes": "1568"
      },
      "t_array(t_uint256)50_storage": {
        "base": "t_uint256",
        "encoding": "inplace",
        "label": "uint256[50]",
        "numberOfBytes": "1600"
      },
      "t_bool": {
        "encoding": "inplace",
        "label": "bool",
        "numberOfBytes": "1"
      },
      "t_uint256": {
        "encoding": "inplace",
        "label": "uint256",
        "numberOfBytes": "32"
      }
    }
  }
}