{
  "address": "0x3213C59c1bA47301Ef1777028254eBC62B963d18",
  "abi": [
    {
      "anonymous": false,
      "inputs": [
        {
          "indexed": true,
          "internalType": "address",
          "name": "by",
          "type": "address"
        },
        {
          "indexed": true,
          "internalType": "uint256",
          "name": "gid",
          "type": "uint256"
        },
        {
          "indexed": true,
          "internalType": "address",
          "name": "token",
          "type": "address"
        },
        {
          "indexed": false,
          "internalType": "uint256",
          "name": "oldAmount",
          "type": "uint256"
        },
        {
          "indexed": false,
          "internalType": "uint256",
          "name": "newAmount",
          "type": "uint256"
        }
      ],
      "name": "DepositAmountUpdated",
      "type": "event"
    },
    {
      "anonymous": false,
      "inputs": [
        {
          "indexed": true,
          "internalType": "address",
          "name": "by",
          "type": "address"
        },
        {
          "indexed": true,
          "internalType": "uint256",
          "name": "gid",
          "type": "uint256"
        },
        {
          "indexed": true,
          "internalType": "address",
          "name": "token",
          "type": "address"
        },
        {
          "indexed": false,
          "internalType": "bool",
          "name": "oldStatus",
          "type": "bool"
        },
        {
          "indexed": false,
          "internalType": "bool",
          "name": "newStatus",
          "type": "bool"
        }
      ],
      "name": "DistributableAmountUpdated",
      "type": "event"
    },
    {
      "anonymous": false,
      "inputs": [
        {
          "indexed": true,
          "internalType": "address",
          "name": "by",
          "type": "address"
        },
        {
          "indexed": true,
          "internalType": "uint256",
          "name": "gid",
          "type": "uint256"
        },
        {
          "indexed": false,
          "internalType": "string",
          "name": "gameName",
          "type": "string"
        }
      ],
      "name": "GameAdded",
      "type": "event"
    },
    {
      "anonymous": false,
      "inputs": [
        {
          "indexed": true,
          "internalType": "address",
          "name": "by",
          "type": "address"
        },
        {
          "indexed": true,
          "internalType": "uint256",
          "name": "gid",
          "type": "uint256"
        },
        {
          "indexed": false,
          "internalType": "string",
          "name": "gameName",
          "type": "string"
        }
      ],
      "name": "GameRemoved",
      "type": "event"
    },
    {
      "anonymous": false,
      "inputs": [
        {
          "indexed": true,
          "internalType": "address",
          "name": "previousOwner",
          "type": "address"
        },
        {
          "indexed": true,
          "internalType": "address",
          "name": "newOwner",
          "type": "address"
        }
      ],
      "name": "OwnershipTransferred",
      "type": "event"
    },
    {
      "inputs": [
        {
          "internalType": "string",
          "name": "_gameName",
          "type": "string"
        }
      ],
      "name": "addGame",
      "outputs": [
        {
          "internalType": "uint256",
          "name": "gid",
          "type": "uint256"
        }
      ],
      "stateMutability": "nonpayable",
      "type": "function"
    },
    {
      "inputs": [
        {
          "internalType": "uint256",
          "name": "",
          "type": "uint256"
        },
        {
          "internalType": "address",
          "name": "",
          "type": "address"
        }
      ],
      "name": "depositTokenAmount",
      "outputs": [
        {
          "internalType": "uint256",
          "name": "",
          "type": "uint256"
        }
      ],
      "stateMutability": "view",
      "type": "function"
    },
    {
      "inputs": [
        {
          "internalType": "uint256",
          "name": "",
          "type": "uint256"
        },
        {
          "internalType": "uint256",
          "name": "",
          "type": "uint256"
        }
      ],
      "name": "depositTokenList",
      "outputs": [
        {
          "internalType": "address",
          "name": "",
          "type": "address"
        }
      ],
      "stateMutability": "view",
      "type": "function"
    },
    {
      "inputs": [
        {
          "internalType": "uint256",
          "name": "",
          "type": "uint256"
        },
        {
          "internalType": "address",
          "name": "",
          "type": "address"
        }
      ],
      "name": "distributable",
      "outputs": [
        {
          "internalType": "bool",
          "name": "",
          "type": "bool"
        }
      ],
      "stateMutability": "view",
      "type": "function"
    },
    {
      "inputs": [
        {
          "internalType": "uint256",
          "name": "",
          "type": "uint256"
        },
        {
          "internalType": "uint256",
          "name": "",
          "type": "uint256"
        }
      ],
      "name": "distributableTokenList",
      "outputs": [
        {
          "internalType": "address",
          "name": "",
          "type": "address"
        }
      ],
      "stateMutability": "view",
      "type": "function"
    },
    {
      "inputs": [],
      "name": "gameLength",
      "outputs": [
        {
          "internalType": "uint256",
          "name": "",
          "type": "uint256"
        }
      ],
      "stateMutability": "view",
      "type": "function"
    },
    {
      "inputs": [
        {
          "internalType": "uint256",
          "name": "",
          "type": "uint256"
        }
      ],
      "name": "games",
      "outputs": [
        {
          "internalType": "string",
          "name": "",
          "type": "string"
        }
      ],
      "stateMutability": "view",
      "type": "function"
    },
    {
      "inputs": [
        {
          "internalType": "uint256",
          "name": "_gid",
          "type": "uint256"
        }
      ],
      "name": "getDepositTokenList",
      "outputs": [
        {
          "internalType": "address[]",
          "name": "",
          "type": "address[]"
        }
      ],
      "stateMutability": "view",
      "type": "function"
    },
    {
      "inputs": [
        {
          "internalType": "uint256",
          "name": "_gid",
          "type": "uint256"
        }
      ],
      "name": "getDistributableTokenList",
      "outputs": [
        {
          "internalType": "address[]",
          "name": "",
          "type": "address[]"
        }
      ],
      "stateMutability": "view",
      "type": "function"
    },
    {
      "inputs": [],
      "name": "initialize",
      "outputs": [],
      "stateMutability": "nonpayable",
      "type": "function"
    },
    {
      "inputs": [
        {
          "internalType": "uint256",
          "name": "",
          "type": "uint256"
        }
      ],
      "name": "isDeprecatedGame",
      "outputs": [
        {
          "internalType": "bool",
          "name": "",
          "type": "bool"
        }
      ],
      "stateMutability": "view",
      "type": "function"
    },
    {
      "inputs": [],
      "name": "owner",
      "outputs": [
        {
          "internalType": "address",
          "name": "",
          "type": "address"
        }
      ],
      "stateMutability": "view",
      "type": "function"
    },
    {
      "inputs": [
        {
          "internalType": "uint256",
          "name": "_gid",
          "type": "uint256"
        }
      ],
      "name": "removeGame",
      "outputs": [],
      "stateMutability": "nonpayable",
      "type": "function"
    },
    {
      "inputs": [],
      "name": "renounceOwnership",
      "outputs": [],
      "stateMutability": "nonpayable",
      "type": "function"
    },
    {
      "inputs": [
        {
          "internalType": "address",
          "name": "newOwner",
          "type": "address"
        }
      ],
      "name": "transferOwnership",
      "outputs": [],
      "stateMutability": "nonpayable",
      "type": "function"
    },
    {
      "inputs": [
        {
          "internalType": "uint256",
          "name": "_gid",
          "type": "uint256"
        },
        {
          "internalType": "address",
          "name": "_token",
          "type": "address"
        },
        {
          "internalType": "uint256",
          "name": "_amount",
          "type": "uint256"
        }
      ],
      "name": "updateDepositTokenAmount",
      "outputs": [],
      "stateMutability": "nonpayable",
      "type": "function"
    },
    {
      "inputs": [
        {
          "internalType": "uint256",
          "name": "_gid",
          "type": "uint256"
        },
        {
          "internalType": "address",
          "name": "_token",
          "type": "address"
        },
        {
          "internalType": "bool",
          "name": "_isDistributable",
          "type": "bool"
        }
      ],
      "name": "updateDistributableTokenAddress",
      "outputs": [],
      "stateMutability": "nonpayable",
      "type": "function"
    }
  ],
  "transactionHash": "0x7aa993a76930b92a0ff9d18f1e11171d9e9e76f18449dc039807d049663a29c4",
  "args": [],
  "numDeployments": 1,
  "solcInputHash": "fd4510f6895959e0124806d15805db02",
  "bytecode": "0x608060405234801561001057600080fd5b5061158b806100206000396000f3fe608060405234801561001057600080fd5b506004361061011b5760003560e01c806391dd73f0116100b2578063e89826ac11610081578063f483a0ca11610066578063f483a0ca146102a3578063fbde5b64146102c3578063fbf60be4146102cb57600080fd5b8063e89826ac1461027d578063f2fde38b1461029057600080fd5b806391dd73f01461020b578063960c4bae1461021e578063cb8f76f314610231578063e77cb79d1461026a57600080fd5b8063715018a6116100ee578063715018a6146101d557806373d31240146101df5780638129fc1c146101f25780638da5cb5b146101fa57600080fd5b8063117a5b9014610120578063196f55e31461014957806339ff00bd1461017c5780634c678bb3146101aa575b600080fd5b61013361012e366004611176565b6102de565b604051610140919061118f565b60405180910390f35b61016c610157366004611176565b606a6020526000908152604090205460ff1681565b6040519015158152602001610140565b61016c61018a366004611200565b606960209081526000928352604080842090915290825290205460ff1681565b6101bd6101b836600461122c565b61038a565b6040516001600160a01b039091168152602001610140565b6101dd6103c2565b005b6101dd6101ed366004611176565b61042d565b6101dd610546565b6033546001600160a01b03166101bd565b6101dd61021936600461124e565b610601565b6101dd61022c366004611293565b6108ec565b61025c61023f366004611200565b606760209081526000928352604080842090915290825290205481565b604051908152602001610140565b6101bd61027836600461122c565b610bbb565b61025c61028b3660046112de565b610bd7565b6101dd61029e36600461138f565b610cd0565b6102b66102b1366004611176565b610daf565b60405161014091906113b1565b60655461025c565b6102b66102d9366004611176565b610e1b565b606581815481106102ee57600080fd5b906000526020600020016000915090508054610309906113fe565b80601f0160208091040260200160405190810160405280929190818152602001828054610335906113fe565b80156103825780601f1061035757610100808354040283529160200191610382565b820191906000526020600020905b81548152906001019060200180831161036557829003601f168201915b505050505081565b606860205281600052604060002081815481106103a657600080fd5b6000918252602090912001546001600160a01b03169150829050565b6033546001600160a01b031633146104215760405162461bcd60e51b815260206004820181905260248201527f4f776e61626c653a2063616c6c6572206973206e6f7420746865206f776e657260448201526064015b60405180910390fd5b61042b6000610e85565b565b6033546001600160a01b031633146104875760405162461bcd60e51b815260206004820181905260248201527f4f776e61626c653a2063616c6c6572206973206e6f7420746865206f776e65726044820152606401610418565b606554819081106104cf5760405162461bcd60e51b8152602060048201526012602482015271092dcecc2d8d2c840cec2daca40d2dcc8caf60731b6044820152606401610418565b6000828152606a60205260409020805460ff1916600117905560658054839133917f837966baaecc6e58b3d134a7ce20bc3c197091a5939d0a8235cae1654f72225e91908490811061052357610523611439565b9060005260206000200160405161053a919061144f565b60405180910390a35050565b600054610100900460ff168061055f575060005460ff16155b6105c25760405162461bcd60e51b815260206004820152602e60248201527f496e697469616c697a61626c653a20636f6e747261637420697320616c72656160448201526d191e481a5b9a5d1a585b1a5e995960921b6064820152608401610418565b600054610100900460ff161580156105e4576000805461ffff19166101011790555b6105ec610ed7565b80156105fe576000805461ff00191690555b50565b6033546001600160a01b0316331461065b5760405162461bcd60e51b815260206004820181905260248201527f4f776e61626c653a2063616c6c6572206973206e6f7420746865206f776e65726044820152606401610418565b606554839081106106a35760405162461bcd60e51b8152602060048201526012602482015271092dcecc2d8d2c840cec2daca40d2dcc8caf60731b6044820152606401610418565b60008481526069602090815260408083206001600160a01b0387168085529083529281902054815160ff9091161515815285151592810192909252869133917f99a5b9b246848f09e12a9e8405304c0166d8a71c11cf44a0de1a818266d8451f910160405180910390a4811561077a5760008481526069602090815260408083206001600160a01b038716845290915290205460ff166107755760008481526068602090815260408220805460018101825590835291200180546001600160a01b0319166001600160a01b0385161790555b6108b6565b60005b6000858152606860205260409020548110156108b45760008581526068602052604090208054829081106107b3576107b3611439565b6000918252602090912001546001600160a01b03858116911614156108a257600085815260686020526040902080546107ee9060019061150d565b815481106107fe576107fe611439565b60009182526020808320909101548783526068909152604090912080546001600160a01b03909216918390811061083757610837611439565b600091825260208083209190910180546001600160a01b0319166001600160a01b03949094169390931790925586815260689091526040902080548061087f5761087f611524565b600082815260209020810160001990810180546001600160a01b03191690550190555b806108ac8161153a565b91505061077d565b505b5060009283526069602090815260408085206001600160a01b039490941685529290529120805460ff1916911515919091179055565b6033546001600160a01b031633146109465760405162461bcd60e51b815260206004820181905260248201527f4f776e61626c653a2063616c6c6572206973206e6f7420746865206f776e65726044820152606401610418565b6065548390811061098e5760405162461bcd60e51b8152602060048201526012602482015271092dcecc2d8d2c840cec2daca40d2dcc8caf60731b6044820152606401610418565b60008481526067602090815260408083206001600160a01b03871680855290835292819020548151908152918201859052869133917f87269c5f456218e53116bd1ba1e0839ba5f2e67f9c6dd458ee7fbed5c437f304910160405180910390a48115610a585760008481526067602090815260408083206001600160a01b0387168452909152902054610a535760008481526066602090815260408220805460018101825590835291200180546001600160a01b0319166001600160a01b0385161790555b610b94565b60005b600085815260666020526040902054811015610b92576000858152606660205260409020805482908110610a9157610a91611439565b6000918252602090912001546001600160a01b0385811691161415610b805760008581526066602052604090208054610acc9060019061150d565b81548110610adc57610adc611439565b60009182526020808320909101548783526066909152604090912080546001600160a01b039092169183908110610b1557610b15611439565b600091825260208083209190910180546001600160a01b0319166001600160a01b039490941693909317909255868152606690915260409020805480610b5d57610b5d611524565b600082815260209020810160001990810180546001600160a01b03191690550190555b80610b8a8161153a565b915050610a5b565b505b5060009283526067602090815260408085206001600160a01b039094168552929052912055565b606660205281600052604060002081815481106103a657600080fd5b6033546000906001600160a01b03163314610c345760405162461bcd60e51b815260206004820181905260248201527f4f776e61626c653a2063616c6c6572206973206e6f7420746865206f776e65726044820152606401610418565b606580546001810182556000919091528251610c77917f8ff97419363ffd7000167f130ef7168fbea05faf9251824ca5043f113cc6a7c7019060208501906110dd565b50606554610c879060019061150d565b905080336001600160a01b03167f14bce4fa028cd268a3afa62e2735acc93c01d7753f45e6814e87336bf28f24b884604051610cc3919061118f565b60405180910390a3919050565b6033546001600160a01b03163314610d2a5760405162461bcd60e51b815260206004820181905260248201527f4f776e61626c653a2063616c6c6572206973206e6f7420746865206f776e65726044820152606401610418565b6001600160a01b038116610da65760405162461bcd60e51b815260206004820152602660248201527f4f776e61626c653a206e6577206f776e657220697320746865207a65726f206160448201527f64647265737300000000000000000000000000000000000000000000000000006064820152608401610418565b6105fe81610e85565b600081815260666020908152604091829020805483518184028101840190945280845260609392830182828015610e0f57602002820191906000526020600020905b81546001600160a01b03168152600190910190602001808311610df1575b50505050509050919050565b600081815260686020908152604091829020805483518184028101840190945280845260609392830182828015610e0f576020028201919060005260206000209081546001600160a01b03168152600190910190602001808311610df15750505050509050919050565b603380546001600160a01b038381166001600160a01b0319831681179093556040519116919082907f8be0079c531659141344cd1fd0a4f28419497f9722a3daafe3b4186f6b6457e090600090a35050565b600054610100900460ff1680610ef0575060005460ff16155b610f535760405162461bcd60e51b815260206004820152602e60248201527f496e697469616c697a61626c653a20636f6e747261637420697320616c72656160448201526d191e481a5b9a5d1a585b1a5e995960921b6064820152608401610418565b600054610100900460ff16158015610f75576000805461ffff19166101011790555b610f7d610f85565b6105ec611036565b600054610100900460ff1680610f9e575060005460ff16155b6110015760405162461bcd60e51b815260206004820152602e60248201527f496e697469616c697a61626c653a20636f6e747261637420697320616c72656160448201526d191e481a5b9a5d1a585b1a5e995960921b6064820152608401610418565b600054610100900460ff161580156105ec576000805461ffff191661010117905580156105fe576000805461ff001916905550565b600054610100900460ff168061104f575060005460ff16155b6110b25760405162461bcd60e51b815260206004820152602e60248201527f496e697469616c697a61626c653a20636f6e747261637420697320616c72656160448201526d191e481a5b9a5d1a585b1a5e995960921b6064820152608401610418565b600054610100900460ff161580156110d4576000805461ffff19166101011790555b6105ec33610e85565b8280546110e9906113fe565b90600052602060002090601f01602090048101928261110b5760008555611151565b82601f1061112457805160ff1916838001178555611151565b82800160010185558215611151579182015b82811115611151578251825591602001919060010190611136565b5061115d929150611161565b5090565b5b8082111561115d5760008155600101611162565b60006020828403121561118857600080fd5b5035919050565b600060208083528351808285015260005b818110156111bc578581018301518582016040015282016111a0565b818111156111ce576000604083870101525b50601f01601f1916929092016040019392505050565b80356001600160a01b03811681146111fb57600080fd5b919050565b6000806040838503121561121357600080fd5b82359150611223602084016111e4565b90509250929050565b6000806040838503121561123f57600080fd5b50508035926020909101359150565b60008060006060848603121561126357600080fd5b83359250611273602085016111e4565b91506040840135801515811461128857600080fd5b809150509250925092565b6000806000606084860312156112a857600080fd5b833592506112b8602085016111e4565b9150604084013590509250925092565b634e487b7160e01b600052604160045260246000fd5b6000602082840312156112f057600080fd5b813567ffffffffffffffff8082111561130857600080fd5b818401915084601f83011261131c57600080fd5b81358181111561132e5761132e6112c8565b604051601f8201601f19908116603f01168101908382118183101715611356576113566112c8565b8160405282815287602084870101111561136f57600080fd5b826020860160208301376000928101602001929092525095945050505050565b6000602082840312156113a157600080fd5b6113aa826111e4565b9392505050565b6020808252825182820181905260009190848201906040850190845b818110156113f25783516001600160a01b0316835292840192918401916001016113cd565b50909695505050505050565b600181811c9082168061141257607f821691505b6020821081141561143357634e487b7160e01b600052602260045260246000fd5b50919050565b634e487b7160e01b600052603260045260246000fd5b600060208083526000845481600182811c91508083168061147157607f831692505b85831081141561148f57634e487b7160e01b85526022600452602485fd5b8786018381526020018180156114ac57600181146114bd576114e8565b60ff198616825287820196506114e8565b60008b81526020902060005b868110156114e2578154848201529085019089016114c9565b83019750505b50949998505050505050505050565b634e487b7160e01b600052601160045260246000fd5b60008282101561151f5761151f6114f7565b500390565b634e487b7160e01b600052603160045260246000fd5b600060001982141561154e5761154e6114f7565b506001019056fea2646970667358221220cced5f77ffc1d9466bf9ded573648c9eb58dca5c30355aca0b5ae75829223a8864736f6c634300080b0033",
  "devdoc": {
    "author": "David Lee",
    "kind": "dev",
    "methods": {
      "addGame(string)": {
        "params": {
          "_gameName": "Game name to add"
        }
      },
      "owner()": {
        "details": "Returns the address of the current owner."
      },
      "removeGame(uint256)": {
        "details": "Game is not removed from the games array, just set it deprecated"
      },
      "renounceOwnership()": {
        "details": "Leaves the contract without owner. It will not be possible to call `onlyOwner` functions anymore. Can only be called by the current owner. NOTE: Renouncing ownership will leave the contract without an owner, thereby removing any functionality that is only available to the owner."
      },
      "transferOwnership(address)": {
        "details": "Transfers ownership of the contract to a new account (`newOwner`). Can only be called by the current owner."
      },
      "updateDepositTokenAmount(uint256,address,uint256)": {
        "details": "Only ownerOnly tokens with an amount greater than zero is valid for the deposit",
        "params": {
          "_amount": "Token amount",
          "_gid": "Game ID",
          "_token": "Token address to allow/disallow the deposit"
        }
      },
      "updateDistributableTokenAddress(uint256,address,bool)": {
        "details": "Only owner",
        "params": {
          "_gid": "Game ID",
          "_isDistributable": "true: distributable false: not distributable",
          "_token": "Token address to allow/disallow the deposit"
        }
      }
    },
    "stateVariables": {
      "depositTokenAmount": {
        "details": "Game ID -> Token address -> Deposit amount"
      },
      "depositTokenList": {
        "details": "Game ID -> Deposit token list"
      },
      "distributable": {
        "details": "Game ID -> Token address -> Bool"
      },
      "distributableTokenList": {
        "details": "Game ID -> Distributable token list"
      },
      "games": {
        "details": "Game name array"
      },
      "isDeprecatedGame": {
        "details": "Game ID -> Bool"
      }
    },
    "title": "GameRegistry",
    "version": 1
  },
  "userdoc": {
    "kind": "user",
    "methods": {
      "addGame(string)": {
        "notice": "Add new game"
      },
      "gameLength()": {
        "notice": "Returns the number of games added in games array"
      },
      "removeGame(uint256)": {
        "notice": "Remove game"
      },
      "updateDepositTokenAmount(uint256,address,uint256)": {
        "notice": "Update deposit token amount"
      },
      "updateDistributableTokenAddress(uint256,address,bool)": {
        "notice": "Update distributable token address"
      }
    },
    "notice": "This stores all games in the Oparcade",
    "version": 1
  },
  "storageLayout": {
    "storage": [
      {
        "astId": 130,
        "contract": "contracts/GameRegistry.sol:GameRegistry",
        "label": "_initialized",
        "offset": 0,
        "slot": "0",
        "type": "t_bool"
      },
      {
        "astId": 133,
        "contract": "contracts/GameRegistry.sol:GameRegistry",
        "label": "_initializing",
        "offset": 1,
        "slot": "0",
        "type": "t_bool"
      },
      {
        "astId": 929,
        "contract": "contracts/GameRegistry.sol:GameRegistry",
        "label": "__gap",
        "offset": 0,
        "slot": "1",
        "type": "t_array(t_uint256)50_storage"
      },
      {
        "astId": 10,
        "contract": "contracts/GameRegistry.sol:GameRegistry",
        "label": "_owner",
        "offset": 0,
        "slot": "51",
        "type": "t_address"
      },
      {
        "astId": 123,
        "contract": "contracts/GameRegistry.sol:GameRegistry",
        "label": "__gap",
        "offset": 0,
        "slot": "52",
        "type": "t_array(t_uint256)49_storage"
      },
      {
        "astId": 1302,
        "contract": "contracts/GameRegistry.sol:GameRegistry",
        "label": "games",
        "offset": 0,
        "slot": "101",
        "type": "t_array(t_string_storage)dyn_storage"
      },
      {
        "astId": 1308,
        "contract": "contracts/GameRegistry.sol:GameRegistry",
        "label": "depositTokenList",
        "offset": 0,
        "slot": "102",
        "type": "t_mapping(t_uint256,t_array(t_address)dyn_storage)"
      },
      {
        "astId": 1315,
        "contract": "contracts/GameRegistry.sol:GameRegistry",
        "label": "depositTokenAmount",
        "offset": 0,
        "slot": "103",
        "type": "t_mapping(t_uint256,t_mapping(t_address,t_uint256))"
      },
      {
        "astId": 1321,
        "contract": "contracts/GameRegistry.sol:GameRegistry",
        "label": "distributableTokenList",
        "offset": 0,
        "slot": "104",
        "type": "t_mapping(t_uint256,t_array(t_address)dyn_storage)"
      },
      {
        "astId": 1328,
        "contract": "contracts/GameRegistry.sol:GameRegistry",
        "label": "distributable",
        "offset": 0,
        "slot": "105",
        "type": "t_mapping(t_uint256,t_mapping(t_address,t_bool))"
      },
      {
        "astId": 1333,
        "contract": "contracts/GameRegistry.sol:GameRegistry",
        "label": "isDeprecatedGame",
        "offset": 0,
        "slot": "106",
        "type": "t_mapping(t_uint256,t_bool)"
      }
    ],
    "types": {
      "t_address": {
        "encoding": "inplace",
        "label": "address",
        "numberOfBytes": "20"
      },
      "t_array(t_address)dyn_storage": {
        "base": "t_address",
        "encoding": "dynamic_array",
        "label": "address[]",
        "numberOfBytes": "32"
      },
      "t_array(t_string_storage)dyn_storage": {
        "base": "t_string_storage",
        "encoding": "dynamic_array",
        "label": "string[]",
        "numberOfBytes": "32"
      },
      "t_array(t_uint256)49_storage": {
        "base": "t_uint256",
        "encoding": "inplace",
        "label": "uint256[49]",
        "numberOfBytes": "1568"
      },
      "t_array(t_uint256)50_storage": {
        "base": "t_uint256",
        "encoding": "inplace",
        "label": "uint256[50]",
        "numberOfBytes": "1600"
      },
      "t_bool": {
        "encoding": "inplace",
        "label": "bool",
        "numberOfBytes": "1"
      },
      "t_mapping(t_address,t_bool)": {
        "encoding": "mapping",
        "key": "t_address",
        "label": "mapping(address => bool)",
        "numberOfBytes": "32",
        "value": "t_bool"
      },
      "t_mapping(t_address,t_uint256)": {
        "encoding": "mapping",
        "key": "t_address",
        "label": "mapping(address => uint256)",
        "numberOfBytes": "32",
        "value": "t_uint256"
      },
      "t_mapping(t_uint256,t_array(t_address)dyn_storage)": {
        "encoding": "mapping",
        "key": "t_uint256",
        "label": "mapping(uint256 => address[])",
        "numberOfBytes": "32",
        "value": "t_array(t_address)dyn_storage"
      },
      "t_mapping(t_uint256,t_bool)": {
        "encoding": "mapping",
        "key": "t_uint256",
        "label": "mapping(uint256 => bool)",
        "numberOfBytes": "32",
        "value": "t_bool"
      },
      "t_mapping(t_uint256,t_mapping(t_address,t_bool))": {
        "encoding": "mapping",
        "key": "t_uint256",
        "label": "mapping(uint256 => mapping(address => bool))",
        "numberOfBytes": "32",
        "value": "t_mapping(t_address,t_bool)"
      },
      "t_mapping(t_uint256,t_mapping(t_address,t_uint256))": {
        "encoding": "mapping",
        "key": "t_uint256",
        "label": "mapping(uint256 => mapping(address => uint256))",
        "numberOfBytes": "32",
        "value": "t_mapping(t_address,t_uint256)"
      },
      "t_string_storage": {
        "encoding": "bytes",
        "label": "string",
        "numberOfBytes": "32"
      },
      "t_uint256": {
        "encoding": "inplace",
        "label": "uint256",
        "numberOfBytes": "32"
      }
    }
  }
}