{
  "address": "0x351dF046AEC454DE4E92B1bDde9e57F88Ba72591",
  "abi": [
    {
      "anonymous": false,
      "inputs": [
        {
          "indexed": true,
          "internalType": "address",
          "name": "by",
          "type": "address"
        },
        {
          "indexed": true,
          "internalType": "uint256",
          "name": "gid",
          "type": "uint256"
        },
        {
          "indexed": true,
          "internalType": "address",
          "name": "token",
          "type": "address"
        },
        {
          "indexed": false,
          "internalType": "uint256",
          "name": "amount",
          "type": "uint256"
        }
      ],
      "name": "Claim",
      "type": "event"
    },
    {
      "anonymous": false,
      "inputs": [
        {
          "indexed": true,
          "internalType": "address",
          "name": "by",
          "type": "address"
        },
        {
          "indexed": true,
          "internalType": "uint256",
          "name": "gid",
          "type": "uint256"
        },
        {
          "indexed": true,
          "internalType": "address",
          "name": "token",
          "type": "address"
        },
        {
          "indexed": false,
          "internalType": "uint256",
          "name": "amount",
          "type": "uint256"
        }
      ],
      "name": "Deposit",
      "type": "event"
    },
    {
      "anonymous": false,
      "inputs": [
        {
          "indexed": true,
          "internalType": "address",
          "name": "previousOwner",
          "type": "address"
        },
        {
          "indexed": true,
          "internalType": "address",
          "name": "newOwner",
          "type": "address"
        }
      ],
      "name": "OwnershipTransferred",
      "type": "event"
    },
    {
      "anonymous": false,
      "inputs": [
        {
          "indexed": false,
          "internalType": "address",
          "name": "account",
          "type": "address"
        }
      ],
      "name": "Paused",
      "type": "event"
    },
    {
      "anonymous": false,
      "inputs": [
        {
          "indexed": true,
          "internalType": "address",
          "name": "by",
          "type": "address"
        },
        {
          "indexed": true,
          "internalType": "address",
          "name": "oldFeeRecipient",
          "type": "address"
        },
        {
          "indexed": false,
          "internalType": "uint256",
          "name": "oldPlatformFee",
          "type": "uint256"
        },
        {
          "indexed": true,
          "internalType": "address",
          "name": "newFeeRecipient",
          "type": "address"
        },
        {
          "indexed": false,
          "internalType": "uint256",
          "name": "newPlatformFee",
          "type": "uint256"
        }
      ],
      "name": "PlatformFeeUpdated",
      "type": "event"
    },
    {
      "anonymous": false,
      "inputs": [
        {
          "indexed": false,
          "internalType": "address",
          "name": "account",
          "type": "address"
        }
      ],
      "name": "Unpaused",
      "type": "event"
    },
    {
      "inputs": [],
      "name": "addressRegistry",
      "outputs": [
        {
          "internalType": "contract IAddressRegistry",
          "name": "",
          "type": "address"
        }
      ],
      "stateMutability": "view",
      "type": "function"
    },
    {
      "inputs": [
        {
          "internalType": "uint256",
          "name": "_gid",
          "type": "uint256"
        },
        {
          "internalType": "address",
          "name": "_winner",
          "type": "address"
        },
        {
          "internalType": "address",
          "name": "_token",
          "type": "address"
        },
        {
          "internalType": "uint256",
          "name": "_amount",
          "type": "uint256"
        },
        {
          "internalType": "uint256",
          "name": "_nonce",
          "type": "uint256"
        },
        {
          "internalType": "bytes",
          "name": "_signature",
          "type": "bytes"
        }
      ],
      "name": "claim",
      "outputs": [],
      "stateMutability": "nonpayable",
      "type": "function"
    },
    {
      "inputs": [
        {
          "internalType": "uint256",
          "name": "_gid",
          "type": "uint256"
        },
        {
          "internalType": "address",
          "name": "_token",
          "type": "address"
        }
      ],
      "name": "deposit",
      "outputs": [],
      "stateMutability": "nonpayable",
      "type": "function"
    },
    {
      "inputs": [],
      "name": "feeRecipient",
      "outputs": [
        {
          "internalType": "address",
          "name": "",
          "type": "address"
        }
      ],
      "stateMutability": "view",
      "type": "function"
    },
    {
      "inputs": [
        {
          "internalType": "address",
          "name": "_addressRegistry",
          "type": "address"
        },
        {
          "internalType": "address",
          "name": "_feeRecipient",
          "type": "address"
        },
        {
          "internalType": "uint16",
          "name": "_platformFee",
          "type": "uint16"
        }
      ],
      "name": "initialize",
      "outputs": [],
      "stateMutability": "nonpayable",
      "type": "function"
    },
    {
      "inputs": [],
      "name": "owner",
      "outputs": [
        {
          "internalType": "address",
          "name": "",
          "type": "address"
        }
      ],
      "stateMutability": "view",
      "type": "function"
    },
    {
      "inputs": [],
      "name": "pause",
      "outputs": [],
      "stateMutability": "nonpayable",
      "type": "function"
    },
    {
      "inputs": [],
      "name": "paused",
      "outputs": [
        {
          "internalType": "bool",
          "name": "",
          "type": "bool"
        }
      ],
      "stateMutability": "view",
      "type": "function"
    },
    {
      "inputs": [],
      "name": "platformFee",
      "outputs": [
        {
          "internalType": "uint16",
          "name": "",
          "type": "uint16"
        }
      ],
      "stateMutability": "view",
      "type": "function"
    },
    {
      "inputs": [],
      "name": "renounceOwnership",
      "outputs": [],
      "stateMutability": "nonpayable",
      "type": "function"
    },
    {
      "inputs": [
        {
          "internalType": "bytes",
          "name": "",
          "type": "bytes"
        }
      ],
      "name": "signatures",
      "outputs": [
        {
          "internalType": "bool",
          "name": "",
          "type": "bool"
        }
      ],
      "stateMutability": "view",
      "type": "function"
    },
    {
      "inputs": [
        {
          "internalType": "address",
          "name": "newOwner",
          "type": "address"
        }
      ],
      "name": "transferOwnership",
      "outputs": [],
      "stateMutability": "nonpayable",
      "type": "function"
    },
    {
      "inputs": [],
      "name": "unpause",
      "outputs": [],
      "stateMutability": "nonpayable",
      "type": "function"
    },
    {
      "inputs": [
        {
          "internalType": "address",
          "name": "_feeRecipient",
          "type": "address"
        },
        {
          "internalType": "uint16",
          "name": "_platformFee",
          "type": "uint16"
        }
      ],
      "name": "updatePlatformFee",
      "outputs": [],
      "stateMutability": "nonpayable",
      "type": "function"
    }
  ],
  "transactionHash": "0xd5280023553012b0b2fe0645bf4fdd26dcd8a74ddd4815a431fd4d5904108dea",
  "args": [],
  "numDeployments": 1,
  "solcInputHash": "8e7920041f2d701acbb999bb466e5efa",
  "bytecode": "0x608060405234801561001057600080fd5b50611fa1806100206000396000f3fe608060405234801561001057600080fd5b50600436106100ea5760003560e01c80637ebef5291161008c578063d31e22de11610066578063d31e22de146101c1578063e62ad9f2146101ef578063f2fde38b14610202578063f3ad65f41461021557600080fd5b80637ebef529146101955780638456cb59146101a85780638da5cb5b146101b057600080fd5b806346904840116100c857806346904840146101325780635c975abb146101635780636e553f651461017a578063715018a61461018d57600080fd5b806326232a2e146100ef5780633aed8455146101155780633f4ba83a1461012a575b600080fd5b60cb546100fd9061ffff1681565b60405161ffff90911681526020015b60405180910390f35b610128610123366004611bbe565b610228565b005b610128610742565b60cb5461014b906201000090046001600160a01b031681565b6040516001600160a01b03909116815260200161010c565b60975460ff165b604051901515815260200161010c565b610128610188366004611c73565b6107a6565b610128610987565b6101286101a3366004611cba565b6109eb565b610128610c30565b6033546001600160a01b031661014b565b61016a6101cf366004611d17565b805160208183018101805160ca8252928201919093012091525460ff1681565b6101286101fd366004611dc8565b610c92565b610128610210366004611dfd565b610e44565b60c95461014b906001600160a01b031681565b600260655414156102805760405162461bcd60e51b815260206004820152601f60248201527f5265656e7472616e637947756172643a207265656e7472616e742063616c6c0060448201526064015b60405180910390fd5b600260655560975460ff16156102cb5760405162461bcd60e51b815260206004820152601060248201526f14185d5cd8589b194e881c185d5cd95960821b6044820152606401610277565b60ca82826040516102dd929190611e1a565b9081526040519081900360200190205460ff161561033d5760405162461bcd60e51b815260206004820152601660248201527f416c72656164792075736564207369676e6174757265000000000000000000006044820152606401610277565b600160ca8383604051610351929190611e1a565b908152604051908190036020019020805491151560ff19909216919091179055336001600160a01b038716146103c95760405162461bcd60e51b815260206004820152601560248201527f4f6e6c792077696e6e65722063616e20636c61696d00000000000000000000006044820152606401610277565b60c95460408051639850d32b60e01b815290516000926001600160a01b031691639850d32b9160048083019260209291908290030181865afa158015610413573d6000803e3d6000fd5b505050506040513d601f19601f820116820180604052508101906104379190611e2a565b60408051602081018b90526bffffffffffffffffffffffff1933606090811b8216938301939093529189901b9091166054820152606881018790526088810186905290915060009060a801604051602081830303815290604052805190602001209050816001600160a01b03166104ef85858080601f0160208091040260200160405190810160405280939291908181526020018383808284376000920191909152506104e99250869150610f269050565b90610f79565b6001600160a01b0316146105455760405162461bcd60e51b815260206004820152600c60248201527f57726f6e67207369676e657200000000000000000000000000000000000000006044820152606401610277565b60c960009054906101000a90046001600160a01b03166001600160a01b031663da0907556040518163ffffffff1660e01b8152600401602060405180830381865afa158015610598573d6000803e3d6000fd5b505050506040513d601f19601f820116820180604052508101906105bc9190611e2a565b604051632831fdc760e21b8152600481018b90526001600160a01b038981166024830152919091169063a0c7f71c90604401602060405180830381865afa15801561060b573d6000803e3d6000fd5b505050506040513d601f19601f8201168201806040525081019061062f9190611e47565b61067b5760405162461bcd60e51b815260206004820152601660248201527f446973616c6c6f77656420636c61696d20746f6b656e000000000000000000006044820152606401610277565b60cb546000906103e8906106939061ffff1689611e7f565b61069d9190611e9e565b905060006106ab8289611ec0565b60cb549091506106ce906001600160a01b038b8116916201000090041684611023565b6106e26001600160a01b038a163383611023565b886001600160a01b03168b336001600160a01b03167fad03f837a9207e368d73ec028e1f54428184da8cfea258cc116da2225f3ac5eb8b60405161072891815260200190565b60405180910390a450506001606555505050505050505050565b6033546001600160a01b0316331461079c5760405162461bcd60e51b815260206004820181905260248201527f4f776e61626c653a2063616c6c6572206973206e6f7420746865206f776e65726044820152606401610277565b6107a46110b8565b565b60975460ff16156107ec5760405162461bcd60e51b815260206004820152601060248201526f14185d5cd8589b194e881c185d5cd95960821b6044820152606401610277565b60c9546040805163da09075560e01b815290516000926001600160a01b03169163da0907559160048083019260209291908290030181865afa158015610836573d6000803e3d6000fd5b505050506040513d601f19601f8201168201806040525081019061085a9190611e2a565b60405163cb8f76f360e01b8152600481018590526001600160a01b038481166024830152919091169063cb8f76f390604401602060405180830381865afa1580156108a9573d6000803e3d6000fd5b505050506040513d601f19601f820116820180604052508101906108cd9190611ed7565b90506000811161091f5760405162461bcd60e51b815260206004820152601560248201527f496e76616c6964206465706f73697420746f6b656e00000000000000000000006044820152606401610277565b6109346001600160a01b038316333084611154565b816001600160a01b031683336001600160a01b03167fd2f8022f659fd9c8c558f30c00fd5ee7038f7cb56da45095c3e0e7d48b3e0c4b8460405161097a91815260200190565b60405180910390a4505050565b6033546001600160a01b031633146109e15760405162461bcd60e51b815260206004820181905260248201527f4f776e61626c653a2063616c6c6572206973206e6f7420746865206f776e65726044820152606401610277565b6107a4600061118c565b600054610100900460ff1680610a04575060005460ff16155b610a675760405162461bcd60e51b815260206004820152602e60248201527f496e697469616c697a61626c653a20636f6e747261637420697320616c72656160448201526d191e481a5b9a5d1a585b1a5e995960921b6064820152608401610277565b600054610100900460ff16158015610a89576000805461ffff19166101011790555b610a916111eb565b610a996112ad565b610aa1611353565b6001600160a01b038416610af75760405162461bcd60e51b815260206004820152601760248201527f496e76616c6964204164647265737352656769737472790000000000000000006044820152606401610277565b6001600160a01b038316151580610b10575061ffff8216155b610b5c5760405162461bcd60e51b815260206004820152601560248201527f46656520726563697069656e74206e6f742073657400000000000000000000006044820152606401610277565b6103e88261ffff161115610bb25760405162461bcd60e51b815260206004820152601560248201527f506c6174666f726d2066656520657863656564656400000000000000000000006044820152606401610277565b60c9805473ffffffffffffffffffffffffffffffffffffffff19166001600160a01b038681169190911790915560cb805475ffffffffffffffffffffffffffffffffffffffffffff1916620100009286169290920261ffff19169190911761ffff84161790558015610c2a576000805461ff00191690555b50505050565b6033546001600160a01b03163314610c8a5760405162461bcd60e51b815260206004820181905260248201527f4f776e61626c653a2063616c6c6572206973206e6f7420746865206f776e65726044820152606401610277565b6107a4611401565b6033546001600160a01b03163314610cec5760405162461bcd60e51b815260206004820181905260248201527f4f776e61626c653a2063616c6c6572206973206e6f7420746865206f776e65726044820152606401610277565b6001600160a01b038216151580610d05575061ffff8116155b610d515760405162461bcd60e51b815260206004820152601560248201527f46656520726563697069656e74206e6f742073657400000000000000000000006044820152606401610277565b6103e88161ffff161115610da75760405162461bcd60e51b815260206004820152601560248201527f506c6174666f726d2066656520657863656564656400000000000000000000006044820152606401610277565b60cb546040805161ffff8084168252841660208201526001600160a01b0385811693620100009004169133917f41340b8520c039756fdade211d2fd26138ba0673031cebf9ae4ae32d38357062910160405180910390a460cb805475ffffffffffffffffffffffffffffffffffffffffffff1916620100006001600160a01b03949094169390930261ffff19169290921761ffff91909116179055565b6033546001600160a01b03163314610e9e5760405162461bcd60e51b815260206004820181905260248201527f4f776e61626c653a2063616c6c6572206973206e6f7420746865206f776e65726044820152606401610277565b6001600160a01b038116610f1a5760405162461bcd60e51b815260206004820152602660248201527f4f776e61626c653a206e6577206f776e657220697320746865207a65726f206160448201527f64647265737300000000000000000000000000000000000000000000000000006064820152608401610277565b610f238161118c565b50565b6040517f19457468657265756d205369676e6564204d6573736167653a0a3332000000006020820152603c8101829052600090605c01604051602081830303815290604052805190602001209050919050565b6000815160411415610fad5760208201516040830151606084015160001a610fa38682858561147c565b935050505061101d565b815160401415610fd55760208201516040830151610fcc858383611625565b9250505061101d565b60405162461bcd60e51b815260206004820152601f60248201527f45434453413a20696e76616c6964207369676e6174757265206c656e677468006044820152606401610277565b92915050565b6040516001600160a01b0383166024820152604481018290526110b390849063a9059cbb60e01b906064015b60408051601f198184030181529190526020810180517bffffffffffffffffffffffffffffffffffffffffffffffffffffffff167fffffffff000000000000000000000000000000000000000000000000000000009093169290921790915261166a565b505050565b60975460ff1661110a5760405162461bcd60e51b815260206004820152601460248201527f5061757361626c653a206e6f74207061757365640000000000000000000000006044820152606401610277565b6097805460ff191690557f5db9ee0a495bf2e6ff9c91a7834c1ba4fdd244a5e8aa4e537bd38aeae4b073aa335b6040516001600160a01b03909116815260200160405180910390a1565b6040516001600160a01b0380851660248301528316604482015260648101829052610c2a9085906323b872dd60e01b9060840161104f565b603380546001600160a01b0383811673ffffffffffffffffffffffffffffffffffffffff19831681179093556040519116919082907f8be0079c531659141344cd1fd0a4f28419497f9722a3daafe3b4186f6b6457e090600090a35050565b600054610100900460ff1680611204575060005460ff16155b6112675760405162461bcd60e51b815260206004820152602e60248201527f496e697469616c697a61626c653a20636f6e747261637420697320616c72656160448201526d191e481a5b9a5d1a585b1a5e995960921b6064820152608401610277565b600054610100900460ff16158015611289576000805461ffff19166101011790555b61129161174f565b611299611800565b8015610f23576000805461ff001916905550565b600054610100900460ff16806112c6575060005460ff16155b6113295760405162461bcd60e51b815260206004820152602e60248201527f496e697469616c697a61626c653a20636f6e747261637420697320616c72656160448201526d191e481a5b9a5d1a585b1a5e995960921b6064820152608401610277565b600054610100900460ff1615801561134b576000805461ffff19166101011790555b6112996118a7565b600054610100900460ff168061136c575060005460ff16155b6113cf5760405162461bcd60e51b815260206004820152602e60248201527f496e697469616c697a61626c653a20636f6e747261637420697320616c72656160448201526d191e481a5b9a5d1a585b1a5e995960921b6064820152608401610277565b600054610100900460ff161580156113f1576000805461ffff19166101011790555b6113f961174f565b61129961195e565b60975460ff16156114475760405162461bcd60e51b815260206004820152601060248201526f14185d5cd8589b194e881c185d5cd95960821b6044820152606401610277565b6097805460ff191660011790557f62e78cea01bee320cd4e420270b5ea74000d11b0c9f74754ebdbfc544b05a2586111373390565b60007f7fffffffffffffffffffffffffffffff5d576e7357a4501ddfe92f46681b20a08211156114f95760405162461bcd60e51b815260206004820152602260248201527f45434453413a20696e76616c6964207369676e6174757265202773272076616c604482015261756560f01b6064820152608401610277565b8360ff16601b148061150e57508360ff16601c145b6115655760405162461bcd60e51b815260206004820152602260248201527f45434453413a20696e76616c6964207369676e6174757265202776272076616c604482015261756560f01b6064820152608401610277565b6040805160008082526020820180845288905260ff871692820192909252606081018590526080810184905260019060a0016020604051602081039080840390855afa1580156115b9573d6000803e3d6000fd5b5050604051601f1901519150506001600160a01b03811661161c5760405162461bcd60e51b815260206004820152601860248201527f45434453413a20696e76616c6964207369676e617475726500000000000000006044820152606401610277565b95945050505050565b60007f7fffffffffffffffffffffffffffffffffffffffffffffffffffffffffffffff821660ff83901c601b0161165e8682878561147c565b925050505b9392505050565b60006116bf826040518060400160405280602081526020017f5361666545524332303a206c6f772d6c6576656c2063616c6c206661696c6564815250856001600160a01b0316611a1a9092919063ffffffff16565b8051909150156110b357808060200190518101906116dd9190611e47565b6110b35760405162461bcd60e51b815260206004820152602a60248201527f5361666545524332303a204552433230206f7065726174696f6e20646964206e60448201527f6f742073756363656564000000000000000000000000000000000000000000006064820152608401610277565b600054610100900460ff1680611768575060005460ff16155b6117cb5760405162461bcd60e51b815260206004820152602e60248201527f496e697469616c697a61626c653a20636f6e747261637420697320616c72656160448201526d191e481a5b9a5d1a585b1a5e995960921b6064820152608401610277565b600054610100900460ff16158015611299576000805461ffff19166101011790558015610f23576000805461ff001916905550565b600054610100900460ff1680611819575060005460ff16155b61187c5760405162461bcd60e51b815260206004820152602e60248201527f496e697469616c697a61626c653a20636f6e747261637420697320616c72656160448201526d191e481a5b9a5d1a585b1a5e995960921b6064820152608401610277565b600054610100900460ff1615801561189e576000805461ffff19166101011790555b6112993361118c565b600054610100900460ff16806118c0575060005460ff16155b6119235760405162461bcd60e51b815260206004820152602e60248201527f496e697469616c697a61626c653a20636f6e747261637420697320616c72656160448201526d191e481a5b9a5d1a585b1a5e995960921b6064820152608401610277565b600054610100900460ff16158015611945576000805461ffff19166101011790555b60016065558015610f23576000805461ff001916905550565b600054610100900460ff1680611977575060005460ff16155b6119da5760405162461bcd60e51b815260206004820152602e60248201527f496e697469616c697a61626c653a20636f6e747261637420697320616c72656160448201526d191e481a5b9a5d1a585b1a5e995960921b6064820152608401610277565b600054610100900460ff161580156119fc576000805461ffff19166101011790555b6097805460ff191690558015610f23576000805461ff001916905550565b6060611a298484600085611a31565b949350505050565b606082471015611aa95760405162461bcd60e51b815260206004820152602660248201527f416464726573733a20696e73756666696369656e742062616c616e636520666f60448201527f722063616c6c00000000000000000000000000000000000000000000000000006064820152608401610277565b843b611af75760405162461bcd60e51b815260206004820152601d60248201527f416464726573733a2063616c6c20746f206e6f6e2d636f6e74726163740000006044820152606401610277565b600080866001600160a01b03168587604051611b139190611f1c565b60006040518083038185875af1925050503d8060008114611b50576040519150601f19603f3d011682016040523d82523d6000602084013e611b55565b606091505b5091509150611b65828286611b70565b979650505050505050565b60608315611b7f575081611663565b825115611b8f5782518084602001fd5b8160405162461bcd60e51b81526004016102779190611f38565b6001600160a01b0381168114610f2357600080fd5b600080600080600080600060c0888a031215611bd957600080fd5b873596506020880135611beb81611ba9565b95506040880135611bfb81611ba9565b9450606088013593506080880135925060a088013567ffffffffffffffff80821115611c2657600080fd5b818a0191508a601f830112611c3a57600080fd5b813581811115611c4957600080fd5b8b6020828501011115611c5b57600080fd5b60208301945080935050505092959891949750929550565b60008060408385031215611c8657600080fd5b823591506020830135611c9881611ba9565b809150509250929050565b803561ffff81168114611cb557600080fd5b919050565b600080600060608486031215611ccf57600080fd5b8335611cda81611ba9565b92506020840135611cea81611ba9565b9150611cf860408501611ca3565b90509250925092565b634e487b7160e01b600052604160045260246000fd5b600060208284031215611d2957600080fd5b813567ffffffffffffffff80821115611d4157600080fd5b818401915084601f830112611d5557600080fd5b813581811115611d6757611d67611d01565b604051601f8201601f19908116603f01168101908382118183101715611d8f57611d8f611d01565b81604052828152876020848701011115611da857600080fd5b826020860160208301376000928101602001929092525095945050505050565b60008060408385031215611ddb57600080fd5b8235611de681611ba9565b9150611df460208401611ca3565b90509250929050565b600060208284031215611e0f57600080fd5b813561166381611ba9565b8183823760009101908152919050565b600060208284031215611e3c57600080fd5b815161166381611ba9565b600060208284031215611e5957600080fd5b8151801515811461166357600080fd5b634e487b7160e01b600052601160045260246000fd5b6000816000190483118215151615611e9957611e99611e69565b500290565b600082611ebb57634e487b7160e01b600052601260045260246000fd5b500490565b600082821015611ed257611ed2611e69565b500390565b600060208284031215611ee957600080fd5b5051919050565b60005b83811015611f0b578181015183820152602001611ef3565b83811115610c2a5750506000910152565b60008251611f2e818460208701611ef0565b9190910192915050565b6020815260008251806020840152611f57816040850160208701611ef0565b601f01601f1916919091016040019291505056fea264697066735822122077b439d277940e29eda93d568073f56408db8b93051a9f5ba838b5fe5822870264736f6c634300080b0033",
  "devdoc": {
    "author": "David Lee",
    "kind": "dev",
    "methods": {
      "claim(uint256,address,address,uint256,uint256,bytes)": {
        "details": "Only winners with the valid signature are able to claim",
        "params": {
          "_amount": "Token amount to claim",
          "_gid": "Game ID",
          "_nonce": "Nonce",
          "_signature": "Signature",
          "_token": "Token address to claim",
          "_winner": "Winner address"
        }
      },
      "deposit(uint256,address)": {
        "details": "Only tokens registered in GameRegistry with an amount greater than zero is valid for the deposit",
        "params": {
          "_gid": "Game ID",
          "_token": "Token address to deposit"
        }
      },
      "owner()": {
        "details": "Returns the address of the current owner."
      },
      "pause()": {
        "details": "Only owner"
      },
      "paused()": {
        "details": "Returns true if the contract is paused, and false otherwise."
      },
      "renounceOwnership()": {
        "details": "Leaves the contract without owner. It will not be possible to call `onlyOwner` functions anymore. Can only be called by the current owner. NOTE: Renouncing ownership will leave the contract without an owner, thereby removing any functionality that is only available to the owner."
      },
      "transferOwnership(address)": {
        "details": "Transfers ownership of the contract to a new account (`newOwner`). Can only be called by the current owner."
      },
      "unpause()": {
        "details": "Only owner"
      },
      "updatePlatformFee(address,uint16)": {
        "details": "Only ownerAllow zero recipient address only of fee is also zero",
        "params": {
          "_platformFee": "platform fee"
        }
      }
    },
    "stateVariables": {
      "addressRegistry": {
        "details": "AddressRegistry"
      },
      "feeRecipient": {
        "details": "Platform fee recipient"
      },
      "platformFee": {
        "details": "Platform fee"
      },
      "signatures": {
        "details": "Signature -> Bool"
      }
    },
    "title": "Oparcade",
    "version": 1
  },
  "userdoc": {
    "kind": "user",
    "methods": {
      "claim(uint256,address,address,uint256,uint256,bytes)": {
        "notice": "Allow for the users to claim ERC20 tokens"
      },
      "deposit(uint256,address)": {
        "notice": "Deposit ERC20 tokens from user"
      },
      "pause()": {
        "notice": "Pause Oparcade"
      },
      "unpause()": {
        "notice": "Resume Oparcade"
      },
      "updatePlatformFee(address,uint16)": {
        "notice": "Update platform fee"
      }
    },
    "notice": "This manages the token deposit and claim from/to the users",
    "version": 1
  },
  "storageLayout": {
    "storage": [
      {
        "astId": 130,
        "contract": "contracts/Oparcade.sol:Oparcade",
        "label": "_initialized",
        "offset": 0,
        "slot": "0",
        "type": "t_bool"
      },
      {
        "astId": 133,
        "contract": "contracts/Oparcade.sol:Oparcade",
        "label": "_initializing",
        "offset": 1,
        "slot": "0",
        "type": "t_bool"
      },
      {
        "astId": 929,
        "contract": "contracts/Oparcade.sol:Oparcade",
        "label": "__gap",
        "offset": 0,
        "slot": "1",
        "type": "t_array(t_uint256)50_storage"
      },
      {
        "astId": 10,
        "contract": "contracts/Oparcade.sol:Oparcade",
        "label": "_owner",
        "offset": 0,
        "slot": "51",
        "type": "t_address"
      },
      {
        "astId": 123,
        "contract": "contracts/Oparcade.sol:Oparcade",
        "label": "__gap",
        "offset": 0,
        "slot": "52",
        "type": "t_array(t_uint256)49_storage"
      },
      {
        "astId": 297,
        "contract": "contracts/Oparcade.sol:Oparcade",
        "label": "_status",
        "offset": 0,
        "slot": "101",
        "type": "t_uint256"
      },
      {
        "astId": 340,
        "contract": "contracts/Oparcade.sol:Oparcade",
        "label": "__gap",
        "offset": 0,
        "slot": "102",
        "type": "t_array(t_uint256)49_storage"
      },
      {
        "astId": 191,
        "contract": "contracts/Oparcade.sol:Oparcade",
        "label": "_paused",
        "offset": 0,
        "slot": "151",
        "type": "t_bool"
      },
      {
        "astId": 282,
        "contract": "contracts/Oparcade.sol:Oparcade",
        "label": "__gap",
        "offset": 0,
        "slot": "152",
        "type": "t_array(t_uint256)49_storage"
      },
      {
        "astId": 1547,
        "contract": "contracts/Oparcade.sol:Oparcade",
        "label": "addressRegistry",
        "offset": 0,
        "slot": "201",
        "type": "t_contract(IAddressRegistry)1895"
      },
      {
        "astId": 1552,
        "contract": "contracts/Oparcade.sol:Oparcade",
        "label": "signatures",
        "offset": 0,
        "slot": "202",
        "type": "t_mapping(t_bytes_memory_ptr,t_bool)"
      },
      {
        "astId": 1555,
        "contract": "contracts/Oparcade.sol:Oparcade",
        "label": "platformFee",
        "offset": 0,
        "slot": "203",
        "type": "t_uint16"
      },
      {
        "astId": 1558,
        "contract": "contracts/Oparcade.sol:Oparcade",
        "label": "feeRecipient",
        "offset": 2,
        "slot": "203",
        "type": "t_address"
      }
    ],
    "types": {
      "t_address": {
        "encoding": "inplace",
        "label": "address",
        "numberOfBytes": "20"
      },
      "t_array(t_uint256)49_storage": {
        "base": "t_uint256",
        "encoding": "inplace",
        "label": "uint256[49]",
        "numberOfBytes": "1568"
      },
      "t_array(t_uint256)50_storage": {
        "base": "t_uint256",
        "encoding": "inplace",
        "label": "uint256[50]",
        "numberOfBytes": "1600"
      },
      "t_bool": {
        "encoding": "inplace",
        "label": "bool",
        "numberOfBytes": "1"
      },
      "t_bytes_memory_ptr": {
        "encoding": "bytes",
        "label": "bytes",
        "numberOfBytes": "32"
      },
      "t_contract(IAddressRegistry)1895": {
        "encoding": "inplace",
        "label": "contract IAddressRegistry",
        "numberOfBytes": "20"
      },
      "t_mapping(t_bytes_memory_ptr,t_bool)": {
        "encoding": "mapping",
        "key": "t_bytes_memory_ptr",
        "label": "mapping(bytes => bool)",
        "numberOfBytes": "32",
        "value": "t_bool"
      },
      "t_uint16": {
        "encoding": "inplace",
        "label": "uint16",
        "numberOfBytes": "2"
      },
      "t_uint256": {
        "encoding": "inplace",
        "label": "uint256",
        "numberOfBytes": "32"
      }
    }
  }
}