{
  "address": "0xfBa39Bd8991F5Efc2fEbB0495d120A6f5fdC1983",
  "abi": [
    {
      "anonymous": false,
      "inputs": [
        {
          "indexed": false,
          "internalType": "address",
          "name": "by",
          "type": "address"
        },
        {
          "indexed": false,
          "internalType": "address",
          "name": "from",
          "type": "address"
        },
        {
          "indexed": true,
          "internalType": "uint256",
          "name": "gid",
          "type": "uint256"
        },
        {
          "indexed": true,
          "internalType": "uint256",
          "name": "tid",
          "type": "uint256"
        },
        {
          "indexed": true,
          "internalType": "address",
          "name": "nftAddress",
          "type": "address"
        },
        {
          "indexed": false,
          "internalType": "uint256",
          "name": "nftType",
          "type": "uint256"
        },
        {
          "indexed": false,
          "internalType": "uint256[]",
          "name": "tokenIds",
          "type": "uint256[]"
        },
        {
          "indexed": false,
          "internalType": "uint256[]",
          "name": "amounts",
          "type": "uint256[]"
        }
      ],
      "name": "NFTPrizeDeposited",
      "type": "event"
    },
    {
      "anonymous": false,
      "inputs": [
        {
          "indexed": false,
          "internalType": "address",
          "name": "by",
          "type": "address"
        },
        {
          "indexed": false,
          "internalType": "address[]",
          "name": "winners",
          "type": "address[]"
        },
        {
          "indexed": true,
          "internalType": "uint256",
          "name": "gid",
          "type": "uint256"
        },
        {
          "indexed": true,
          "internalType": "uint256",
          "name": "tid",
          "type": "uint256"
        },
        {
          "indexed": true,
          "internalType": "address",
          "name": "nftAddress",
          "type": "address"
        },
        {
          "indexed": false,
          "internalType": "uint256",
          "name": "nftType",
          "type": "uint256"
        },
        {
          "indexed": false,
          "internalType": "uint256[]",
          "name": "tokenIds",
          "type": "uint256[]"
        },
        {
          "indexed": false,
          "internalType": "uint256[]",
          "name": "amounts",
          "type": "uint256[]"
        }
      ],
      "name": "NFTPrizeDistributed",
      "type": "event"
    },
    {
      "anonymous": false,
      "inputs": [
        {
          "indexed": false,
          "internalType": "address",
          "name": "by",
          "type": "address"
        },
        {
          "indexed": false,
          "internalType": "address",
          "name": "to",
          "type": "address"
        },
        {
          "indexed": true,
          "internalType": "uint256",
          "name": "gid",
          "type": "uint256"
        },
        {
          "indexed": true,
          "internalType": "uint256",
          "name": "tid",
          "type": "uint256"
        },
        {
          "indexed": true,
          "internalType": "address",
          "name": "nftAddress",
          "type": "address"
        },
        {
          "indexed": false,
          "internalType": "uint256",
          "name": "nftType",
          "type": "uint256"
        },
        {
          "indexed": false,
          "internalType": "uint256[]",
          "name": "tokenIds",
          "type": "uint256[]"
        },
        {
          "indexed": false,
          "internalType": "uint256[]",
          "name": "amounts",
          "type": "uint256[]"
        }
      ],
      "name": "NFTPrizeWithdrawn",
      "type": "event"
    },
    {
      "anonymous": false,
      "inputs": [
        {
          "indexed": true,
          "internalType": "address",
          "name": "previousOwner",
          "type": "address"
        },
        {
          "indexed": true,
          "internalType": "address",
          "name": "newOwner",
          "type": "address"
        }
      ],
      "name": "OwnershipTransferred",
      "type": "event"
    },
    {
      "anonymous": false,
      "inputs": [
        {
          "indexed": false,
          "internalType": "address",
          "name": "account",
          "type": "address"
        }
      ],
      "name": "Paused",
      "type": "event"
    },
    {
      "anonymous": false,
      "inputs": [
        {
          "indexed": false,
          "internalType": "address",
          "name": "by",
          "type": "address"
        },
        {
          "indexed": false,
          "internalType": "address",
          "name": "depositor",
          "type": "address"
        },
        {
          "indexed": true,
          "internalType": "uint256",
          "name": "gid",
          "type": "uint256"
        },
        {
          "indexed": true,
          "internalType": "uint256",
          "name": "tid",
          "type": "uint256"
        },
        {
          "indexed": true,
          "internalType": "address",
          "name": "token",
          "type": "address"
        },
        {
          "indexed": false,
          "internalType": "uint256",
          "name": "amount",
          "type": "uint256"
        }
      ],
      "name": "PrizeDeposited",
      "type": "event"
    },
    {
      "anonymous": false,
      "inputs": [
        {
          "indexed": false,
          "internalType": "address",
          "name": "by",
          "type": "address"
        },
        {
          "indexed": false,
          "internalType": "address[]",
          "name": "winners",
          "type": "address[]"
        },
        {
          "indexed": true,
          "internalType": "uint256",
          "name": "gid",
          "type": "uint256"
        },
        {
          "indexed": true,
          "internalType": "uint256",
          "name": "tid",
          "type": "uint256"
        },
        {
          "indexed": true,
          "internalType": "address",
          "name": "token",
          "type": "address"
        },
        {
          "indexed": false,
          "internalType": "uint256[]",
          "name": "amounts",
          "type": "uint256[]"
        }
      ],
      "name": "PrizeDistributed",
      "type": "event"
    },
    {
      "anonymous": false,
      "inputs": [
        {
          "indexed": false,
          "internalType": "address",
          "name": "by",
          "type": "address"
        },
        {
          "indexed": false,
          "internalType": "address",
          "name": "to",
          "type": "address"
        },
        {
          "indexed": true,
          "internalType": "uint256",
          "name": "gid",
          "type": "uint256"
        },
        {
          "indexed": true,
          "internalType": "uint256",
          "name": "tid",
          "type": "uint256"
        },
        {
          "indexed": true,
          "internalType": "address",
          "name": "token",
          "type": "address"
        },
        {
          "indexed": false,
          "internalType": "uint256",
          "name": "amount",
          "type": "uint256"
        }
      ],
      "name": "PrizeWithdrawn",
      "type": "event"
    },
    {
      "anonymous": false,
      "inputs": [
        {
          "indexed": false,
          "internalType": "address",
          "name": "account",
          "type": "address"
        }
      ],
      "name": "Unpaused",
      "type": "event"
    },
    {
      "anonymous": false,
      "inputs": [
        {
          "indexed": false,
          "internalType": "address",
          "name": "by",
          "type": "address"
        },
        {
          "indexed": true,
          "internalType": "uint256",
          "name": "gid",
          "type": "uint256"
        },
        {
          "indexed": true,
          "internalType": "uint256",
          "name": "tid",
          "type": "uint256"
        },
        {
          "indexed": true,
          "internalType": "address",
          "name": "token",
          "type": "address"
        },
        {
          "indexed": false,
          "internalType": "uint256",
          "name": "amount",
          "type": "uint256"
        }
      ],
      "name": "UserDeposited",
      "type": "event"
    },
    {
      "anonymous": false,
      "inputs": [
        {
          "indexed": true,
          "internalType": "address",
          "name": "by",
          "type": "address"
        },
        {
          "indexed": true,
          "internalType": "address",
          "name": "beneficiary",
          "type": "address"
        },
        {
          "indexed": true,
          "internalType": "address",
          "name": "token",
          "type": "address"
        },
        {
          "indexed": false,
          "internalType": "uint256",
          "name": "amount",
          "type": "uint256"
        }
      ],
      "name": "Withdrawn",
      "type": "event"
    },
    {
      "inputs": [],
      "name": "addressRegistry",
      "outputs": [
        {
          "internalType": "contract IAddressRegistry",
          "name": "",
          "type": "address"
        }
      ],
      "stateMutability": "view",
      "type": "function"
    },
    {
      "inputs": [
        {
          "internalType": "uint256",
          "name": "_gid",
          "type": "uint256"
        },
        {
          "internalType": "uint256",
          "name": "_tid",
          "type": "uint256"
        },
        {
          "internalType": "address",
          "name": "_token",
          "type": "address"
        }
      ],
      "name": "deposit",
      "outputs": [],
      "stateMutability": "nonpayable",
      "type": "function"
    },
    {
      "inputs": [
        {
          "internalType": "address",
          "name": "_from",
          "type": "address"
        },
        {
          "internalType": "uint256",
          "name": "_gid",
          "type": "uint256"
        },
        {
          "internalType": "uint256",
          "name": "_tid",
          "type": "uint256"
        },
        {
          "internalType": "address",
          "name": "_nftAddress",
          "type": "address"
        },
        {
          "internalType": "uint256",
          "name": "_nftType",
          "type": "uint256"
        },
        {
          "internalType": "uint256[]",
          "name": "_tokenIds",
          "type": "uint256[]"
        },
        {
          "internalType": "uint256[]",
          "name": "_amounts",
          "type": "uint256[]"
        }
      ],
      "name": "depositNFTPrize",
      "outputs": [],
      "stateMutability": "nonpayable",
      "type": "function"
    },
    {
      "inputs": [
        {
          "internalType": "address",
          "name": "_depositor",
          "type": "address"
        },
        {
          "internalType": "uint256",
          "name": "_gid",
          "type": "uint256"
        },
        {
          "internalType": "uint256",
          "name": "_tid",
          "type": "uint256"
        },
        {
          "internalType": "address",
          "name": "_token",
          "type": "address"
        },
        {
          "internalType": "uint256",
          "name": "_amount",
          "type": "uint256"
        }
      ],
      "name": "depositPrize",
      "outputs": [],
      "stateMutability": "nonpayable",
      "type": "function"
    },
    {
      "inputs": [
        {
          "internalType": "uint256",
          "name": "_gid",
          "type": "uint256"
        },
        {
          "internalType": "uint256",
          "name": "_tid",
          "type": "uint256"
        },
        {
          "internalType": "address[]",
          "name": "_winners",
          "type": "address[]"
        },
        {
          "internalType": "address",
          "name": "_nftAddress",
          "type": "address"
        },
        {
          "internalType": "uint256",
          "name": "_nftType",
          "type": "uint256"
        },
        {
          "internalType": "uint256[]",
          "name": "_tokenIds",
          "type": "uint256[]"
        },
        {
          "internalType": "uint256[]",
          "name": "_amounts",
          "type": "uint256[]"
        }
      ],
      "name": "distributeNFTPrize",
      "outputs": [],
      "stateMutability": "nonpayable",
      "type": "function"
    },
    {
      "inputs": [
        {
          "internalType": "uint256",
          "name": "_gid",
          "type": "uint256"
        },
        {
          "internalType": "uint256",
          "name": "_tid",
          "type": "uint256"
        },
        {
          "internalType": "address[]",
          "name": "_winners",
          "type": "address[]"
        },
        {
          "internalType": "address",
          "name": "_token",
          "type": "address"
        },
        {
          "internalType": "uint256[]",
          "name": "_amounts",
          "type": "uint256[]"
        }
      ],
      "name": "distributePrize",
      "outputs": [],
      "stateMutability": "nonpayable",
      "type": "function"
    },
    {
      "inputs": [
        {
          "internalType": "address",
          "name": "_addressRegistry",
          "type": "address"
        }
      ],
      "name": "initialize",
      "outputs": [],
      "stateMutability": "nonpayable",
      "type": "function"
    },
    {
      "inputs": [
        {
          "internalType": "address",
          "name": "",
          "type": "address"
        },
        {
          "internalType": "address",
          "name": "",
          "type": "address"
        },
        {
          "internalType": "uint256[]",
          "name": "",
          "type": "uint256[]"
        },
        {
          "internalType": "uint256[]",
          "name": "",
          "type": "uint256[]"
        },
        {
          "internalType": "bytes",
          "name": "",
          "type": "bytes"
        }
      ],
      "name": "onERC1155BatchReceived",
      "outputs": [
        {
          "internalType": "bytes4",
          "name": "",
          "type": "bytes4"
        }
      ],
      "stateMutability": "nonpayable",
      "type": "function"
    },
    {
      "inputs": [
        {
          "internalType": "address",
          "name": "",
          "type": "address"
        },
        {
          "internalType": "address",
          "name": "",
          "type": "address"
        },
        {
          "internalType": "uint256",
          "name": "",
          "type": "uint256"
        },
        {
          "internalType": "uint256",
          "name": "",
          "type": "uint256"
        },
        {
          "internalType": "bytes",
          "name": "",
          "type": "bytes"
        }
      ],
      "name": "onERC1155Received",
      "outputs": [
        {
          "internalType": "bytes4",
          "name": "",
          "type": "bytes4"
        }
      ],
      "stateMutability": "nonpayable",
      "type": "function"
    },
    {
      "inputs": [
        {
          "internalType": "address",
          "name": "",
          "type": "address"
        },
        {
          "internalType": "address",
          "name": "",
          "type": "address"
        },
        {
          "internalType": "uint256",
          "name": "",
          "type": "uint256"
        },
        {
          "internalType": "bytes",
          "name": "",
          "type": "bytes"
        }
      ],
      "name": "onERC721Received",
      "outputs": [
        {
          "internalType": "bytes4",
          "name": "",
          "type": "bytes4"
        }
      ],
      "stateMutability": "nonpayable",
      "type": "function"
    },
    {
      "inputs": [],
      "name": "owner",
      "outputs": [
        {
          "internalType": "address",
          "name": "",
          "type": "address"
        }
      ],
      "stateMutability": "view",
      "type": "function"
    },
    {
      "inputs": [],
      "name": "pause",
      "outputs": [],
      "stateMutability": "nonpayable",
      "type": "function"
    },
    {
      "inputs": [],
      "name": "paused",
      "outputs": [
        {
          "internalType": "bool",
          "name": "",
          "type": "bool"
        }
      ],
      "stateMutability": "view",
      "type": "function"
    },
    {
      "inputs": [],
      "name": "renounceOwnership",
      "outputs": [],
      "stateMutability": "nonpayable",
      "type": "function"
    },
    {
      "inputs": [
        {
          "internalType": "bytes4",
          "name": "interfaceId",
          "type": "bytes4"
        }
      ],
      "name": "supportsInterface",
      "outputs": [
        {
          "internalType": "bool",
          "name": "",
          "type": "bool"
        }
      ],
      "stateMutability": "view",
      "type": "function"
    },
    {
      "inputs": [
        {
          "internalType": "uint256",
          "name": "",
          "type": "uint256"
        },
        {
          "internalType": "uint256",
          "name": "",
          "type": "uint256"
        },
        {
          "internalType": "address",
          "name": "",
          "type": "address"
        },
        {
          "internalType": "uint256",
          "name": "",
          "type": "uint256"
        }
      ],
      "name": "totalNFTPrizeDeposit",
      "outputs": [
        {
          "internalType": "uint256",
          "name": "",
          "type": "uint256"
        }
      ],
      "stateMutability": "view",
      "type": "function"
    },
    {
      "inputs": [
        {
          "internalType": "uint256",
          "name": "",
          "type": "uint256"
        },
        {
          "internalType": "uint256",
          "name": "",
          "type": "uint256"
        },
        {
          "internalType": "address",
          "name": "",
          "type": "address"
        },
        {
          "internalType": "uint256",
          "name": "",
          "type": "uint256"
        }
      ],
      "name": "totalNFTPrizeDistribution",
      "outputs": [
        {
          "internalType": "uint256",
          "name": "",
          "type": "uint256"
        }
      ],
      "stateMutability": "view",
      "type": "function"
    },
    {
      "inputs": [
        {
          "internalType": "uint256",
          "name": "",
          "type": "uint256"
        },
        {
          "internalType": "uint256",
          "name": "",
          "type": "uint256"
        },
        {
          "internalType": "address",
          "name": "",
          "type": "address"
        }
      ],
      "name": "totalPrizeDeposit",
      "outputs": [
        {
          "internalType": "uint256",
          "name": "",
          "type": "uint256"
        }
      ],
      "stateMutability": "view",
      "type": "function"
    },
    {
      "inputs": [
        {
          "internalType": "uint256",
          "name": "",
          "type": "uint256"
        },
        {
          "internalType": "uint256",
          "name": "",
          "type": "uint256"
        },
        {
          "internalType": "address",
          "name": "",
          "type": "address"
        }
      ],
      "name": "totalPrizeDistribution",
      "outputs": [
        {
          "internalType": "uint256",
          "name": "",
          "type": "uint256"
        }
      ],
      "stateMutability": "view",
      "type": "function"
    },
    {
      "inputs": [
        {
          "internalType": "uint256",
          "name": "",
          "type": "uint256"
        },
        {
          "internalType": "uint256",
          "name": "",
          "type": "uint256"
        },
        {
          "internalType": "address",
          "name": "",
          "type": "address"
        }
      ],
      "name": "totalPrizeFee",
      "outputs": [
        {
          "internalType": "uint256",
          "name": "",
          "type": "uint256"
        }
      ],
      "stateMutability": "view",
      "type": "function"
    },
    {
      "inputs": [
        {
          "internalType": "uint256",
          "name": "",
          "type": "uint256"
        },
        {
          "internalType": "uint256",
          "name": "",
          "type": "uint256"
        },
        {
          "internalType": "address",
          "name": "",
          "type": "address"
        }
      ],
      "name": "totalUserDeposit",
      "outputs": [
        {
          "internalType": "uint256",
          "name": "",
          "type": "uint256"
        }
      ],
      "stateMutability": "view",
      "type": "function"
    },
    {
      "inputs": [
        {
          "internalType": "address",
          "name": "",
          "type": "address"
        }
      ],
      "name": "totalWithdrawAmount",
      "outputs": [
        {
          "internalType": "uint256",
          "name": "",
          "type": "uint256"
        }
      ],
      "stateMutability": "view",
      "type": "function"
    },
    {
      "inputs": [
        {
          "internalType": "address",
          "name": "newOwner",
          "type": "address"
        }
      ],
      "name": "transferOwnership",
      "outputs": [],
      "stateMutability": "nonpayable",
      "type": "function"
    },
    {
      "inputs": [],
      "name": "unpause",
      "outputs": [],
      "stateMutability": "nonpayable",
      "type": "function"
    },
    {
      "inputs": [
        {
          "internalType": "address[]",
          "name": "_tokens",
          "type": "address[]"
        },
        {
          "internalType": "uint256[]",
          "name": "_amounts",
          "type": "uint256[]"
        },
        {
          "internalType": "address",
          "name": "_beneficiary",
          "type": "address"
        }
      ],
      "name": "withdraw",
      "outputs": [],
      "stateMutability": "nonpayable",
      "type": "function"
    },
    {
      "inputs": [
        {
          "internalType": "address",
          "name": "_to",
          "type": "address"
        },
        {
          "internalType": "uint256",
          "name": "_gid",
          "type": "uint256"
        },
        {
          "internalType": "uint256",
          "name": "_tid",
          "type": "uint256"
        },
        {
          "internalType": "address",
          "name": "_nftAddress",
          "type": "address"
        },
        {
          "internalType": "uint256",
          "name": "_nftType",
          "type": "uint256"
        },
        {
          "internalType": "uint256[]",
          "name": "_tokenIds",
          "type": "uint256[]"
        },
        {
          "internalType": "uint256[]",
          "name": "_amounts",
          "type": "uint256[]"
        }
      ],
      "name": "withdrawNFTPrize",
      "outputs": [],
      "stateMutability": "nonpayable",
      "type": "function"
    },
    {
      "inputs": [
        {
          "internalType": "address",
          "name": "_to",
          "type": "address"
        },
        {
          "internalType": "uint256",
          "name": "_gid",
          "type": "uint256"
        },
        {
          "internalType": "uint256",
          "name": "_tid",
          "type": "uint256"
        },
        {
          "internalType": "address",
          "name": "_token",
          "type": "address"
        },
        {
          "internalType": "uint256",
          "name": "_amount",
          "type": "uint256"
        }
      ],
      "name": "withdrawPrize",
      "outputs": [],
      "stateMutability": "nonpayable",
      "type": "function"
    },
    {
      "stateMutability": "payable",
      "type": "receive"
    }
  ],
  "transactionHash": "0xcf7ccdab5ea917148164606a635ba2a6d9db737ddc0e0196ca06b63cdaf43808",
  "args": [],
  "numDeployments": 1,
  "solcInputHash": "e003bab9c4affd519a39b559ce469932",
  "bytecode": "0x608060405234801561001057600080fd5b50614c0b806100206000396000f3fe6080604052600436106101b05760003560e01c8063888cecba116100ec578063bc197c811161008a578063e3b2facc11610064578063e3b2facc146105b4578063f23a6e61146105d4578063f2fde38b14610600578063f3ad65f41461062057600080fd5b8063bc197c811461053a578063c4d66de814610566578063c836e8ee1461058657600080fd5b80638dbdbe6d116100c65780638dbdbe6d1461047c57806390ed20241461049c578063b3a833b8146104db578063b6bf94be146104fb57600080fd5b8063888cecba146103eb5780638bd67fe81461042a5780638da5cb5b1461044a57600080fd5b80633f4ba83a11610159578063715018a611610133578063715018a6146103595780637ae38bd21461036e5780638456cb59146103b65780638639c9a7146103cb57600080fd5b80633f4ba83a1461030c5780634ceba21a146103215780635c975abb1461034157600080fd5b806321163be51161018a57806321163be51461025757806326f91506146102a4578063275927be146102c457600080fd5b806301ffc9a7146101bc578063150b7a02146101f15780631de6ba171461023557600080fd5b366101b757005b600080fd5b3480156101c857600080fd5b506101dc6101d7366004614146565b610641565b60405190151581526020015b60405180910390f35b3480156101fd57600080fd5b5061021c61020c36600461423c565b630a85bd0160e11b949350505050565b6040516001600160e01b031990911681526020016101e8565b34801561024157600080fd5b506102556102503660046142a8565b610678565b005b34801561026357600080fd5b506102966102723660046142fa565b61019560209081526000938452604080852082529284528284209052825290205481565b6040519081526020016101e8565b3480156102b057600080fd5b506102556102bf36600461437f565b6109a6565b3480156102d057600080fd5b506102966102df366004614403565b61019460209081526000948552604080862082529385528385208152918452828420909152825290205481565b34801561031857600080fd5b50610255610bd7565b34801561032d57600080fd5b5061025561033c366004614442565b610c3b565b34801561034d57600080fd5b5060975460ff166101dc565b34801561036557600080fd5b50610255611024565b34801561037a57600080fd5b50610296610389366004614403565b61019660209081526000948552604080862082529385528385208152918452828420909152825290205481565b3480156103c257600080fd5b50610255611088565b3480156103d757600080fd5b506102556103e63660046144da565b6110ea565b3480156103f757600080fd5b506102966104063660046142fa565b61019160209081526000938452604080852082529284528284209052825290205481565b34801561043657600080fd5b506102556104453660046142a8565b611ba5565b34801561045657600080fd5b506033546001600160a01b03165b6040516001600160a01b0390911681526020016101e8565b34801561048857600080fd5b506102556104973660046142fa565b611d1e565b3480156104a857600080fd5b506102966104b73660046142fa565b61019260209081526000938452604080852082529284528284209052825290205481565b3480156104e757600080fd5b506102556104f63660046145a8565b611f42565b34801561050757600080fd5b506102966105163660046142fa565b61019360209081526000938452604080852082529284528284209052825290205481565b34801561054657600080fd5b5061021c6105553660046146d1565b63bc197c8160e01b95945050505050565b34801561057257600080fd5b5061025561058136600461477f565b6126b9565b34801561059257600080fd5b506102966105a136600461477f565b6101976020526000908152604090205481565b3480156105c057600080fd5b506102556105cf3660046145a8565b612802565b3480156105e057600080fd5b5061021c6105ef36600461479c565b63f23a6e6160e01b95945050505050565b34801561060c57600080fd5b5061025561061b36600461477f565b612fdd565b34801561062c57600080fd5b5061019854610464906001600160a01b031681565b60006001600160e01b03198216630271189760e51b148061067257506301ffc9a760e01b6001600160e01b03198316145b92915050565b6033546001600160a01b0316331480610719575061019860009054906101000a90046001600160a01b03166001600160a01b031663da0907556040518163ffffffff1660e01b8152600401602060405180830381865afa1580156106e0573d6000803e3d6000fd5b505050506040513d601f19601f820116820180604052508101906107049190614805565b6001600160a01b0316336001600160a01b0316145b61076a5760405162461bcd60e51b815260206004820152601a60248201527f4f6e6c79206f776e6572206f722047616d65526567697374727900000000000060448201526064015b60405180910390fd5b6001600160a01b0382166107c05760405162461bcd60e51b815260206004820152601860248201527f556e657870656374656420746f6b656e206164647265737300000000000000006044820152606401610761565b61019860009054906101000a90046001600160a01b03166001600160a01b031663da0907556040518163ffffffff1660e01b8152600401602060405180830381865afa158015610814573d6000803e3d6000fd5b505050506040513d601f19601f820116820180604052508101906108389190614805565b6040516339ff00bd60e01b8152600481018690526001600160a01b03848116602483015291909116906339ff00bd90604401602060405180830381865afa158015610887573d6000803e3d6000fd5b505050506040513d601f19601f820116820180604052508101906108ab9190614822565b6108f75760405162461bcd60e51b815260206004820152601d60248201527f446973616c6c6f77656420646973747269627574696f6e20746f6b656e0000006044820152606401610761565b61090c6001600160a01b0383168630846130bf565b60008481526101956020908152604080832086845282528083206001600160a01b03861684529091528120805483929061094790849061485a565b9091555050604080513381526001600160a01b03878116602083015291810183905290831690849086907fa555954f2adaf5a353a1db2b9a28e229f872593323659c9f5ab9cc426d0c58a2906060015b60405180910390a45050505050565b6033546001600160a01b03163314610a005760405162461bcd60e51b815260206004820181905260248201527f4f776e61626c653a2063616c6c6572206973206e6f7420746865206f776e65726044820152606401610761565b838214610a4f5760405162461bcd60e51b815260206004820152601a60248201527f4d69736d617463686564207769746864726177616c20646174610000000000006044820152606401610761565b60005b84811015610bcf57838382818110610a6c57610a6c614872565b905060200201356101976000888885818110610a8a57610a8a614872565b9050602002016020810190610a9f919061477f565b6001600160a01b03166001600160a01b031681526020019081526020016000206000828254610ace919061485a565b90915550610b28905082858584818110610aea57610aea614872565b90506020020135888885818110610b0357610b03614872565b9050602002016020810190610b18919061477f565b6001600160a01b03169190613145565b858582818110610b3a57610b3a614872565b9050602002016020810190610b4f919061477f565b6001600160a01b0316826001600160a01b0316336001600160a01b03167fa4195c37c2947bbe89165f03e320b6903116f0b10d8cfdb522330f7ce6f9fa24878786818110610b9f57610b9f614872565b90506020020135604051610bb591815260200190565b60405180910390a480610bc781614888565b915050610a52565b505050505050565b6033546001600160a01b03163314610c315760405162461bcd60e51b815260206004820181905260248201527f4f776e61626c653a2063616c6c6572206973206e6f7420746865206f776e65726044820152606401610761565b610c3961317a565b565b60975460ff1615610c815760405162461bcd60e51b815260206004820152601060248201526f14185d5cd8589b194e881c185d5cd95960821b6044820152606401610761565b61019860009054906101000a90046001600160a01b03166001600160a01b0316639850d32b6040518163ffffffff1660e01b8152600401602060405180830381865afa158015610cd5573d6000803e3d6000fd5b505050506040513d601f19601f82011682018060405250810190610cf99190614805565b6001600160a01b0316336001600160a01b031614610d4b5760405162461bcd60e51b815260206004820152600f60248201526e27b7363c9036b0b4b73a30b4b732b960891b6044820152606401610761565b838114610d9a5760405162461bcd60e51b815260206004820152601e60248201527f4d69736d6174636865642077696e6e65727320616e6420616d6f756e747300006044820152606401610761565b610198546040805163da09075560e01b815290516000926001600160a01b03169163da0907559160048083019260209291908290030181865afa158015610de5573d6000803e3d6000fd5b505050506040513d601f19601f82011682018060405250810190610e099190614805565b6040516339ff00bd60e01b8152600481018a90526001600160a01b038681166024830152919250908216906339ff00bd90604401602060405180830381865afa158015610e5a573d6000803e3d6000fd5b505050506040513d601f19601f82011682018060405250810190610e7e9190614822565b610eca5760405162461bcd60e51b815260206004820152601d60248201527f446973616c6c6f77656420646973747269627574696f6e20746f6b656e0000006044820152606401610761565b610ed988888888888888613216565b6000888152610191602090815260408083208a845282528083206001600160a01b038816808552908352818420548c855261019584528285208c86528452828520918552925290912054610f2d919061485a565b6000898152610193602090815260408083208b845282528083206001600160a01b038916808552908352818420548d855261019284528285208d86528452828520918552925290912054610f81919061485a565b1115610fcf5760405162461bcd60e51b815260206004820152601560248201527f5072697a6520616d6f756e7420657863656564656400000000000000000000006044820152606401610761565b836001600160a01b031687897f6b4488e823ebb77fdc3a58bb5cbc1af38a0b2e39ff4dc84c080c08540dcd1ebc338a8a898960405161101295949392919061493b565b60405180910390a45050505050505050565b6033546001600160a01b0316331461107e5760405162461bcd60e51b815260206004820181905260248201527f4f776e61626c653a2063616c6c6572206973206e6f7420746865206f776e65726044820152606401610761565b610c396000613863565b6033546001600160a01b031633146110e25760405162461bcd60e51b815260206004820181905260248201527f4f776e61626c653a2063616c6c6572206973206e6f7420746865206f776e65726044820152606401610761565b610c396138c2565b60975460ff16156111305760405162461bcd60e51b815260206004820152601060248201526f14185d5cd8589b194e881c185d5cd95960821b6044820152606401610761565b600260655414156111835760405162461bcd60e51b815260206004820152601f60248201527f5265656e7472616e637947756172643a207265656e7472616e742063616c6c006044820152606401610761565b60026065556101985460408051639850d32b60e01b815290516001600160a01b0390921691639850d32b916004808201926020929091908290030181865afa1580156111d3573d6000803e3d6000fd5b505050506040513d601f19601f820116820180604052508101906111f79190614805565b6001600160a01b0316336001600160a01b0316146112495760405162461bcd60e51b815260206004820152600f60248201526e27b7363c9036b0b4b73a30b4b732b960891b6044820152606401610761565b61019860009054906101000a90046001600160a01b03166001600160a01b031663da0907556040518163ffffffff1660e01b8152600401602060405180830381865afa15801561129d573d6000803e3d6000fd5b505050506040513d601f19601f820116820180604052508101906112c19190614805565b6040516339ff00bd60e01b8152600481018c90526001600160a01b03888116602483015291909116906339ff00bd90604401602060405180830381865afa158015611310573d6000803e3d6000fd5b505050506040513d601f19601f820116820180604052508101906113349190614822565b6113805760405162461bcd60e51b815260206004820152601d60248201527f446973616c6c6f77656420646973747269627574696f6e20746f6b656e0000006044820152606401610761565b846102d11480611391575084610483145b6113d35760405162461bcd60e51b8152602060048201526013602482015272556e6578706563746564204e4654207479706560681b6044820152606401610761565b86831480156113e157508281145b61142d5760405162461bcd60e51b815260206004820181905260248201527f4d69736d617463686564204e465420646973747269627574696f6e20646174616044820152606401610761565b6000856102d114156117a1576040516301ffc9a760e01b81526380ac58cd60e01b60048201526001600160a01b038816906301ffc9a790602401602060405180830381865afa158015611484573d6000803e3d6000fd5b505050506040513d601f19601f820116820180604052508101906114a89190614822565b6114ed5760405162461bcd60e51b8152602060048201526016602482015275556e6578706563746564204e4654206164647265737360501b6044820152606401610761565b60005b888110156117555760008c8152610194602090815260408083208e845282528083206001600160a01b038c16845290915281209087878481811061153657611536614872565b602090810292909201358352508181019290925260409081016000908120548f825261019684528282208f835284528282206001600160a01b038d1683529093529081209088888581811061158d5761158d614872565b905060200201358152602001908152602001600020546115ad919061497d565b60011461160b5760405162461bcd60e51b815260206004820152602660248201527f4e4654207072697a6520646973747269627574696f6e20616d6f756e7420657860448201526518d95959195960d21b6064820152608401610761565b60008c8152610194602090815260408083208e845282528083206001600160a01b038c168452909152812060019188888581811061164b5761164b614872565b9050602002013581526020019081526020016000208190555083838281811061167657611676614872565b9050602002013582611688919061485a565b9150876001600160a01b03166342842e0e308c8c858181106116ac576116ac614872565b90506020020160208101906116c1919061477f565b8989868181106116d3576116d3614872565b6040516001600160e01b031960e088901b1681526001600160a01b03958616600482015294909316602485015250602090910201356044820152606401600060405180830381600087803b15801561172a57600080fd5b505af115801561173e573d6000803e3d6000fd5b50505050808061174d90614888565b9150506114f0565b5080881461179c5760405162461bcd60e51b8152602060048201526014602482015273496e76616c696420616d6f756e742076616c756560601b6044820152606401610761565b611b42565b6040516301ffc9a760e01b8152636cdb3d1360e11b60048201526001600160a01b038816906301ffc9a790602401602060405180830381865afa1580156117ec573d6000803e3d6000fd5b505050506040513d601f19601f820116820180604052508101906118109190614822565b6118555760405162461bcd60e51b8152602060048201526016602482015275556e6578706563746564204e4654206164647265737360501b6044820152606401610761565b60005b88811015611b405783838281811061187257611872614872565b9050602002013561019460008e815260200190815260200160002060008d815260200190815260200160002060008a6001600160a01b03166001600160a01b0316815260200190815260200160002060008888858181106118d5576118d5614872565b9050602002013581526020019081526020016000205461019660008f815260200190815260200160002060008e815260200190815260200160002060008b6001600160a01b03166001600160a01b03168152602001908152602001600020600089898681811061194757611947614872565b90506020020135815260200190815260200160002054611967919061497d565b10156119c45760405162461bcd60e51b815260206004820152602660248201527f4e4654207072697a6520646973747269627574696f6e20616d6f756e7420657860448201526518d95959195960d21b6064820152608401610761565b8383828181106119d6576119d6614872565b9050602002013561019460008e815260200190815260200160002060008d815260200190815260200160002060008a6001600160a01b03166001600160a01b031681526020019081526020016000206000888885818110611a3957611a39614872565b9050602002013581526020019081526020016000206000828254611a5d919061485a565b90915550506001600160a01b03881663f242432a308c8c85818110611a8457611a84614872565b9050602002016020810190611a99919061477f565b898986818110611aab57611aab614872565b90506020020135888887818110611ac457611ac4614872565b90506020020135604051806020016040528060008152506040518663ffffffff1660e01b8152600401611afb9594939291906149ec565b600060405180830381600087803b158015611b1557600080fd5b505af1158015611b29573d6000803e3d6000fd5b505050508080611b3890614888565b915050611858565b505b866001600160a01b03168a8c7fa825c8731f1dfe5c99472b7e94c839c9e6489ed55d0277366e867d8d88a306cf338d8d8c8c8c8c8c604051611b8b989796959493929190614a24565b60405180910390a450506001606555505050505050505050565b6033546001600160a01b03163314611bff5760405162461bcd60e51b815260206004820181905260248201527f4f776e61626c653a2063616c6c6572206973206e6f7420746865206f776e65726044820152606401610761565b60008481526101956020908152604080832086845282528083206001600160a01b0386168452909152902054811115611c7a5760405162461bcd60e51b815260206004820152601260248201527f496e73756666696369656e74207072697a6500000000000000000000000000006044820152606401610761565b60008481526101956020908152604080832086845282528083206001600160a01b038616845290915281208054839290611cb590849061497d565b90915550611ccf90506001600160a01b0383168683613145565b604080513381526001600160a01b03878116602083015291810183905290831690849086907fe64a3a357c20289b8fff53d7fabedc1fec8b86c76f070a66dd167c055e43e38d90606001610997565b60975460ff1615611d645760405162461bcd60e51b815260206004820152601060248201526f14185d5cd8589b194e881c185d5cd95960821b6044820152606401610761565b610198546040805163da09075560e01b815290516000926001600160a01b03169163da0907559160048083019260209291908290030181865afa158015611daf573d6000803e3d6000fd5b505050506040513d601f19601f82011682018060405250810190611dd39190614805565b6040516322b4b91b60e11b815260048101869052602481018590526001600160a01b0384811660448301529190911690634569723690606401602060405180830381865afa158015611e29573d6000803e3d6000fd5b505050506040513d601f19601f82011682018060405250810190611e4d9190614a84565b905060008111611e9f5760405162461bcd60e51b815260206004820152601560248201527f496e76616c6964206465706f73697420746f6b656e00000000000000000000006044820152606401610761565b611eb46001600160a01b0383163330846130bf565b60008481526101916020908152604080832086845282528083206001600160a01b038616845290915281208054839290611eef90849061485a565b909155505060408051338152602081018390526001600160a01b03841691859187917f3360a6f28beae2ecd8c3c807e274aaae13fd8264155337e6d0535a44468f0942910160405180910390a450505050565b6033546001600160a01b0316331480611fe3575061019860009054906101000a90046001600160a01b03166001600160a01b031663da0907556040518163ffffffff1660e01b8152600401602060405180830381865afa158015611faa573d6000803e3d6000fd5b505050506040513d601f19601f82011682018060405250810190611fce9190614805565b6001600160a01b0316336001600160a01b0316145b61202f5760405162461bcd60e51b815260206004820152601a60248201527f4f6e6c79206f776e6572206f722047616d6552656769737472790000000000006044820152606401610761565b61019860009054906101000a90046001600160a01b03166001600160a01b031663da0907556040518163ffffffff1660e01b8152600401602060405180830381865afa158015612083573d6000803e3d6000fd5b505050506040513d601f19601f820116820180604052508101906120a79190614805565b6040516339ff00bd60e01b8152600481018a90526001600160a01b03888116602483015291909116906339ff00bd90604401602060405180830381865afa1580156120f6573d6000803e3d6000fd5b505050506040513d601f19601f8201168201806040525081019061211a9190614822565b6121665760405162461bcd60e51b815260206004820152601d60248201527f446973616c6c6f77656420646973747269627574696f6e20746f6b656e0000006044820152606401610761565b6001600160a01b0386166121b55760405162461bcd60e51b8152602060048201526016602482015275556e6578706563746564204e4654206164647265737360501b6044820152606401610761565b846102d114806121c6575084610483145b6122085760405162461bcd60e51b8152602060048201526013602482015272556e6578706563746564204e4654207479706560681b6044820152606401610761565b8281146122575760405162461bcd60e51b815260206004820152601760248201527f4d69736d617463686564206465706f73697420646174610000000000000000006044820152606401610761565b6000856102d11415612492576040516301ffc9a760e01b81526380ac58cd60e01b60048201526001600160a01b038816906301ffc9a790602401602060405180830381865afa1580156122ae573d6000803e3d6000fd5b505050506040513d601f19601f820116820180604052508101906122d29190614822565b6123175760405162461bcd60e51b8152602060048201526016602482015275556e6578706563746564204e4654206164647265737360501b6044820152606401610761565b60005b8481101561244657876001600160a01b03166342842e0e8c3089898681811061234557612345614872565b6040516001600160e01b031960e088901b1681526001600160a01b03958616600482015294909316602485015250602090910201356044820152606401600060405180830381600087803b15801561239c57600080fd5b505af11580156123b0573d6000803e3d6000fd5b50505060008b8152610196602090815260408083208d845282528083206001600160a01b038d168452909152812060019250908888858181106123f5576123f5614872565b9050602002013581526020019081526020016000208190555083838281811061242057612420614872565b9050602002013582612432919061485a565b91508061243e81614888565b91505061231a565b5080841461248d5760405162461bcd60e51b8152602060048201526014602482015273496e76616c696420616d6f756e742076616c756560601b6044820152606401610761565b61265e565b6040516301ffc9a760e01b8152636cdb3d1360e11b60048201526001600160a01b038816906301ffc9a790602401602060405180830381865afa1580156124dd573d6000803e3d6000fd5b505050506040513d601f19601f820116820180604052508101906125019190614822565b6125465760405162461bcd60e51b8152602060048201526016602482015275556e6578706563746564204e4654206164647265737360501b6044820152606401610761565b60408051602081018252600081529051631759616b60e11b81526001600160a01b03891691632eb2c2d69161258a918e9130918b918b918b918b9190600401614a9d565b600060405180830381600087803b1580156125a457600080fd5b505af11580156125b8573d6000803e3d6000fd5b5050505060005b8481101561265c578383828181106125d9576125d9614872565b60008d8152610196602090815260408083208f845282528083206001600160a01b038f16845282528220920293909301359290915088888581811061262057612620614872565b9050602002013581526020019081526020016000206000828254612644919061485a565b9091555081905061265481614888565b9150506125bf565b505b866001600160a01b0316888a7f8aa5f867116bd0007022fe5e2205d78c5a5922c47331762e9e69ce2c9a8f6a95338e8b8b8b8b8b6040516126a59796959493929190614aff565b60405180910390a450505050505050505050565b600054610100900460ff16806126d2575060005460ff16155b6127235760405162461bcd60e51b815260206004820152602e6024820152600080516020614bb683398151915260448201526d191e481a5b9a5d1a585b1a5e995960921b6064820152608401610761565b600054610100900460ff16158015612745576000805461ffff19166101011790555b61274d61393d565b6127556139ed565b61275d613a81565b612765613b1d565b61276d613bb1565b6001600160a01b0382166127c35760405162461bcd60e51b815260206004820152601760248201527f496e76616c6964204164647265737352656769737472790000000000000000006044820152606401610761565b610198805473ffffffffffffffffffffffffffffffffffffffff19166001600160a01b03841617905580156127fe576000805461ff00191690555b5050565b600260655414156128555760405162461bcd60e51b815260206004820152601f60248201527f5265656e7472616e637947756172643a207265656e7472616e742063616c6c006044820152606401610761565b60026065556033546001600160a01b031633146128b45760405162461bcd60e51b815260206004820181905260248201527f4f776e61626c653a2063616c6c6572206973206e6f7420746865206f776e65726044820152606401610761565b846102d114806128c5575084610483145b6129075760405162461bcd60e51b8152602060048201526013602482015272556e6578706563746564204e4654207479706560681b6044820152606401610761565b8281146129565760405162461bcd60e51b815260206004820152601760248201527f4d69736d617463686564206465706f73697420646174610000000000000000006044820152606401610761565b6000856102d11415612c93576040516301ffc9a760e01b81526380ac58cd60e01b60048201526001600160a01b038816906301ffc9a790602401602060405180830381865afa1580156129ad573d6000803e3d6000fd5b505050506040513d601f19601f820116820180604052508101906129d19190614822565b612a165760405162461bcd60e51b8152602060048201526016602482015275556e6578706563746564204e4654206164647265737360501b6044820152606401610761565b60005b84811015612c475760008a8152610194602090815260408083208c845282528083206001600160a01b038c168452909152812090878784818110612a5f57612a5f614872565b602090810292909201358352508181019290925260409081016000908120548d825261019684528282208d835284528282206001600160a01b038d16835290935290812090888885818110612ab657612ab6614872565b90506020020135815260200190815260200160002054612ad6919061497d565b600114612b255760405162461bcd60e51b815260206004820152601660248201527f496e73756666696369656e74204e4654207072697a65000000000000000000006044820152606401610761565b60008a8152610196602090815260408083208c845282528083206001600160a01b038c168452909152812081888885818110612b6357612b63614872565b90506020020135815260200190815260200160002081905550838382818110612b8e57612b8e614872565b9050602002013582612ba0919061485a565b9150876001600160a01b03166342842e0e308d898986818110612bc557612bc5614872565b6040516001600160e01b031960e088901b1681526001600160a01b03958616600482015294909316602485015250602090910201356044820152606401600060405180830381600087803b158015612c1c57600080fd5b505af1158015612c30573d6000803e3d6000fd5b505050508080612c3f90614888565b915050612a19565b50808414612c8e5760405162461bcd60e51b8152602060048201526014602482015273496e76616c696420616d6f756e742076616c756560601b6044820152606401610761565b612f7d565b6040516301ffc9a760e01b8152636cdb3d1360e11b60048201526001600160a01b038816906301ffc9a790602401602060405180830381865afa158015612cde573d6000803e3d6000fd5b505050506040513d601f19601f82011682018060405250810190612d029190614822565b612d475760405162461bcd60e51b8152602060048201526016602482015275556e6578706563746564204e4654206164647265737360501b6044820152606401610761565b60005b84811015612f0557838382818110612d6457612d64614872565b60008d8152610194602090815260408083208f845282528083206001600160a01b038f168452825282209202939093013592909150888885818110612dab57612dab614872565b602090810292909201358352508181019290925260409081016000908120548e825261019684528282208e835284528282206001600160a01b038e16835290935290812090898986818110612e0257612e02614872565b90506020020135815260200190815260200160002054612e22919061497d565b1015612e705760405162461bcd60e51b815260206004820152601660248201527f496e73756666696369656e74204e4654207072697a65000000000000000000006044820152606401610761565b838382818110612e8257612e82614872565b60008d8152610196602090815260408083208f845282528083206001600160a01b038f168452825282209202939093013592909150888885818110612ec957612ec9614872565b9050602002013581526020019081526020016000206000828254612eed919061497d565b90915550819050612efd81614888565b915050612d4a565b5060408051602081018252600081529051631759616b60e11b81526001600160a01b03891691632eb2c2d691612f4a9130918f918b918b918b918b9190600401614a9d565b600060405180830381600087803b158015612f6457600080fd5b505af1158015612f78573d6000803e3d6000fd5b505050505b866001600160a01b0316888a7f5a8dca5c67110aaf25dc3f613084907009569128e7e31216a0802dce0db9c784338e8b8b8b8b8b604051612fc49796959493929190614aff565b60405180910390a4505060016065555050505050505050565b6033546001600160a01b031633146130375760405162461bcd60e51b815260206004820181905260248201527f4f776e61626c653a2063616c6c6572206973206e6f7420746865206f776e65726044820152606401610761565b6001600160a01b0381166130b35760405162461bcd60e51b815260206004820152602660248201527f4f776e61626c653a206e6577206f776e657220697320746865207a65726f206160448201527f64647265737300000000000000000000000000000000000000000000000000006064820152608401610761565b6130bc81613863565b50565b6040516001600160a01b038085166024830152831660448201526064810182905261313f9085906323b872dd60e01b906084015b60408051601f198184030181529190526020810180517bffffffffffffffffffffffffffffffffffffffffffffffffffffffff166001600160e01b031990931692909217909152613c4d565b50505050565b6040516001600160a01b03831660248201526044810182905261317590849063a9059cbb60e01b906064016130f3565b505050565b60975460ff166131cc5760405162461bcd60e51b815260206004820152601460248201527f5061757361626c653a206e6f74207061757365640000000000000000000000006044820152606401610761565b6097805460ff191690557f5db9ee0a495bf2e6ff9c91a7834c1ba4fdd244a5e8aa4e537bd38aeae4b073aa335b6040516001600160a01b03909116815260200160405180910390a1565b610198546040805163da09075560e01b815290516000926001600160a01b03169163da0907559160048083019260209291908290030181865afa158015613261573d6000803e3d6000fd5b505050506040513d601f19601f820116820180604052508101906132859190614805565b90506000806000805b8881101561361b5760008787838181106132aa576132aa614872565b90506020020135905060006103e861019860009054906101000a90046001600160a01b03166001600160a01b031663da0907556040518163ffffffff1660e01b8152600401602060405180830381865afa15801561330c573d6000803e3d6000fd5b505050506040513d601f19601f820116820180604052508101906133309190614805565b6001600160a01b03166326232a2e6040518163ffffffff1660e01b8152600401602060405180830381865afa15801561336d573d6000803e3d6000fd5b505050506040513d601f19601f820116820180604052508101906133919190614a84565b8a8a868181106133a3576133a3614872565b905060200201356133b49190614b45565b6133be9190614b64565b90506133ca818761485a565b95506133d6818361497d565b9150506000866001600160a01b031663d0dd986d8f8f6040518363ffffffff1660e01b8152600401613412929190918252602082015260400190565b602060405180830381865afa15801561342f573d6000803e3d6000fd5b505050506040513d601f19601f820116820180604052508101906134539190614a84565b905060006103e8828b8b8781811061346d5761346d614872565b9050602002013561347e9190614b45565b6134889190614b64565b9050613494818761485a565b95506134a0818461497d565b925050506000866001600160a01b03166370ca09e68f8f6040518363ffffffff1660e01b81526004016134dd929190918252602082015260400190565b602060405180830381865afa1580156134fa573d6000803e3d6000fd5b505050506040513d601f19601f8201168201806040525081019061351e9190614a84565b905060006103e8828b8b8781811061353857613538614872565b905060200201356135499190614b45565b6135539190614b64565b905061355f818661485a565b945061356b818461497d565b925050508061019260008f815260200190815260200160002060008e815260200190815260200160002060008b6001600160a01b03166001600160a01b0316815260200190815260200160002060008282546135c7919061485a565b9091555061360890508b8b848181106135e2576135e2614872565b90506020020160208101906135f7919061477f565b6001600160a01b038b169083613145565b508061361381614888565b91505061328e565b5080613627838561485a565b613631919061485a565b60008c8152610193602090815260408083208e845282528083206001600160a01b038c1684529091528120805490919061366c90849061485a565b9091555050610198546040805163da09075560e01b81529051613753926001600160a01b03169163da0907559160048083019260209291908290030181865afa1580156136bd573d6000803e3d6000fd5b505050506040513d601f19601f820116820180604052508101906136e19190614805565b6001600160a01b031663469048406040518163ffffffff1660e01b8152600401602060405180830381865afa15801561371e573d6000803e3d6000fd5b505050506040513d601f19601f820116820180604052508101906137429190614805565b6001600160a01b0389169085613145565b60405163411e407f60e11b8152600481018c90526137d1906001600160a01b0386169063823c80fe90602401602060405180830381865afa15801561379c573d6000803e3d6000fd5b505050506040513d601f19601f820116820180604052508101906137c09190614805565b6001600160a01b0389169084613145565b60405163f406c2d160e01b8152600481018c9052602481018b9052613856906001600160a01b0386169063f406c2d190604401602060405180830381865afa158015613821573d6000803e3d6000fd5b505050506040513d601f19601f820116820180604052508101906138459190614805565b6001600160a01b0389169083613145565b5050505050505050505050565b603380546001600160a01b0383811673ffffffffffffffffffffffffffffffffffffffff19831681179093556040519116919082907f8be0079c531659141344cd1fd0a4f28419497f9722a3daafe3b4186f6b6457e090600090a35050565b60975460ff16156139085760405162461bcd60e51b815260206004820152601060248201526f14185d5cd8589b194e881c185d5cd95960821b6044820152606401610761565b6097805460ff191660011790557f62e78cea01bee320cd4e420270b5ea74000d11b0c9f74754ebdbfc544b05a2586131f93390565b600054610100900460ff1680613956575060005460ff16155b6139a75760405162461bcd60e51b815260206004820152602e6024820152600080516020614bb683398151915260448201526d191e481a5b9a5d1a585b1a5e995960921b6064820152608401610761565b600054610100900460ff161580156139c9576000805461ffff19166101011790555b6139d1613d32565b6139d9613dd1565b80156130bc576000805461ff001916905550565b600054610100900460ff1680613a06575060005460ff16155b613a575760405162461bcd60e51b815260206004820152602e6024820152600080516020614bb683398151915260448201526d191e481a5b9a5d1a585b1a5e995960921b6064820152608401610761565b600054610100900460ff16158015613a79576000805461ffff19166101011790555b6139d9613e66565b600054610100900460ff1680613a9a575060005460ff16155b613aeb5760405162461bcd60e51b815260206004820152602e6024820152600080516020614bb683398151915260448201526d191e481a5b9a5d1a585b1a5e995960921b6064820152608401610761565b600054610100900460ff16158015613b0d576000805461ffff19166101011790555b613b15613d32565b6139d9613f0b565b600054610100900460ff1680613b36575060005460ff16155b613b875760405162461bcd60e51b815260206004820152602e6024820152600080516020614bb683398151915260448201526d191e481a5b9a5d1a585b1a5e995960921b6064820152608401610761565b600054610100900460ff16158015613ba9576000805461ffff19166101011790555b6139d9613d32565b600054610100900460ff1680613bca575060005460ff16155b613c1b5760405162461bcd60e51b815260206004820152602e6024820152600080516020614bb683398151915260448201526d191e481a5b9a5d1a585b1a5e995960921b6064820152608401610761565b600054610100900460ff16158015613c3d576000805461ffff19166101011790555b613c45613d32565b613ba9613d32565b6000613ca2826040518060400160405280602081526020017f5361666545524332303a206c6f772d6c6576656c2063616c6c206661696c6564815250856001600160a01b0316613fb59092919063ffffffff16565b8051909150156131755780806020019051810190613cc09190614822565b6131755760405162461bcd60e51b815260206004820152602a60248201527f5361666545524332303a204552433230206f7065726174696f6e20646964206e60448201527f6f742073756363656564000000000000000000000000000000000000000000006064820152608401610761565b600054610100900460ff1680613d4b575060005460ff16155b613d9c5760405162461bcd60e51b815260206004820152602e6024820152600080516020614bb683398151915260448201526d191e481a5b9a5d1a585b1a5e995960921b6064820152608401610761565b600054610100900460ff161580156139d9576000805461ffff191661010117905580156130bc576000805461ff001916905550565b600054610100900460ff1680613dea575060005460ff16155b613e3b5760405162461bcd60e51b815260206004820152602e6024820152600080516020614bb683398151915260448201526d191e481a5b9a5d1a585b1a5e995960921b6064820152608401610761565b600054610100900460ff16158015613e5d576000805461ffff19166101011790555b6139d933613863565b600054610100900460ff1680613e7f575060005460ff16155b613ed05760405162461bcd60e51b815260206004820152602e6024820152600080516020614bb683398151915260448201526d191e481a5b9a5d1a585b1a5e995960921b6064820152608401610761565b600054610100900460ff16158015613ef2576000805461ffff19166101011790555b600160655580156130bc576000805461ff001916905550565b600054610100900460ff1680613f24575060005460ff16155b613f755760405162461bcd60e51b815260206004820152602e6024820152600080516020614bb683398151915260448201526d191e481a5b9a5d1a585b1a5e995960921b6064820152608401610761565b600054610100900460ff16158015613f97576000805461ffff19166101011790555b6097805460ff1916905580156130bc576000805461ff001916905550565b6060613fc48484600085613fce565b90505b9392505050565b6060824710156140465760405162461bcd60e51b815260206004820152602660248201527f416464726573733a20696e73756666696369656e742062616c616e636520666f60448201527f722063616c6c00000000000000000000000000000000000000000000000000006064820152608401610761565b843b6140945760405162461bcd60e51b815260206004820152601d60248201527f416464726573733a2063616c6c20746f206e6f6e2d636f6e74726163740000006044820152606401610761565b600080866001600160a01b031685876040516140b09190614b86565b60006040518083038185875af1925050503d80600081146140ed576040519150601f19603f3d011682016040523d82523d6000602084013e6140f2565b606091505b509150915061410282828661410d565b979650505050505050565b6060831561411c575081613fc7565b82511561412c5782518084602001fd5b8160405162461bcd60e51b81526004016107619190614ba2565b60006020828403121561415857600080fd5b81356001600160e01b031981168114613fc757600080fd5b6001600160a01b03811681146130bc57600080fd5b634e487b7160e01b600052604160045260246000fd5b604051601f8201601f1916810167ffffffffffffffff811182821017156141c4576141c4614185565b604052919050565b600082601f8301126141dd57600080fd5b813567ffffffffffffffff8111156141f7576141f7614185565b61420a601f8201601f191660200161419b565b81815284602083860101111561421f57600080fd5b816020850160208301376000918101602001919091529392505050565b6000806000806080858703121561425257600080fd5b843561425d81614170565b9350602085013561426d81614170565b925060408501359150606085013567ffffffffffffffff81111561429057600080fd5b61429c878288016141cc565b91505092959194509250565b600080600080600060a086880312156142c057600080fd5b85356142cb81614170565b9450602086013593506040860135925060608601356142e981614170565b949793965091946080013592915050565b60008060006060848603121561430f57600080fd5b8335925060208401359150604084013561432881614170565b809150509250925092565b60008083601f84011261434557600080fd5b50813567ffffffffffffffff81111561435d57600080fd5b6020830191508360208260051b850101111561437857600080fd5b9250929050565b60008060008060006060868803121561439757600080fd5b853567ffffffffffffffff808211156143af57600080fd5b6143bb89838a01614333565b909750955060208801359150808211156143d457600080fd5b506143e188828901614333565b90945092505060408601356143f581614170565b809150509295509295909350565b6000806000806080858703121561441957600080fd5b8435935060208501359250604085013561443281614170565b9396929550929360600135925050565b600080600080600080600060a0888a03121561445d57600080fd5b8735965060208801359550604088013567ffffffffffffffff8082111561448357600080fd5b61448f8b838c01614333565b909750955060608a013591506144a482614170565b909350608089013590808211156144ba57600080fd5b506144c78a828b01614333565b989b979a50959850939692959293505050565b60008060008060008060008060008060e08b8d0312156144f957600080fd5b8a35995060208b0135985060408b013567ffffffffffffffff8082111561451f57600080fd5b61452b8e838f01614333565b909a50985060608d0135915061454082614170565b90965060808c0135955060a08c0135908082111561455d57600080fd5b6145698e838f01614333565b909650945060c08d013591508082111561458257600080fd5b5061458f8d828e01614333565b915080935050809150509295989b9194979a5092959850565b600080600080600080600080600060e08a8c0312156145c657600080fd5b89356145d181614170565b985060208a0135975060408a0135965060608a01356145ef81614170565b955060808a0135945060a08a013567ffffffffffffffff8082111561461357600080fd5b61461f8d838e01614333565b909650945060c08c013591508082111561463857600080fd5b506146458c828d01614333565b915080935050809150509295985092959850929598565b600082601f83011261466d57600080fd5b8135602067ffffffffffffffff82111561468957614689614185565b8160051b61469882820161419b565b92835284810182019282810190878511156146b257600080fd5b83870192505b84831015614102578235825291830191908301906146b8565b600080600080600060a086880312156146e957600080fd5b85356146f481614170565b9450602086013561470481614170565b9350604086013567ffffffffffffffff8082111561472157600080fd5b61472d89838a0161465c565b9450606088013591508082111561474357600080fd5b61474f89838a0161465c565b9350608088013591508082111561476557600080fd5b50614772888289016141cc565b9150509295509295909350565b60006020828403121561479157600080fd5b8135613fc781614170565b600080600080600060a086880312156147b457600080fd5b85356147bf81614170565b945060208601356147cf81614170565b93506040860135925060608601359150608086013567ffffffffffffffff8111156147f957600080fd5b614772888289016141cc565b60006020828403121561481757600080fd5b8151613fc781614170565b60006020828403121561483457600080fd5b81518015158114613fc757600080fd5b634e487b7160e01b600052601160045260246000fd5b6000821982111561486d5761486d614844565b500190565b634e487b7160e01b600052603260045260246000fd5b600060001982141561489c5761489c614844565b5060010190565b8183526000602080850194508260005b858110156148e15781356148c681614170565b6001600160a01b0316875295820195908201906001016148b3565b509495945050505050565b81835260007f07ffffffffffffffffffffffffffffffffffffffffffffffffffffffffffffff83111561491e57600080fd5b8260051b8083602087013760009401602001938452509192915050565b6001600160a01b038616815260606020820152600061495e6060830186886148a3565b82810360408401526149718185876148ec565b98975050505050505050565b60008282101561498f5761498f614844565b500390565b60005b838110156149af578181015183820152602001614997565b8381111561313f5750506000910152565b600081518084526149d8816020860160208601614994565b601f01601f19169290920160200192915050565b60006001600160a01b03808816835280871660208401525084604083015283606083015260a0608083015261410260a08301846149c0565b6001600160a01b038916815260a060208201526000614a4760a08301898b6148a3565b8760408401528281036060840152614a608187896148ec565b90508281036080840152614a758185876148ec565b9b9a5050505050505050505050565b600060208284031215614a9657600080fd5b5051919050565b60006001600160a01b03808a16835280891660208401525060a06040830152614aca60a0830187896148ec565b8281036060840152614add8186886148ec565b90508281036080840152614af181856149c0565b9a9950505050505050505050565b60006001600160a01b03808a16835280891660208401525086604083015260a06060830152614b3260a0830186886148ec565b8281036080840152614af18185876148ec565b6000816000190483118215151615614b5f57614b5f614844565b500290565b600082614b8157634e487b7160e01b600052601260045260246000fd5b500490565b60008251614b98818460208701614994565b9190910192915050565b602081526000613fc760208301846149c056fe496e697469616c697a61626c653a20636f6e747261637420697320616c726561a2646970667358221220ee04fbd264e089d1dd85e406cf604db8930056bfdc44f9e48fd0799b111aefd764736f6c634300080b0033",
  "devdoc": {
    "author": "David Lee",
    "kind": "dev",
    "methods": {
      "deposit(uint256,uint256,address)": {
        "details": "Only tokens registered in GameRegistry with an amount greater than zero is valid for the deposit",
        "params": {
          "_gid": "Game ID",
          "_tid": "Tournament ID",
          "_token": "Token address to deposit"
        }
      },
      "depositNFTPrize(address,uint256,uint256,address,uint256,uint256[],uint256[])": {
        "details": "NFT type should be either 721 or 1155",
        "params": {
          "_amounts": "Token amount list",
          "_from": "NFT owner address",
          "_gid": "Game ID",
          "_nftAddress": "NFT address",
          "_nftType": "NFT type (721/1155)",
          "_tid": "Tournament ID",
          "_tokenIds": "Token Id list"
        }
      },
      "depositPrize(address,uint256,uint256,address,uint256)": {
        "details": "Only tokens which are allowed as a distributable token can be depositedPrize is transferred from _depositor address to this contract",
        "params": {
          "_amount": "Prize amount to deposit",
          "_depositor": "Depositor address",
          "_gid": "Game ID",
          "_tid": "Tournament ID",
          "_token": "Prize token address"
        }
      },
      "distributeNFTPrize(uint256,uint256,address[],address,uint256,uint256[],uint256[])": {
        "details": "Only maintainerNFT type should be either 721 or 1155",
        "params": {
          "_amounts": "Token amount list",
          "_gid": "Game ID",
          "_nftAddress": "NFT address",
          "_nftType": "NFT type (721/1155)",
          "_tid": "Tournament ID",
          "_tokenIds": "Token Id list",
          "_winners": "Winners list"
        }
      },
      "distributePrize(uint256,uint256,address[],address,uint256[])": {
        "details": "Only maintainerThe maximum distributable prize amount is the sum of the users' deposit and the prize that the owner deposited",
        "params": {
          "_amounts": "Prize list",
          "_gid": "Game ID",
          "_tid": "Tournament ID",
          "_token": "Prize token address",
          "_winners": "Winners list"
        }
      },
      "onERC721Received(address,address,uint256,bytes)": {
        "details": "See {IERC721Receiver-onERC721Received}. Always returns `IERC721Receiver.onERC721Received.selector`."
      },
      "owner()": {
        "details": "Returns the address of the current owner."
      },
      "pause()": {
        "details": "Only owner"
      },
      "paused()": {
        "details": "Returns true if the contract is paused, and false otherwise."
      },
      "renounceOwnership()": {
        "details": "Leaves the contract without owner. It will not be possible to call `onlyOwner` functions anymore. Can only be called by the current owner. NOTE: Renouncing ownership will leave the contract without an owner, thereby removing any functionality that is only available to the owner."
      },
      "supportsInterface(bytes4)": {
        "details": "See {IERC165-supportsInterface}."
      },
      "transferOwnership(address)": {
        "details": "Transfers ownership of the contract to a new account (`newOwner`). Can only be called by the current owner."
      },
      "unpause()": {
        "details": "Only owner"
      },
      "withdraw(address[],uint256[],address)": {
        "details": "Only owner",
        "params": {
          "_amounts": "Token amounts",
          "_beneficiary": "Beneficiary address",
          "_tokens": "Token addresses"
        }
      },
      "withdrawNFTPrize(address,uint256,uint256,address,uint256,uint256[],uint256[])": {
        "details": "Only ownerNFT type should be either 721 or 1155",
        "params": {
          "_amounts": "Token amount list",
          "_gid": "Game ID",
          "_nftAddress": "NFT address",
          "_nftType": "NFT type (721/1155)",
          "_tid": "Tournament ID",
          "_to": "NFT receiver address",
          "_tokenIds": "Token Id list"
        }
      },
      "withdrawPrize(address,uint256,uint256,address,uint256)": {
        "details": "Only owner",
        "params": {
          "_amount": "Prize amount to withdraw",
          "_gid": "Game ID",
          "_tid": "Tournament ID",
          "_to": "Beneficiary address",
          "_token": "Prize token address"
        }
      }
    },
    "stateVariables": {
      "addressRegistry": {
        "details": "AddressRegistry"
      },
      "totalNFTPrizeDeposit": {
        "details": "Game ID -> Tournament ID -> NFT Address -> Token ID -> Deposit Amount"
      },
      "totalNFTPrizeDistribution": {
        "details": "Game ID -> Tournament ID -> NFT Address -> Token ID -> Distribution Amount"
      },
      "totalPrizeDeposit": {
        "details": "Game ID -> Tournament ID -> Token Address -> Total Prize Deposit Amount"
      },
      "totalPrizeDistribution": {
        "details": "Game ID -> Tournament ID -> Token Address -> Total Prize Distribution Amount excluding Fee"
      },
      "totalPrizeFee": {
        "details": "Game ID -> Tournament ID -> Token Address -> Total Prize Fee Amount"
      },
      "totalUserDeposit": {
        "details": "Game ID -> Tournament ID -> Token Address -> Total User Deposit Amount"
      },
      "totalWithdrawAmount": {
        "details": "Token Address -> Total Withdraw Amount"
      }
    },
    "title": "Oparcade",
    "version": 1
  },
  "userdoc": {
    "kind": "user",
    "methods": {
      "deposit(uint256,uint256,address)": {
        "notice": "Deposit ERC20 tokens from user"
      },
      "depositNFTPrize(address,uint256,uint256,address,uint256,uint256[],uint256[])": {
        "notice": "Deposit NFT prize for the specific game/tournament"
      },
      "depositPrize(address,uint256,uint256,address,uint256)": {
        "notice": "Deposit the prize tokens for the specific game/tournament"
      },
      "distributeNFTPrize(uint256,uint256,address[],address,uint256,uint256[],uint256[])": {
        "notice": "Distribute winners' NFT prizes"
      },
      "distributePrize(uint256,uint256,address[],address,uint256[])": {
        "notice": "Distribute winners their prizes"
      },
      "pause()": {
        "notice": "Pause Oparcade"
      },
      "unpause()": {
        "notice": "Resume Oparcade"
      },
      "withdraw(address[],uint256[],address)": {
        "notice": "Withdraw tokens"
      },
      "withdrawNFTPrize(address,uint256,uint256,address,uint256,uint256[],uint256[])": {
        "notice": "Withdraw NFT prize for the specific game/tournament"
      },
      "withdrawPrize(address,uint256,uint256,address,uint256)": {
        "notice": "Withdraw the prize tokens from the specific game/tournament"
      }
    },
    "notice": "This contract manages token deposit/distribution from/to the users playing the game/tournament",
    "version": 1
  },
  "storageLayout": {
    "storage": [
      {
        "astId": 130,
        "contract": "contracts/Oparcade.sol:Oparcade",
        "label": "_initialized",
        "offset": 0,
        "slot": "0",
        "type": "t_bool"
      },
      {
        "astId": 133,
        "contract": "contracts/Oparcade.sol:Oparcade",
        "label": "_initializing",
        "offset": 1,
        "slot": "0",
        "type": "t_bool"
      },
      {
        "astId": 1413,
        "contract": "contracts/Oparcade.sol:Oparcade",
        "label": "__gap",
        "offset": 0,
        "slot": "1",
        "type": "t_array(t_uint256)50_storage"
      },
      {
        "astId": 10,
        "contract": "contracts/Oparcade.sol:Oparcade",
        "label": "_owner",
        "offset": 0,
        "slot": "51",
        "type": "t_address"
      },
      {
        "astId": 123,
        "contract": "contracts/Oparcade.sol:Oparcade",
        "label": "__gap",
        "offset": 0,
        "slot": "52",
        "type": "t_array(t_uint256)49_storage"
      },
      {
        "astId": 297,
        "contract": "contracts/Oparcade.sol:Oparcade",
        "label": "_status",
        "offset": 0,
        "slot": "101",
        "type": "t_uint256"
      },
      {
        "astId": 340,
        "contract": "contracts/Oparcade.sol:Oparcade",
        "label": "__gap",
        "offset": 0,
        "slot": "102",
        "type": "t_array(t_uint256)49_storage"
      },
      {
        "astId": 191,
        "contract": "contracts/Oparcade.sol:Oparcade",
        "label": "_paused",
        "offset": 0,
        "slot": "151",
        "type": "t_bool"
      },
      {
        "astId": 282,
        "contract": "contracts/Oparcade.sol:Oparcade",
        "label": "__gap",
        "offset": 0,
        "slot": "152",
        "type": "t_array(t_uint256)49_storage"
      },
      {
        "astId": 1126,
        "contract": "contracts/Oparcade.sol:Oparcade",
        "label": "__gap",
        "offset": 0,
        "slot": "201",
        "type": "t_array(t_uint256)50_storage"
      },
      {
        "astId": 1459,
        "contract": "contracts/Oparcade.sol:Oparcade",
        "label": "__gap",
        "offset": 0,
        "slot": "251",
        "type": "t_array(t_uint256)50_storage"
      },
      {
        "astId": 641,
        "contract": "contracts/Oparcade.sol:Oparcade",
        "label": "__gap",
        "offset": 0,
        "slot": "301",
        "type": "t_array(t_uint256)50_storage"
      },
      {
        "astId": 582,
        "contract": "contracts/Oparcade.sol:Oparcade",
        "label": "__gap",
        "offset": 0,
        "slot": "351",
        "type": "t_array(t_uint256)50_storage"
      },
      {
        "astId": 6443,
        "contract": "contracts/Oparcade.sol:Oparcade",
        "label": "totalUserDeposit",
        "offset": 0,
        "slot": "401",
        "type": "t_mapping(t_uint256,t_mapping(t_uint256,t_mapping(t_address,t_uint256)))"
      },
      {
        "astId": 6452,
        "contract": "contracts/Oparcade.sol:Oparcade",
        "label": "totalPrizeDistribution",
        "offset": 0,
        "slot": "402",
        "type": "t_mapping(t_uint256,t_mapping(t_uint256,t_mapping(t_address,t_uint256)))"
      },
      {
        "astId": 6461,
        "contract": "contracts/Oparcade.sol:Oparcade",
        "label": "totalPrizeFee",
        "offset": 0,
        "slot": "403",
        "type": "t_mapping(t_uint256,t_mapping(t_uint256,t_mapping(t_address,t_uint256)))"
      },
      {
        "astId": 6472,
        "contract": "contracts/Oparcade.sol:Oparcade",
        "label": "totalNFTPrizeDistribution",
        "offset": 0,
        "slot": "404",
        "type": "t_mapping(t_uint256,t_mapping(t_uint256,t_mapping(t_address,t_mapping(t_uint256,t_uint256))))"
      },
      {
        "astId": 6481,
        "contract": "contracts/Oparcade.sol:Oparcade",
        "label": "totalPrizeDeposit",
        "offset": 0,
        "slot": "405",
        "type": "t_mapping(t_uint256,t_mapping(t_uint256,t_mapping(t_address,t_uint256)))"
      },
      {
        "astId": 6492,
        "contract": "contracts/Oparcade.sol:Oparcade",
        "label": "totalNFTPrizeDeposit",
        "offset": 0,
        "slot": "406",
        "type": "t_mapping(t_uint256,t_mapping(t_uint256,t_mapping(t_address,t_mapping(t_uint256,t_uint256))))"
      },
      {
        "astId": 6497,
        "contract": "contracts/Oparcade.sol:Oparcade",
        "label": "totalWithdrawAmount",
        "offset": 0,
        "slot": "407",
        "type": "t_mapping(t_address,t_uint256)"
      },
      {
        "astId": 6501,
        "contract": "contracts/Oparcade.sol:Oparcade",
        "label": "addressRegistry",
        "offset": 0,
        "slot": "408",
        "type": "t_contract(IAddressRegistry)7927"
      }
    ],
    "types": {
      "t_address": {
        "encoding": "inplace",
        "label": "address",
        "numberOfBytes": "20"
      },
      "t_array(t_uint256)49_storage": {
        "base": "t_uint256",
        "encoding": "inplace",
        "label": "uint256[49]",
        "numberOfBytes": "1568"
      },
      "t_array(t_uint256)50_storage": {
        "base": "t_uint256",
        "encoding": "inplace",
        "label": "uint256[50]",
        "numberOfBytes": "1600"
      },
      "t_bool": {
        "encoding": "inplace",
        "label": "bool",
        "numberOfBytes": "1"
      },
      "t_contract(IAddressRegistry)7927": {
        "encoding": "inplace",
        "label": "contract IAddressRegistry",
        "numberOfBytes": "20"
      },
      "t_mapping(t_address,t_mapping(t_uint256,t_uint256))": {
        "encoding": "mapping",
        "key": "t_address",
        "label": "mapping(address => mapping(uint256 => uint256))",
        "numberOfBytes": "32",
        "value": "t_mapping(t_uint256,t_uint256)"
      },
      "t_mapping(t_address,t_uint256)": {
        "encoding": "mapping",
        "key": "t_address",
        "label": "mapping(address => uint256)",
        "numberOfBytes": "32",
        "value": "t_uint256"
      },
      "t_mapping(t_uint256,t_mapping(t_address,t_mapping(t_uint256,t_uint256)))": {
        "encoding": "mapping",
        "key": "t_uint256",
        "label": "mapping(uint256 => mapping(address => mapping(uint256 => uint256)))",
        "numberOfBytes": "32",
        "value": "t_mapping(t_address,t_mapping(t_uint256,t_uint256))"
      },
      "t_mapping(t_uint256,t_mapping(t_address,t_uint256))": {
        "encoding": "mapping",
        "key": "t_uint256",
        "label": "mapping(uint256 => mapping(address => uint256))",
        "numberOfBytes": "32",
        "value": "t_mapping(t_address,t_uint256)"
      },
      "t_mapping(t_uint256,t_mapping(t_uint256,t_mapping(t_address,t_mapping(t_uint256,t_uint256))))": {
        "encoding": "mapping",
        "key": "t_uint256",
        "label": "mapping(uint256 => mapping(uint256 => mapping(address => mapping(uint256 => uint256))))",
        "numberOfBytes": "32",
        "value": "t_mapping(t_uint256,t_mapping(t_address,t_mapping(t_uint256,t_uint256)))"
      },
      "t_mapping(t_uint256,t_mapping(t_uint256,t_mapping(t_address,t_uint256)))": {
        "encoding": "mapping",
        "key": "t_uint256",
        "label": "mapping(uint256 => mapping(uint256 => mapping(address => uint256)))",
        "numberOfBytes": "32",
        "value": "t_mapping(t_uint256,t_mapping(t_address,t_uint256))"
      },
      "t_mapping(t_uint256,t_uint256)": {
        "encoding": "mapping",
        "key": "t_uint256",
        "label": "mapping(uint256 => uint256)",
        "numberOfBytes": "32",
        "value": "t_uint256"
      },
      "t_uint256": {
        "encoding": "inplace",
        "label": "uint256",
        "numberOfBytes": "32"
      }
    }
  }
}