{
  "address": "0x8f0E87d1B0106B2C213E5C7b7511c7718F6e07bc",
  "abi": [
    {
      "anonymous": false,
      "inputs": [
        {
          "indexed": false,
          "internalType": "uint8",
          "name": "version",
          "type": "uint8"
        }
      ],
      "name": "Initialized",
      "type": "event"
    },
    {
      "anonymous": false,
      "inputs": [
        {
          "indexed": false,
          "internalType": "address",
          "name": "by",
          "type": "address"
        },
        {
          "indexed": false,
          "internalType": "address",
          "name": "from",
          "type": "address"
        },
        {
          "indexed": true,
          "internalType": "uint256",
          "name": "gid",
          "type": "uint256"
        },
        {
          "indexed": true,
          "internalType": "uint256",
          "name": "tid",
          "type": "uint256"
        },
        {
          "indexed": true,
          "internalType": "address",
          "name": "nftAddress",
          "type": "address"
        },
        {
          "indexed": false,
          "internalType": "uint256",
          "name": "nftType",
          "type": "uint256"
        },
        {
          "indexed": false,
          "internalType": "uint256[]",
          "name": "tokenIds",
          "type": "uint256[]"
        },
        {
          "indexed": false,
          "internalType": "uint256[]",
          "name": "amounts",
          "type": "uint256[]"
        }
      ],
      "name": "NFTPrizeDeposited",
      "type": "event"
    },
    {
      "anonymous": false,
      "inputs": [
        {
          "indexed": false,
          "internalType": "address",
          "name": "by",
          "type": "address"
        },
        {
          "indexed": false,
          "internalType": "address[]",
          "name": "winners",
          "type": "address[]"
        },
        {
          "indexed": true,
          "internalType": "uint256",
          "name": "gid",
          "type": "uint256"
        },
        {
          "indexed": true,
          "internalType": "uint256",
          "name": "tid",
          "type": "uint256"
        },
        {
          "indexed": true,
          "internalType": "address",
          "name": "nftAddress",
          "type": "address"
        },
        {
          "indexed": false,
          "internalType": "uint256",
          "name": "nftType",
          "type": "uint256"
        },
        {
          "indexed": false,
          "internalType": "uint256[]",
          "name": "tokenIds",
          "type": "uint256[]"
        },
        {
          "indexed": false,
          "internalType": "uint256[]",
          "name": "amounts",
          "type": "uint256[]"
        }
      ],
      "name": "NFTPrizeDistributed",
      "type": "event"
    },
    {
      "anonymous": false,
      "inputs": [
        {
          "indexed": false,
          "internalType": "address",
          "name": "by",
          "type": "address"
        },
        {
          "indexed": false,
          "internalType": "address",
          "name": "to",
          "type": "address"
        },
        {
          "indexed": true,
          "internalType": "uint256",
          "name": "gid",
          "type": "uint256"
        },
        {
          "indexed": true,
          "internalType": "uint256",
          "name": "tid",
          "type": "uint256"
        },
        {
          "indexed": true,
          "internalType": "address",
          "name": "nftAddress",
          "type": "address"
        },
        {
          "indexed": false,
          "internalType": "uint256",
          "name": "nftType",
          "type": "uint256"
        },
        {
          "indexed": false,
          "internalType": "uint256[]",
          "name": "tokenIds",
          "type": "uint256[]"
        },
        {
          "indexed": false,
          "internalType": "uint256[]",
          "name": "amounts",
          "type": "uint256[]"
        }
      ],
      "name": "NFTPrizeWithdrawn",
      "type": "event"
    },
    {
      "anonymous": false,
      "inputs": [
        {
          "indexed": true,
          "internalType": "address",
          "name": "previousOwner",
          "type": "address"
        },
        {
          "indexed": true,
          "internalType": "address",
          "name": "newOwner",
          "type": "address"
        }
      ],
      "name": "OwnershipTransferred",
      "type": "event"
    },
    {
      "anonymous": false,
      "inputs": [
        {
          "indexed": false,
          "internalType": "address",
          "name": "account",
          "type": "address"
        }
      ],
      "name": "Paused",
      "type": "event"
    },
    {
      "anonymous": false,
      "inputs": [
        {
          "indexed": false,
          "internalType": "address",
          "name": "by",
          "type": "address"
        },
        {
          "indexed": false,
          "internalType": "address",
          "name": "depositor",
          "type": "address"
        },
        {
          "indexed": true,
          "internalType": "uint256",
          "name": "gid",
          "type": "uint256"
        },
        {
          "indexed": true,
          "internalType": "uint256",
          "name": "tid",
          "type": "uint256"
        },
        {
          "indexed": true,
          "internalType": "address",
          "name": "token",
          "type": "address"
        },
        {
          "indexed": false,
          "internalType": "uint256",
          "name": "amount",
          "type": "uint256"
        }
      ],
      "name": "PrizeDeposited",
      "type": "event"
    },
    {
      "anonymous": false,
      "inputs": [
        {
          "indexed": false,
          "internalType": "address",
          "name": "by",
          "type": "address"
        },
        {
          "indexed": false,
          "internalType": "address[]",
          "name": "winners",
          "type": "address[]"
        },
        {
          "indexed": true,
          "internalType": "uint256",
          "name": "gid",
          "type": "uint256"
        },
        {
          "indexed": true,
          "internalType": "uint256",
          "name": "tid",
          "type": "uint256"
        },
        {
          "indexed": true,
          "internalType": "address",
          "name": "token",
          "type": "address"
        },
        {
          "indexed": false,
          "internalType": "uint256[]",
          "name": "amounts",
          "type": "uint256[]"
        }
      ],
      "name": "PrizeDistributed",
      "type": "event"
    },
    {
      "anonymous": false,
      "inputs": [
        {
          "indexed": false,
          "internalType": "address",
          "name": "by",
          "type": "address"
        },
        {
          "indexed": true,
          "internalType": "uint256",
          "name": "gid",
          "type": "uint256"
        },
        {
          "indexed": true,
          "internalType": "uint256",
          "name": "tid",
          "type": "uint256"
        },
        {
          "indexed": true,
          "internalType": "address",
          "name": "token",
          "type": "address"
        },
        {
          "indexed": false,
          "internalType": "uint256",
          "name": "amount",
          "type": "uint256"
        }
      ],
      "name": "PrizeWithdrawn",
      "type": "event"
    },
    {
      "anonymous": false,
      "inputs": [
        {
          "indexed": false,
          "internalType": "address",
          "name": "account",
          "type": "address"
        }
      ],
      "name": "Unpaused",
      "type": "event"
    },
    {
      "anonymous": false,
      "inputs": [
        {
          "indexed": false,
          "internalType": "address",
          "name": "by",
          "type": "address"
        },
        {
          "indexed": true,
          "internalType": "uint256",
          "name": "gid",
          "type": "uint256"
        },
        {
          "indexed": true,
          "internalType": "uint256",
          "name": "tid",
          "type": "uint256"
        },
        {
          "indexed": true,
          "internalType": "address",
          "name": "token",
          "type": "address"
        },
        {
          "indexed": false,
          "internalType": "uint256",
          "name": "amount",
          "type": "uint256"
        }
      ],
      "name": "UserDeposited",
      "type": "event"
    },
    {
      "anonymous": false,
      "inputs": [
        {
          "indexed": true,
          "internalType": "address",
          "name": "by",
          "type": "address"
        },
        {
          "indexed": true,
          "internalType": "address",
          "name": "beneficiary",
          "type": "address"
        },
        {
          "indexed": true,
          "internalType": "address",
          "name": "token",
          "type": "address"
        },
        {
          "indexed": false,
          "internalType": "uint256",
          "name": "amount",
          "type": "uint256"
        }
      ],
      "name": "Withdrawn",
      "type": "event"
    },
    {
      "inputs": [],
      "name": "addressRegistry",
      "outputs": [
        {
          "internalType": "contract IAddressRegistry",
          "name": "",
          "type": "address"
        }
      ],
      "stateMutability": "view",
      "type": "function"
    },
    {
      "inputs": [
        {
          "internalType": "uint256",
          "name": "_gid",
          "type": "uint256"
        },
        {
          "internalType": "uint256",
          "name": "_tid",
          "type": "uint256"
        },
        {
          "internalType": "address",
          "name": "_token",
          "type": "address"
        }
      ],
      "name": "deposit",
      "outputs": [],
      "stateMutability": "nonpayable",
      "type": "function"
    },
    {
      "inputs": [
        {
          "internalType": "address",
          "name": "_from",
          "type": "address"
        },
        {
          "internalType": "uint256",
          "name": "_gid",
          "type": "uint256"
        },
        {
          "internalType": "uint256",
          "name": "_tid",
          "type": "uint256"
        },
        {
          "internalType": "address",
          "name": "_nftAddress",
          "type": "address"
        },
        {
          "internalType": "uint256",
          "name": "_nftType",
          "type": "uint256"
        },
        {
          "internalType": "uint256[]",
          "name": "_tokenIds",
          "type": "uint256[]"
        },
        {
          "internalType": "uint256[]",
          "name": "_amounts",
          "type": "uint256[]"
        }
      ],
      "name": "depositNFTPrize",
      "outputs": [],
      "stateMutability": "nonpayable",
      "type": "function"
    },
    {
      "inputs": [
        {
          "internalType": "address",
          "name": "_depositor",
          "type": "address"
        },
        {
          "internalType": "uint256",
          "name": "_gid",
          "type": "uint256"
        },
        {
          "internalType": "uint256",
          "name": "_tid",
          "type": "uint256"
        },
        {
          "internalType": "address",
          "name": "_token",
          "type": "address"
        },
        {
          "internalType": "uint256",
          "name": "_amount",
          "type": "uint256"
        }
      ],
      "name": "depositPrize",
      "outputs": [],
      "stateMutability": "nonpayable",
      "type": "function"
    },
    {
      "inputs": [
        {
          "internalType": "uint256",
          "name": "_gid",
          "type": "uint256"
        },
        {
          "internalType": "uint256",
          "name": "_tid",
          "type": "uint256"
        },
        {
          "internalType": "address[]",
          "name": "_winners",
          "type": "address[]"
        },
        {
          "internalType": "address",
          "name": "_nftAddress",
          "type": "address"
        },
        {
          "internalType": "uint256",
          "name": "_nftType",
          "type": "uint256"
        },
        {
          "internalType": "uint256[]",
          "name": "_tokenIds",
          "type": "uint256[]"
        },
        {
          "internalType": "uint256[]",
          "name": "_amounts",
          "type": "uint256[]"
        }
      ],
      "name": "distributeNFTPrize",
      "outputs": [],
      "stateMutability": "nonpayable",
      "type": "function"
    },
    {
      "inputs": [
        {
          "internalType": "uint256",
          "name": "_gid",
          "type": "uint256"
        },
        {
          "internalType": "uint256",
          "name": "_tid",
          "type": "uint256"
        },
        {
          "internalType": "address[]",
          "name": "_winners",
          "type": "address[]"
        },
        {
          "internalType": "address",
          "name": "_token",
          "type": "address"
        },
        {
          "internalType": "uint256[]",
          "name": "_amounts",
          "type": "uint256[]"
        }
      ],
      "name": "distributePrize",
      "outputs": [],
      "stateMutability": "nonpayable",
      "type": "function"
    },
    {
      "inputs": [
        {
          "internalType": "address",
          "name": "_addressRegistry",
          "type": "address"
        }
      ],
      "name": "initialize",
      "outputs": [],
      "stateMutability": "nonpayable",
      "type": "function"
    },
    {
      "inputs": [
        {
          "internalType": "address",
          "name": "",
          "type": "address"
        },
        {
          "internalType": "address",
          "name": "",
          "type": "address"
        },
        {
          "internalType": "uint256[]",
          "name": "",
          "type": "uint256[]"
        },
        {
          "internalType": "uint256[]",
          "name": "",
          "type": "uint256[]"
        },
        {
          "internalType": "bytes",
          "name": "",
          "type": "bytes"
        }
      ],
      "name": "onERC1155BatchReceived",
      "outputs": [
        {
          "internalType": "bytes4",
          "name": "",
          "type": "bytes4"
        }
      ],
      "stateMutability": "nonpayable",
      "type": "function"
    },
    {
      "inputs": [
        {
          "internalType": "address",
          "name": "",
          "type": "address"
        },
        {
          "internalType": "address",
          "name": "",
          "type": "address"
        },
        {
          "internalType": "uint256",
          "name": "",
          "type": "uint256"
        },
        {
          "internalType": "uint256",
          "name": "",
          "type": "uint256"
        },
        {
          "internalType": "bytes",
          "name": "",
          "type": "bytes"
        }
      ],
      "name": "onERC1155Received",
      "outputs": [
        {
          "internalType": "bytes4",
          "name": "",
          "type": "bytes4"
        }
      ],
      "stateMutability": "nonpayable",
      "type": "function"
    },
    {
      "inputs": [
        {
          "internalType": "address",
          "name": "",
          "type": "address"
        },
        {
          "internalType": "address",
          "name": "",
          "type": "address"
        },
        {
          "internalType": "uint256",
          "name": "",
          "type": "uint256"
        },
        {
          "internalType": "bytes",
          "name": "",
          "type": "bytes"
        }
      ],
      "name": "onERC721Received",
      "outputs": [
        {
          "internalType": "bytes4",
          "name": "",
          "type": "bytes4"
        }
      ],
      "stateMutability": "nonpayable",
      "type": "function"
    },
    {
      "inputs": [],
      "name": "owner",
      "outputs": [
        {
          "internalType": "address",
          "name": "",
          "type": "address"
        }
      ],
      "stateMutability": "view",
      "type": "function"
    },
    {
      "inputs": [],
      "name": "pause",
      "outputs": [],
      "stateMutability": "nonpayable",
      "type": "function"
    },
    {
      "inputs": [],
      "name": "paused",
      "outputs": [
        {
          "internalType": "bool",
          "name": "",
          "type": "bool"
        }
      ],
      "stateMutability": "view",
      "type": "function"
    },
    {
      "inputs": [],
      "name": "renounceOwnership",
      "outputs": [],
      "stateMutability": "nonpayable",
      "type": "function"
    },
    {
      "inputs": [
        {
          "internalType": "bytes4",
          "name": "interfaceId",
          "type": "bytes4"
        }
      ],
      "name": "supportsInterface",
      "outputs": [
        {
          "internalType": "bool",
          "name": "",
          "type": "bool"
        }
      ],
      "stateMutability": "view",
      "type": "function"
    },
    {
      "inputs": [
        {
          "internalType": "uint256",
          "name": "",
          "type": "uint256"
        },
        {
          "internalType": "uint256",
          "name": "",
          "type": "uint256"
        },
        {
          "internalType": "address",
          "name": "",
          "type": "address"
        },
        {
          "internalType": "uint256",
          "name": "",
          "type": "uint256"
        }
      ],
      "name": "totalNFTPrizeDeposit",
      "outputs": [
        {
          "internalType": "uint256",
          "name": "",
          "type": "uint256"
        }
      ],
      "stateMutability": "view",
      "type": "function"
    },
    {
      "inputs": [
        {
          "internalType": "uint256",
          "name": "",
          "type": "uint256"
        },
        {
          "internalType": "uint256",
          "name": "",
          "type": "uint256"
        },
        {
          "internalType": "address",
          "name": "",
          "type": "address"
        },
        {
          "internalType": "uint256",
          "name": "",
          "type": "uint256"
        }
      ],
      "name": "totalNFTPrizeDistribution",
      "outputs": [
        {
          "internalType": "uint256",
          "name": "",
          "type": "uint256"
        }
      ],
      "stateMutability": "view",
      "type": "function"
    },
    {
      "inputs": [
        {
          "internalType": "uint256",
          "name": "",
          "type": "uint256"
        },
        {
          "internalType": "uint256",
          "name": "",
          "type": "uint256"
        },
        {
          "internalType": "address",
          "name": "",
          "type": "address"
        }
      ],
      "name": "totalPrizeDeposit",
      "outputs": [
        {
          "internalType": "uint256",
          "name": "",
          "type": "uint256"
        }
      ],
      "stateMutability": "view",
      "type": "function"
    },
    {
      "inputs": [
        {
          "internalType": "uint256",
          "name": "",
          "type": "uint256"
        },
        {
          "internalType": "uint256",
          "name": "",
          "type": "uint256"
        },
        {
          "internalType": "address",
          "name": "",
          "type": "address"
        }
      ],
      "name": "totalPrizeDistribution",
      "outputs": [
        {
          "internalType": "uint256",
          "name": "",
          "type": "uint256"
        }
      ],
      "stateMutability": "view",
      "type": "function"
    },
    {
      "inputs": [
        {
          "internalType": "uint256",
          "name": "",
          "type": "uint256"
        },
        {
          "internalType": "uint256",
          "name": "",
          "type": "uint256"
        },
        {
          "internalType": "address",
          "name": "",
          "type": "address"
        }
      ],
      "name": "totalPrizeFee",
      "outputs": [
        {
          "internalType": "uint256",
          "name": "",
          "type": "uint256"
        }
      ],
      "stateMutability": "view",
      "type": "function"
    },
    {
      "inputs": [
        {
          "internalType": "uint256",
          "name": "",
          "type": "uint256"
        },
        {
          "internalType": "uint256",
          "name": "",
          "type": "uint256"
        },
        {
          "internalType": "address",
          "name": "",
          "type": "address"
        }
      ],
      "name": "totalUserDeposit",
      "outputs": [
        {
          "internalType": "uint256",
          "name": "",
          "type": "uint256"
        }
      ],
      "stateMutability": "view",
      "type": "function"
    },
    {
      "inputs": [
        {
          "internalType": "address",
          "name": "",
          "type": "address"
        }
      ],
      "name": "totalWithdrawAmount",
      "outputs": [
        {
          "internalType": "uint256",
          "name": "",
          "type": "uint256"
        }
      ],
      "stateMutability": "view",
      "type": "function"
    },
    {
      "inputs": [
        {
          "internalType": "address",
          "name": "newOwner",
          "type": "address"
        }
      ],
      "name": "transferOwnership",
      "outputs": [],
      "stateMutability": "nonpayable",
      "type": "function"
    },
    {
      "inputs": [],
      "name": "unpause",
      "outputs": [],
      "stateMutability": "nonpayable",
      "type": "function"
    },
    {
      "inputs": [
        {
          "internalType": "address[]",
          "name": "_tokens",
          "type": "address[]"
        },
        {
          "internalType": "uint256[]",
          "name": "_amounts",
          "type": "uint256[]"
        },
        {
          "internalType": "address",
          "name": "_beneficiary",
          "type": "address"
        }
      ],
      "name": "withdraw",
      "outputs": [],
      "stateMutability": "nonpayable",
      "type": "function"
    },
    {
      "inputs": [
        {
          "internalType": "address",
          "name": "_to",
          "type": "address"
        },
        {
          "internalType": "uint256",
          "name": "_gid",
          "type": "uint256"
        },
        {
          "internalType": "uint256",
          "name": "_tid",
          "type": "uint256"
        },
        {
          "internalType": "address",
          "name": "_nftAddress",
          "type": "address"
        },
        {
          "internalType": "uint256",
          "name": "_nftType",
          "type": "uint256"
        },
        {
          "internalType": "uint256[]",
          "name": "_tokenIds",
          "type": "uint256[]"
        },
        {
          "internalType": "uint256[]",
          "name": "_amounts",
          "type": "uint256[]"
        }
      ],
      "name": "withdrawNFTPrize",
      "outputs": [],
      "stateMutability": "nonpayable",
      "type": "function"
    },
    {
      "inputs": [
        {
          "internalType": "uint256",
          "name": "_gid",
          "type": "uint256"
        },
        {
          "internalType": "uint256",
          "name": "_tid",
          "type": "uint256"
        },
        {
          "internalType": "address",
          "name": "_token",
          "type": "address"
        },
        {
          "internalType": "uint256",
          "name": "_amount",
          "type": "uint256"
        }
      ],
      "name": "withdrawPrize",
      "outputs": [],
      "stateMutability": "nonpayable",
      "type": "function"
    },
    {
      "stateMutability": "payable",
      "type": "receive"
    }
  ],
  "transactionHash": "0x6b0e12e3679e195ebb5248efb9575a3cffc1863d7d85cc1684f09a942cb4ae7c",
  "args": [],
  "numDeployments": 1,
  "solcInputHash": "59920b8e96a3b80037a0cc75c09b417f",
  "bytecode": "0x608060405234801561001057600080fd5b506149d9806100206000396000f3fe6080604052600436106101b05760003560e01c80638639c9a7116100ec578063bc197c811161008a578063e3b2facc11610064578063e3b2facc146105b4578063f23a6e61146105d4578063f2fde38b14610600578063f3ad65f41461062057600080fd5b8063bc197c811461053a578063c4d66de814610566578063c836e8ee1461058657600080fd5b80638dbdbe6d116100c65780638dbdbe6d1461047c57806390ed20241461049c578063b3a833b8146104db578063b6bf94be146104fb57600080fd5b80638639c9a7146103eb578063888cecba1461040b5780638da5cb5b1461044a57600080fd5b80633f4ba83a116101595780635c975abb116101335780635c975abb14610361578063715018a6146103795780637ae38bd21461038e5780638456cb59146103d657600080fd5b80633f4ba83a1461030c5780634ceba21a146103215780634e5fba4f1461034157600080fd5b806321163be51161018a57806321163be51461025757806326f91506146102a4578063275927be146102c457600080fd5b806301ffc9a7146101bc578063150b7a02146101f15780631de6ba171461023557600080fd5b366101b757005b600080fd5b3480156101c857600080fd5b506101dc6101d7366004613f34565b610641565b60405190151581526020015b60405180910390f35b3480156101fd57600080fd5b5061021c61020c36600461402a565b630a85bd0160e11b949350505050565b6040516001600160e01b031990911681526020016101e8565b34801561024157600080fd5b50610255610250366004614096565b610678565b005b34801561026357600080fd5b506102966102723660046140e8565b61019560209081526000938452604080852082529284528284209052825290205481565b6040519081526020016101e8565b3480156102b057600080fd5b506102556102bf36600461416d565b6109a5565b3480156102d057600080fd5b506102966102df3660046141f1565b61019460209081526000948552604080862082529385528385208152918452828420909152825290205481565b34801561031857600080fd5b50610255610bd6565b34801561032d57600080fd5b5061025561033c366004614230565b610c3a565b34801561034d57600080fd5b5061025561035c3660046141f1565b611023565b34801561036d57600080fd5b5060975460ff166101dc565b34801561038557600080fd5b5061025561119c565b34801561039a57600080fd5b506102966103a93660046141f1565b61019660209081526000948552604080862082529385528385208152918452828420909152825290205481565b3480156103e257600080fd5b50610255611200565b3480156103f757600080fd5b506102556104063660046142c8565b611262565b34801561041757600080fd5b506102966104263660046140e8565b61019160209081526000938452604080852082529284528284209052825290205481565b34801561045657600080fd5b506033546001600160a01b03165b6040516001600160a01b0390911681526020016101e8565b34801561048857600080fd5b506102556104973660046140e8565b611d1d565b3480156104a857600080fd5b506102966104b73660046140e8565b61019260209081526000938452604080852082529284528284209052825290205481565b3480156104e757600080fd5b506102556104f6366004614396565b611f38565b34801561050757600080fd5b506102966105163660046140e8565b61019360209081526000938452604080852082529284528284209052825290205481565b34801561054657600080fd5b5061021c6105553660046144bf565b63bc197c8160e01b95945050505050565b34801561057257600080fd5b5061025561058136600461456d565b6126af565b34801561059257600080fd5b506102966105a136600461456d565b6101976020526000908152604090205481565b3480156105c057600080fd5b506102556105cf366004614396565b6127c4565b3480156105e057600080fd5b5061021c6105ef36600461458a565b63f23a6e6160e01b95945050505050565b34801561060c57600080fd5b5061025561061b36600461456d565b612f9f565b34801561062c57600080fd5b5061019854610464906001600160a01b031681565b60006001600160e01b03198216630271189760e51b148061067257506301ffc9a760e01b6001600160e01b03198316145b92915050565b6033546001600160a01b0316331480610719575061019860009054906101000a90046001600160a01b03166001600160a01b031663da0907556040518163ffffffff1660e01b8152600401602060405180830381865afa1580156106e0573d6000803e3d6000fd5b505050506040513d601f19601f8201168201806040525081019061070491906145f3565b6001600160a01b0316336001600160a01b0316145b61076a5760405162461bcd60e51b815260206004820152601a60248201527f4f6e6c79206f776e6572206f722047616d65526567697374727900000000000060448201526064015b60405180910390fd5b6001600160a01b0382166107c05760405162461bcd60e51b815260206004820152601860248201527f556e657870656374656420746f6b656e206164647265737300000000000000006044820152606401610761565b61019860009054906101000a90046001600160a01b03166001600160a01b031663da0907556040518163ffffffff1660e01b8152600401602060405180830381865afa158015610814573d6000803e3d6000fd5b505050506040513d601f19601f8201168201806040525081019061083891906145f3565b6040516339ff00bd60e01b8152600481018690526001600160a01b03848116602483015291909116906339ff00bd90604401602060405180830381865afa158015610887573d6000803e3d6000fd5b505050506040513d601f19601f820116820180604052508101906108ab9190614610565b6108f75760405162461bcd60e51b815260206004820152601d60248201527f446973616c6c6f77656420646973747269627574696f6e20746f6b656e0000006044820152606401610761565b61090c6001600160a01b038316863084613081565b60008481526101956020908152604080832086845282528083206001600160a01b038616845290915281208054839290610947908490614648565b9091555050604080513381526001600160a01b03878116602083015291810183905290831690849086907fa555954f2adaf5a353a1db2b9a28e229f872593323659c9f5ab9cc426d0c58a29060600160405180910390a45050505050565b6033546001600160a01b031633146109ff5760405162461bcd60e51b815260206004820181905260248201527f4f776e61626c653a2063616c6c6572206973206e6f7420746865206f776e65726044820152606401610761565b838214610a4e5760405162461bcd60e51b815260206004820152601a60248201527f4d69736d617463686564207769746864726177616c20646174610000000000006044820152606401610761565b60005b84811015610bce57838382818110610a6b57610a6b614660565b905060200201356101976000888885818110610a8957610a89614660565b9050602002016020810190610a9e919061456d565b6001600160a01b03166001600160a01b031681526020019081526020016000206000828254610acd9190614648565b90915550610b27905082858584818110610ae957610ae9614660565b90506020020135888885818110610b0257610b02614660565b9050602002016020810190610b17919061456d565b6001600160a01b03169190613107565b858582818110610b3957610b39614660565b9050602002016020810190610b4e919061456d565b6001600160a01b0316826001600160a01b0316336001600160a01b03167fa4195c37c2947bbe89165f03e320b6903116f0b10d8cfdb522330f7ce6f9fa24878786818110610b9e57610b9e614660565b90506020020135604051610bb491815260200190565b60405180910390a480610bc681614676565b915050610a51565b505050505050565b6033546001600160a01b03163314610c305760405162461bcd60e51b815260206004820181905260248201527f4f776e61626c653a2063616c6c6572206973206e6f7420746865206f776e65726044820152606401610761565b610c3861313c565b565b60975460ff1615610c805760405162461bcd60e51b815260206004820152601060248201526f14185d5cd8589b194e881c185d5cd95960821b6044820152606401610761565b61019860009054906101000a90046001600160a01b03166001600160a01b0316639850d32b6040518163ffffffff1660e01b8152600401602060405180830381865afa158015610cd4573d6000803e3d6000fd5b505050506040513d601f19601f82011682018060405250810190610cf891906145f3565b6001600160a01b0316336001600160a01b031614610d4a5760405162461bcd60e51b815260206004820152600f60248201526e27b7363c9036b0b4b73a30b4b732b960891b6044820152606401610761565b838114610d995760405162461bcd60e51b815260206004820152601e60248201527f4d69736d6174636865642077696e6e65727320616e6420616d6f756e747300006044820152606401610761565b610198546040805163da09075560e01b815290516000926001600160a01b03169163da0907559160048083019260209291908290030181865afa158015610de4573d6000803e3d6000fd5b505050506040513d601f19601f82011682018060405250810190610e0891906145f3565b6040516339ff00bd60e01b8152600481018a90526001600160a01b038681166024830152919250908216906339ff00bd90604401602060405180830381865afa158015610e59573d6000803e3d6000fd5b505050506040513d601f19601f82011682018060405250810190610e7d9190614610565b610ec95760405162461bcd60e51b815260206004820152601d60248201527f446973616c6c6f77656420646973747269627574696f6e20746f6b656e0000006044820152606401610761565b610ed8888888888888886131d8565b6000888152610191602090815260408083208a845282528083206001600160a01b038816808552908352818420548c855261019584528285208c86528452828520918552925290912054610f2c9190614648565b6000898152610193602090815260408083208b845282528083206001600160a01b038916808552908352818420548d855261019284528285208d86528452828520918552925290912054610f809190614648565b1115610fce5760405162461bcd60e51b815260206004820152601560248201527f5072697a6520616d6f756e7420657863656564656400000000000000000000006044820152606401610761565b836001600160a01b031687897f6b4488e823ebb77fdc3a58bb5cbc1af38a0b2e39ff4dc84c080c08540dcd1ebc338a8a8989604051611011959493929190614729565b60405180910390a45050505050505050565b6033546001600160a01b0316331461107d5760405162461bcd60e51b815260206004820181905260248201527f4f776e61626c653a2063616c6c6572206973206e6f7420746865206f776e65726044820152606401610761565b60008481526101956020908152604080832086845282528083206001600160a01b03861684529091529020548111156110f85760405162461bcd60e51b815260206004820152601260248201527f496e73756666696369656e74207072697a6500000000000000000000000000006044820152606401610761565b60008481526101956020908152604080832086845282528083206001600160a01b03861684529091528120805483929061113390849061476b565b9091555061114d90506001600160a01b0383163383613107565b60408051338152602081018390526001600160a01b03841691859187917f0cb36af5c5bca6f878ab2f1d050c5935fb5fecdb9b88efc1f4808456ff9b3ee491015b60405180910390a450505050565b6033546001600160a01b031633146111f65760405162461bcd60e51b815260206004820181905260248201527f4f776e61626c653a2063616c6c6572206973206e6f7420746865206f776e65726044820152606401610761565b610c3860006137a4565b6033546001600160a01b0316331461125a5760405162461bcd60e51b815260206004820181905260248201527f4f776e61626c653a2063616c6c6572206973206e6f7420746865206f776e65726044820152606401610761565b610c38613803565b60975460ff16156112a85760405162461bcd60e51b815260206004820152601060248201526f14185d5cd8589b194e881c185d5cd95960821b6044820152606401610761565b600260655414156112fb5760405162461bcd60e51b815260206004820152601f60248201527f5265656e7472616e637947756172643a207265656e7472616e742063616c6c006044820152606401610761565b60026065556101985460408051639850d32b60e01b815290516001600160a01b0390921691639850d32b916004808201926020929091908290030181865afa15801561134b573d6000803e3d6000fd5b505050506040513d601f19601f8201168201806040525081019061136f91906145f3565b6001600160a01b0316336001600160a01b0316146113c15760405162461bcd60e51b815260206004820152600f60248201526e27b7363c9036b0b4b73a30b4b732b960891b6044820152606401610761565b61019860009054906101000a90046001600160a01b03166001600160a01b031663da0907556040518163ffffffff1660e01b8152600401602060405180830381865afa158015611415573d6000803e3d6000fd5b505050506040513d601f19601f8201168201806040525081019061143991906145f3565b6040516339ff00bd60e01b8152600481018c90526001600160a01b03888116602483015291909116906339ff00bd90604401602060405180830381865afa158015611488573d6000803e3d6000fd5b505050506040513d601f19601f820116820180604052508101906114ac9190614610565b6114f85760405162461bcd60e51b815260206004820152601d60248201527f446973616c6c6f77656420646973747269627574696f6e20746f6b656e0000006044820152606401610761565b846102d11480611509575084610483145b61154b5760405162461bcd60e51b8152602060048201526013602482015272556e6578706563746564204e4654207479706560681b6044820152606401610761565b868314801561155957508281145b6115a55760405162461bcd60e51b815260206004820181905260248201527f4d69736d617463686564204e465420646973747269627574696f6e20646174616044820152606401610761565b6000856102d11415611919576040516301ffc9a760e01b81526380ac58cd60e01b60048201526001600160a01b038816906301ffc9a790602401602060405180830381865afa1580156115fc573d6000803e3d6000fd5b505050506040513d601f19601f820116820180604052508101906116209190614610565b6116655760405162461bcd60e51b8152602060048201526016602482015275556e6578706563746564204e4654206164647265737360501b6044820152606401610761565b60005b888110156118cd5760008c8152610194602090815260408083208e845282528083206001600160a01b038c1684529091528120908787848181106116ae576116ae614660565b602090810292909201358352508181019290925260409081016000908120548f825261019684528282208f835284528282206001600160a01b038d1683529093529081209088888581811061170557611705614660565b90506020020135815260200190815260200160002054611725919061476b565b6001146117835760405162461bcd60e51b815260206004820152602660248201527f4e4654207072697a6520646973747269627574696f6e20616d6f756e7420657860448201526518d95959195960d21b6064820152608401610761565b60008c8152610194602090815260408083208e845282528083206001600160a01b038c16845290915281206001918888858181106117c3576117c3614660565b905060200201358152602001908152602001600020819055508383828181106117ee576117ee614660565b90506020020135826118009190614648565b9150876001600160a01b03166342842e0e308c8c8581811061182457611824614660565b9050602002016020810190611839919061456d565b89898681811061184b5761184b614660565b6040516001600160e01b031960e088901b1681526001600160a01b03958616600482015294909316602485015250602090910201356044820152606401600060405180830381600087803b1580156118a257600080fd5b505af11580156118b6573d6000803e3d6000fd5b5050505080806118c590614676565b915050611668565b508088146119145760405162461bcd60e51b8152602060048201526014602482015273496e76616c696420616d6f756e742076616c756560601b6044820152606401610761565b611cba565b6040516301ffc9a760e01b8152636cdb3d1360e11b60048201526001600160a01b038816906301ffc9a790602401602060405180830381865afa158015611964573d6000803e3d6000fd5b505050506040513d601f19601f820116820180604052508101906119889190614610565b6119cd5760405162461bcd60e51b8152602060048201526016602482015275556e6578706563746564204e4654206164647265737360501b6044820152606401610761565b60005b88811015611cb8578383828181106119ea576119ea614660565b9050602002013561019460008e815260200190815260200160002060008d815260200190815260200160002060008a6001600160a01b03166001600160a01b031681526020019081526020016000206000888885818110611a4d57611a4d614660565b9050602002013581526020019081526020016000205461019660008f815260200190815260200160002060008e815260200190815260200160002060008b6001600160a01b03166001600160a01b031681526020019081526020016000206000898986818110611abf57611abf614660565b90506020020135815260200190815260200160002054611adf919061476b565b1015611b3c5760405162461bcd60e51b815260206004820152602660248201527f4e4654207072697a6520646973747269627574696f6e20616d6f756e7420657860448201526518d95959195960d21b6064820152608401610761565b838382818110611b4e57611b4e614660565b9050602002013561019460008e815260200190815260200160002060008d815260200190815260200160002060008a6001600160a01b03166001600160a01b031681526020019081526020016000206000888885818110611bb157611bb1614660565b9050602002013581526020019081526020016000206000828254611bd59190614648565b90915550506001600160a01b03881663f242432a308c8c85818110611bfc57611bfc614660565b9050602002016020810190611c11919061456d565b898986818110611c2357611c23614660565b90506020020135888887818110611c3c57611c3c614660565b90506020020135604051806020016040528060008152506040518663ffffffff1660e01b8152600401611c739594939291906147da565b600060405180830381600087803b158015611c8d57600080fd5b505af1158015611ca1573d6000803e3d6000fd5b505050508080611cb090614676565b9150506119d0565b505b866001600160a01b03168a8c7fa825c8731f1dfe5c99472b7e94c839c9e6489ed55d0277366e867d8d88a306cf338d8d8c8c8c8c8c604051611d03989796959493929190614812565b60405180910390a450506001606555505050505050505050565b60975460ff1615611d635760405162461bcd60e51b815260206004820152601060248201526f14185d5cd8589b194e881c185d5cd95960821b6044820152606401610761565b610198546040805163da09075560e01b815290516000926001600160a01b03169163da0907559160048083019260209291908290030181865afa158015611dae573d6000803e3d6000fd5b505050506040513d601f19601f82011682018060405250810190611dd291906145f3565b6040516322b4b91b60e11b815260048101869052602481018590526001600160a01b0384811660448301529190911690634569723690606401602060405180830381865afa158015611e28573d6000803e3d6000fd5b505050506040513d601f19601f82011682018060405250810190611e4c9190614872565b905060008111611e9e5760405162461bcd60e51b815260206004820152601560248201527f496e76616c6964206465706f73697420746f6b656e00000000000000000000006044820152606401610761565b611eb36001600160a01b038316333084613081565b60008481526101916020908152604080832086845282528083206001600160a01b038616845290915281208054839290611eee908490614648565b909155505060408051338152602081018390526001600160a01b03841691859187917f3360a6f28beae2ecd8c3c807e274aaae13fd8264155337e6d0535a44468f0942910161118e565b6033546001600160a01b0316331480611fd9575061019860009054906101000a90046001600160a01b03166001600160a01b031663da0907556040518163ffffffff1660e01b8152600401602060405180830381865afa158015611fa0573d6000803e3d6000fd5b505050506040513d601f19601f82011682018060405250810190611fc491906145f3565b6001600160a01b0316336001600160a01b0316145b6120255760405162461bcd60e51b815260206004820152601a60248201527f4f6e6c79206f776e6572206f722047616d6552656769737472790000000000006044820152606401610761565b61019860009054906101000a90046001600160a01b03166001600160a01b031663da0907556040518163ffffffff1660e01b8152600401602060405180830381865afa158015612079573d6000803e3d6000fd5b505050506040513d601f19601f8201168201806040525081019061209d91906145f3565b6040516339ff00bd60e01b8152600481018a90526001600160a01b03888116602483015291909116906339ff00bd90604401602060405180830381865afa1580156120ec573d6000803e3d6000fd5b505050506040513d601f19601f820116820180604052508101906121109190614610565b61215c5760405162461bcd60e51b815260206004820152601d60248201527f446973616c6c6f77656420646973747269627574696f6e20746f6b656e0000006044820152606401610761565b6001600160a01b0386166121ab5760405162461bcd60e51b8152602060048201526016602482015275556e6578706563746564204e4654206164647265737360501b6044820152606401610761565b846102d114806121bc575084610483145b6121fe5760405162461bcd60e51b8152602060048201526013602482015272556e6578706563746564204e4654207479706560681b6044820152606401610761565b82811461224d5760405162461bcd60e51b815260206004820152601760248201527f4d69736d617463686564206465706f73697420646174610000000000000000006044820152606401610761565b6000856102d11415612488576040516301ffc9a760e01b81526380ac58cd60e01b60048201526001600160a01b038816906301ffc9a790602401602060405180830381865afa1580156122a4573d6000803e3d6000fd5b505050506040513d601f19601f820116820180604052508101906122c89190614610565b61230d5760405162461bcd60e51b8152602060048201526016602482015275556e6578706563746564204e4654206164647265737360501b6044820152606401610761565b60005b8481101561243c57876001600160a01b03166342842e0e8c3089898681811061233b5761233b614660565b6040516001600160e01b031960e088901b1681526001600160a01b03958616600482015294909316602485015250602090910201356044820152606401600060405180830381600087803b15801561239257600080fd5b505af11580156123a6573d6000803e3d6000fd5b50505060008b8152610196602090815260408083208d845282528083206001600160a01b038d168452909152812060019250908888858181106123eb576123eb614660565b9050602002013581526020019081526020016000208190555083838281811061241657612416614660565b90506020020135826124289190614648565b91508061243481614676565b915050612310565b508084146124835760405162461bcd60e51b8152602060048201526014602482015273496e76616c696420616d6f756e742076616c756560601b6044820152606401610761565b612654565b6040516301ffc9a760e01b8152636cdb3d1360e11b60048201526001600160a01b038816906301ffc9a790602401602060405180830381865afa1580156124d3573d6000803e3d6000fd5b505050506040513d601f19601f820116820180604052508101906124f79190614610565b61253c5760405162461bcd60e51b8152602060048201526016602482015275556e6578706563746564204e4654206164647265737360501b6044820152606401610761565b60408051602081018252600081529051631759616b60e11b81526001600160a01b03891691632eb2c2d691612580918e9130918b918b918b918b919060040161488b565b600060405180830381600087803b15801561259a57600080fd5b505af11580156125ae573d6000803e3d6000fd5b5050505060005b84811015612652578383828181106125cf576125cf614660565b60008d8152610196602090815260408083208f845282528083206001600160a01b038f16845282528220920293909301359290915088888581811061261657612616614660565b905060200201358152602001908152602001600020600082825461263a9190614648565b9091555081905061264a81614676565b9150506125b5565b505b866001600160a01b0316888a7f8aa5f867116bd0007022fe5e2205d78c5a5922c47331762e9e69ce2c9a8f6a95338e8b8b8b8b8b60405161269b97969594939291906148ed565b60405180910390a450505050505050505050565b60006126bb600161387e565b905080156126d3576000805461ff0019166101001790555b6126db613994565b6126e3613a07565b6126eb613a7a565b6126f3613aed565b6126fb613aed565b6001600160a01b0382166127515760405162461bcd60e51b815260206004820152601760248201527f496e76616c6964204164647265737352656769737472790000000000000000006044820152606401610761565b610198805473ffffffffffffffffffffffffffffffffffffffff19166001600160a01b03841617905580156127c0576000805461ff0019169055604051600181527f7f26b83ff96e1f2b6a682f133852f6798a09c465da95921460cefb38474024989060200160405180910390a15b5050565b600260655414156128175760405162461bcd60e51b815260206004820152601f60248201527f5265656e7472616e637947756172643a207265656e7472616e742063616c6c006044820152606401610761565b60026065556033546001600160a01b031633146128765760405162461bcd60e51b815260206004820181905260248201527f4f776e61626c653a2063616c6c6572206973206e6f7420746865206f776e65726044820152606401610761565b846102d11480612887575084610483145b6128c95760405162461bcd60e51b8152602060048201526013602482015272556e6578706563746564204e4654207479706560681b6044820152606401610761565b8281146129185760405162461bcd60e51b815260206004820152601760248201527f4d69736d617463686564206465706f73697420646174610000000000000000006044820152606401610761565b6000856102d11415612c55576040516301ffc9a760e01b81526380ac58cd60e01b60048201526001600160a01b038816906301ffc9a790602401602060405180830381865afa15801561296f573d6000803e3d6000fd5b505050506040513d601f19601f820116820180604052508101906129939190614610565b6129d85760405162461bcd60e51b8152602060048201526016602482015275556e6578706563746564204e4654206164647265737360501b6044820152606401610761565b60005b84811015612c095760008a8152610194602090815260408083208c845282528083206001600160a01b038c168452909152812090878784818110612a2157612a21614660565b602090810292909201358352508181019290925260409081016000908120548d825261019684528282208d835284528282206001600160a01b038d16835290935290812090888885818110612a7857612a78614660565b90506020020135815260200190815260200160002054612a98919061476b565b600114612ae75760405162461bcd60e51b815260206004820152601660248201527f496e73756666696369656e74204e4654207072697a65000000000000000000006044820152606401610761565b60008a8152610196602090815260408083208c845282528083206001600160a01b038c168452909152812081888885818110612b2557612b25614660565b90506020020135815260200190815260200160002081905550838382818110612b5057612b50614660565b9050602002013582612b629190614648565b9150876001600160a01b03166342842e0e308d898986818110612b8757612b87614660565b6040516001600160e01b031960e088901b1681526001600160a01b03958616600482015294909316602485015250602090910201356044820152606401600060405180830381600087803b158015612bde57600080fd5b505af1158015612bf2573d6000803e3d6000fd5b505050508080612c0190614676565b9150506129db565b50808414612c505760405162461bcd60e51b8152602060048201526014602482015273496e76616c696420616d6f756e742076616c756560601b6044820152606401610761565b612f3f565b6040516301ffc9a760e01b8152636cdb3d1360e11b60048201526001600160a01b038816906301ffc9a790602401602060405180830381865afa158015612ca0573d6000803e3d6000fd5b505050506040513d601f19601f82011682018060405250810190612cc49190614610565b612d095760405162461bcd60e51b8152602060048201526016602482015275556e6578706563746564204e4654206164647265737360501b6044820152606401610761565b60005b84811015612ec757838382818110612d2657612d26614660565b60008d8152610194602090815260408083208f845282528083206001600160a01b038f168452825282209202939093013592909150888885818110612d6d57612d6d614660565b602090810292909201358352508181019290925260409081016000908120548e825261019684528282208e835284528282206001600160a01b038e16835290935290812090898986818110612dc457612dc4614660565b90506020020135815260200190815260200160002054612de4919061476b565b1015612e325760405162461bcd60e51b815260206004820152601660248201527f496e73756666696369656e74204e4654207072697a65000000000000000000006044820152606401610761565b838382818110612e4457612e44614660565b60008d8152610196602090815260408083208f845282528083206001600160a01b038f168452825282209202939093013592909150888885818110612e8b57612e8b614660565b9050602002013581526020019081526020016000206000828254612eaf919061476b565b90915550819050612ebf81614676565b915050612d0c565b5060408051602081018252600081529051631759616b60e11b81526001600160a01b03891691632eb2c2d691612f0c9130918f918b918b918b918b919060040161488b565b600060405180830381600087803b158015612f2657600080fd5b505af1158015612f3a573d6000803e3d6000fd5b505050505b866001600160a01b0316888a7f5a8dca5c67110aaf25dc3f613084907009569128e7e31216a0802dce0db9c784338e8b8b8b8b8b604051612f8697969594939291906148ed565b60405180910390a4505060016065555050505050505050565b6033546001600160a01b03163314612ff95760405162461bcd60e51b815260206004820181905260248201527f4f776e61626c653a2063616c6c6572206973206e6f7420746865206f776e65726044820152606401610761565b6001600160a01b0381166130755760405162461bcd60e51b815260206004820152602660248201527f4f776e61626c653a206e6577206f776e657220697320746865207a65726f206160448201527f64647265737300000000000000000000000000000000000000000000000000006064820152608401610761565b61307e816137a4565b50565b6040516001600160a01b03808516602483015283166044820152606481018290526131019085906323b872dd60e01b906084015b60408051601f198184030181529190526020810180517bffffffffffffffffffffffffffffffffffffffffffffffffffffffff166001600160e01b031990931692909217909152613b58565b50505050565b6040516001600160a01b03831660248201526044810182905261313790849063a9059cbb60e01b906064016130b5565b505050565b60975460ff1661318e5760405162461bcd60e51b815260206004820152601460248201527f5061757361626c653a206e6f74207061757365640000000000000000000000006044820152606401610761565b6097805460ff191690557f5db9ee0a495bf2e6ff9c91a7834c1ba4fdd244a5e8aa4e537bd38aeae4b073aa335b6040516001600160a01b03909116815260200160405180910390a1565b610198546040805163da09075560e01b815290516000926001600160a01b03169163da0907559160048083019260209291908290030181865afa158015613223573d6000803e3d6000fd5b505050506040513d601f19601f8201168201806040525081019061324791906145f3565b90506000806000805b888110156135dd57600087878381811061326c5761326c614660565b90506020020135905060006103e861019860009054906101000a90046001600160a01b03166001600160a01b031663da0907556040518163ffffffff1660e01b8152600401602060405180830381865afa1580156132ce573d6000803e3d6000fd5b505050506040513d601f19601f820116820180604052508101906132f291906145f3565b6001600160a01b03166326232a2e6040518163ffffffff1660e01b8152600401602060405180830381865afa15801561332f573d6000803e3d6000fd5b505050506040513d601f19601f820116820180604052508101906133539190614872565b8a8a8681811061336557613365614660565b905060200201356133769190614933565b6133809190614952565b905061338c8187614648565b9550613398818361476b565b9150506000866001600160a01b031663d0dd986d8f8f6040518363ffffffff1660e01b81526004016133d4929190918252602082015260400190565b602060405180830381865afa1580156133f1573d6000803e3d6000fd5b505050506040513d601f19601f820116820180604052508101906134159190614872565b905060006103e8828b8b8781811061342f5761342f614660565b905060200201356134409190614933565b61344a9190614952565b90506134568187614648565b9550613462818461476b565b925050506000866001600160a01b03166370ca09e68f8f6040518363ffffffff1660e01b815260040161349f929190918252602082015260400190565b602060405180830381865afa1580156134bc573d6000803e3d6000fd5b505050506040513d601f19601f820116820180604052508101906134e09190614872565b905060006103e8828b8b878181106134fa576134fa614660565b9050602002013561350b9190614933565b6135159190614952565b90506135218186614648565b945061352d828461476b565b925050508061019260008f815260200190815260200160002060008e815260200190815260200160002060008b6001600160a01b03166001600160a01b0316815260200190815260200160002060008282546135899190614648565b909155506135ca90508b8b848181106135a4576135a4614660565b90506020020160208101906135b9919061456d565b6001600160a01b038b169083613107565b50806135d581614676565b915050613250565b50806135e98385614648565b6135f39190614648565b60008c8152610193602090815260408083208e845282528083206001600160a01b038c1684529091528120805490919061362e908490614648565b9091555050610198546040805163da09075560e01b81529051613715926001600160a01b03169163da0907559160048083019260209291908290030181865afa15801561367f573d6000803e3d6000fd5b505050506040513d601f19601f820116820180604052508101906136a391906145f3565b6001600160a01b031663469048406040518163ffffffff1660e01b8152600401602060405180830381865afa1580156136e0573d6000803e3d6000fd5b505050506040513d601f19601f8201168201806040525081019061370491906145f3565b6001600160a01b0389169085613107565b60405163411e407f60e11b8152600481018c905261375f906001600160a01b0386169063823c80fe906024015b602060405180830381865afa1580156136e0573d6000803e3d6000fd5b60405163f406c2d160e01b8152600481018c9052602481018b9052613797906001600160a01b0386169063f406c2d190604401613742565b5050505050505050505050565b603380546001600160a01b0383811673ffffffffffffffffffffffffffffffffffffffff19831681179093556040519116919082907f8be0079c531659141344cd1fd0a4f28419497f9722a3daafe3b4186f6b6457e090600090a35050565b60975460ff16156138495760405162461bcd60e51b815260206004820152601060248201526f14185d5cd8589b194e881c185d5cd95960821b6044820152606401610761565b6097805460ff191660011790557f62e78cea01bee320cd4e420270b5ea74000d11b0c9f74754ebdbfc544b05a2586131bb3390565b60008054610100900460ff161561390c578160ff1660011480156138a15750303b155b6139045760405162461bcd60e51b815260206004820152602e60248201527f496e697469616c697a61626c653a20636f6e747261637420697320616c72656160448201526d191e481a5b9a5d1a585b1a5e995960921b6064820152608401610761565b506000919050565b60005460ff80841691161061397a5760405162461bcd60e51b815260206004820152602e60248201527f496e697469616c697a61626c653a20636f6e747261637420697320616c72656160448201526d191e481a5b9a5d1a585b1a5e995960921b6064820152608401610761565b506000805460ff191660ff92909216919091179055600190565b600054610100900460ff166139ff5760405162461bcd60e51b815260206004820152602b60248201527f496e697469616c697a61626c653a20636f6e7472616374206973206e6f74206960448201526a6e697469616c697a696e6760a81b6064820152608401610761565b610c38613c3d565b600054610100900460ff16613a725760405162461bcd60e51b815260206004820152602b60248201527f496e697469616c697a61626c653a20636f6e7472616374206973206e6f74206960448201526a6e697469616c697a696e6760a81b6064820152608401610761565b610c38613cb1565b600054610100900460ff16613ae55760405162461bcd60e51b815260206004820152602b60248201527f496e697469616c697a61626c653a20636f6e7472616374206973206e6f74206960448201526a6e697469616c697a696e6760a81b6064820152608401610761565b610c38613d23565b600054610100900460ff16610c385760405162461bcd60e51b815260206004820152602b60248201527f496e697469616c697a61626c653a20636f6e7472616374206973206e6f74206960448201526a6e697469616c697a696e6760a81b6064820152608401610761565b6000613bad826040518060400160405280602081526020017f5361666545524332303a206c6f772d6c6576656c2063616c6c206661696c6564815250856001600160a01b0316613d9a9092919063ffffffff16565b8051909150156131375780806020019051810190613bcb9190614610565b6131375760405162461bcd60e51b815260206004820152602a60248201527f5361666545524332303a204552433230206f7065726174696f6e20646964206e60448201527f6f742073756363656564000000000000000000000000000000000000000000006064820152608401610761565b600054610100900460ff16613ca85760405162461bcd60e51b815260206004820152602b60248201527f496e697469616c697a61626c653a20636f6e7472616374206973206e6f74206960448201526a6e697469616c697a696e6760a81b6064820152608401610761565b610c38336137a4565b600054610100900460ff16613d1c5760405162461bcd60e51b815260206004820152602b60248201527f496e697469616c697a61626c653a20636f6e7472616374206973206e6f74206960448201526a6e697469616c697a696e6760a81b6064820152608401610761565b6001606555565b600054610100900460ff16613d8e5760405162461bcd60e51b815260206004820152602b60248201527f496e697469616c697a61626c653a20636f6e7472616374206973206e6f74206960448201526a6e697469616c697a696e6760a81b6064820152608401610761565b6097805460ff19169055565b6060613da98484600085613db3565b90505b9392505050565b606082471015613e2b5760405162461bcd60e51b815260206004820152602660248201527f416464726573733a20696e73756666696369656e742062616c616e636520666f60448201527f722063616c6c00000000000000000000000000000000000000000000000000006064820152608401610761565b6001600160a01b0385163b613e825760405162461bcd60e51b815260206004820152601d60248201527f416464726573733a2063616c6c20746f206e6f6e2d636f6e74726163740000006044820152606401610761565b600080866001600160a01b03168587604051613e9e9190614974565b60006040518083038185875af1925050503d8060008114613edb576040519150601f19603f3d011682016040523d82523d6000602084013e613ee0565b606091505b5091509150613ef0828286613efb565b979650505050505050565b60608315613f0a575081613dac565b825115613f1a5782518084602001fd5b8160405162461bcd60e51b81526004016107619190614990565b600060208284031215613f4657600080fd5b81356001600160e01b031981168114613dac57600080fd5b6001600160a01b038116811461307e57600080fd5b634e487b7160e01b600052604160045260246000fd5b604051601f8201601f1916810167ffffffffffffffff81118282101715613fb257613fb2613f73565b604052919050565b600082601f830112613fcb57600080fd5b813567ffffffffffffffff811115613fe557613fe5613f73565b613ff8601f8201601f1916602001613f89565b81815284602083860101111561400d57600080fd5b816020850160208301376000918101602001919091529392505050565b6000806000806080858703121561404057600080fd5b843561404b81613f5e565b9350602085013561405b81613f5e565b925060408501359150606085013567ffffffffffffffff81111561407e57600080fd5b61408a87828801613fba565b91505092959194509250565b600080600080600060a086880312156140ae57600080fd5b85356140b981613f5e565b9450602086013593506040860135925060608601356140d781613f5e565b949793965091946080013592915050565b6000806000606084860312156140fd57600080fd5b8335925060208401359150604084013561411681613f5e565b809150509250925092565b60008083601f84011261413357600080fd5b50813567ffffffffffffffff81111561414b57600080fd5b6020830191508360208260051b850101111561416657600080fd5b9250929050565b60008060008060006060868803121561418557600080fd5b853567ffffffffffffffff8082111561419d57600080fd5b6141a989838a01614121565b909750955060208801359150808211156141c257600080fd5b506141cf88828901614121565b90945092505060408601356141e381613f5e565b809150509295509295909350565b6000806000806080858703121561420757600080fd5b8435935060208501359250604085013561422081613f5e565b9396929550929360600135925050565b600080600080600080600060a0888a03121561424b57600080fd5b8735965060208801359550604088013567ffffffffffffffff8082111561427157600080fd5b61427d8b838c01614121565b909750955060608a0135915061429282613f5e565b909350608089013590808211156142a857600080fd5b506142b58a828b01614121565b989b979a50959850939692959293505050565b60008060008060008060008060008060e08b8d0312156142e757600080fd5b8a35995060208b0135985060408b013567ffffffffffffffff8082111561430d57600080fd5b6143198e838f01614121565b909a50985060608d0135915061432e82613f5e565b90965060808c0135955060a08c0135908082111561434b57600080fd5b6143578e838f01614121565b909650945060c08d013591508082111561437057600080fd5b5061437d8d828e01614121565b915080935050809150509295989b9194979a5092959850565b600080600080600080600080600060e08a8c0312156143b457600080fd5b89356143bf81613f5e565b985060208a0135975060408a0135965060608a01356143dd81613f5e565b955060808a0135945060a08a013567ffffffffffffffff8082111561440157600080fd5b61440d8d838e01614121565b909650945060c08c013591508082111561442657600080fd5b506144338c828d01614121565b915080935050809150509295985092959850929598565b600082601f83011261445b57600080fd5b8135602067ffffffffffffffff82111561447757614477613f73565b8160051b614486828201613f89565b92835284810182019282810190878511156144a057600080fd5b83870192505b84831015613ef0578235825291830191908301906144a6565b600080600080600060a086880312156144d757600080fd5b85356144e281613f5e565b945060208601356144f281613f5e565b9350604086013567ffffffffffffffff8082111561450f57600080fd5b61451b89838a0161444a565b9450606088013591508082111561453157600080fd5b61453d89838a0161444a565b9350608088013591508082111561455357600080fd5b5061456088828901613fba565b9150509295509295909350565b60006020828403121561457f57600080fd5b8135613dac81613f5e565b600080600080600060a086880312156145a257600080fd5b85356145ad81613f5e565b945060208601356145bd81613f5e565b93506040860135925060608601359150608086013567ffffffffffffffff8111156145e757600080fd5b61456088828901613fba565b60006020828403121561460557600080fd5b8151613dac81613f5e565b60006020828403121561462257600080fd5b81518015158114613dac57600080fd5b634e487b7160e01b600052601160045260246000fd5b6000821982111561465b5761465b614632565b500190565b634e487b7160e01b600052603260045260246000fd5b600060001982141561468a5761468a614632565b5060010190565b8183526000602080850194508260005b858110156146cf5781356146b481613f5e565b6001600160a01b0316875295820195908201906001016146a1565b509495945050505050565b81835260007f07ffffffffffffffffffffffffffffffffffffffffffffffffffffffffffffff83111561470c57600080fd5b8260051b8083602087013760009401602001938452509192915050565b6001600160a01b038616815260606020820152600061474c606083018688614691565b828103604084015261475f8185876146da565b98975050505050505050565b60008282101561477d5761477d614632565b500390565b60005b8381101561479d578181015183820152602001614785565b838111156131015750506000910152565b600081518084526147c6816020860160208601614782565b601f01601f19169290920160200192915050565b60006001600160a01b03808816835280871660208401525084604083015283606083015260a06080830152613ef060a08301846147ae565b6001600160a01b038916815260a06020820152600061483560a08301898b614691565b876040840152828103606084015261484e8187896146da565b905082810360808401526148638185876146da565b9b9a5050505050505050505050565b60006020828403121561488457600080fd5b5051919050565b60006001600160a01b03808a16835280891660208401525060a060408301526148b860a0830187896146da565b82810360608401526148cb8186886146da565b905082810360808401526148df81856147ae565b9a9950505050505050505050565b60006001600160a01b03808a16835280891660208401525086604083015260a0606083015261492060a0830186886146da565b82810360808401526148df8185876146da565b600081600019048311821515161561494d5761494d614632565b500290565b60008261496f57634e487b7160e01b600052601260045260246000fd5b500490565b60008251614986818460208701614782565b9190910192915050565b602081526000613dac60208301846147ae56fea2646970667358221220d11fce097057a3cf1a574d7ca564b0e055ea7d9d68e98250d85c98e84369bbb664736f6c634300080b0033",
  "devdoc": {
    "author": "David Lee",
    "kind": "dev",
    "methods": {
      "deposit(uint256,uint256,address)": {
        "details": "Only tokens registered in GameRegistry with an amount greater than zero is valid for the deposit",
        "params": {
          "_gid": "Game ID",
          "_tid": "Tournament ID",
          "_token": "Token address to deposit"
        }
      },
      "depositNFTPrize(address,uint256,uint256,address,uint256,uint256[],uint256[])": {
        "details": "NFT type should be either 721 or 1155",
        "params": {
          "_amounts": "Token amount list",
          "_from": "NFT owner address",
          "_gid": "Game ID",
          "_nftAddress": "NFT address",
          "_nftType": "NFT type (721/1155)",
          "_tid": "Tournament ID",
          "_tokenIds": "Token Id list"
        }
      },
      "depositPrize(address,uint256,uint256,address,uint256)": {
        "details": "Only tokens which are allowed as a distributable token can be deposited",
        "params": {
          "_amount": "Prize amount to deposit",
          "_depositor": "Depositor address",
          "_gid": "Game ID",
          "_tid": "Tournament ID",
          "_token": "Prize token address"
        }
      },
      "distributeNFTPrize(uint256,uint256,address[],address,uint256,uint256[],uint256[])": {
        "details": "Only maintainerNFT type should be either 721 or 1155",
        "params": {
          "_amounts": "Token amount list",
          "_gid": "Game ID",
          "_nftAddress": "NFT address",
          "_nftType": "NFT type (721/1155)",
          "_tid": "Tournament ID",
          "_tokenIds": "Token Id list",
          "_winners": "Winners list"
        }
      },
      "distributePrize(uint256,uint256,address[],address,uint256[])": {
        "details": "Only maintainerThe maximum distributable prize amount is the sum of the users' deposit and the prize that the owner deposited",
        "params": {
          "_amounts": "Prize list",
          "_gid": "Game ID",
          "_tid": "Tournament ID",
          "_token": "Prize token address",
          "_winners": "Winners list"
        }
      },
      "onERC721Received(address,address,uint256,bytes)": {
        "details": "See {IERC721Receiver-onERC721Received}. Always returns `IERC721Receiver.onERC721Received.selector`."
      },
      "owner()": {
        "details": "Returns the address of the current owner."
      },
      "pause()": {
        "details": "Only owner"
      },
      "paused()": {
        "details": "Returns true if the contract is paused, and false otherwise."
      },
      "renounceOwnership()": {
        "details": "Leaves the contract without owner. It will not be possible to call `onlyOwner` functions anymore. Can only be called by the current owner. NOTE: Renouncing ownership will leave the contract without an owner, thereby removing any functionality that is only available to the owner."
      },
      "supportsInterface(bytes4)": {
        "details": "See {IERC165-supportsInterface}."
      },
      "transferOwnership(address)": {
        "details": "Transfers ownership of the contract to a new account (`newOwner`). Can only be called by the current owner."
      },
      "unpause()": {
        "details": "Only owner"
      },
      "withdraw(address[],uint256[],address)": {
        "details": "Only owner",
        "params": {
          "_amounts": "Token amounts",
          "_beneficiary": "Beneficiary address",
          "_tokens": "Token addresses"
        }
      },
      "withdrawNFTPrize(address,uint256,uint256,address,uint256,uint256[],uint256[])": {
        "details": "Only ownerNFT type should be either 721 or 1155",
        "params": {
          "_amounts": "Token amount list",
          "_gid": "Game ID",
          "_nftAddress": "NFT address",
          "_nftType": "NFT type (721/1155)",
          "_tid": "Tournament ID",
          "_to": "NFT receiver address",
          "_tokenIds": "Token Id list"
        }
      },
      "withdrawPrize(uint256,uint256,address,uint256)": {
        "details": "Only owner",
        "params": {
          "_amount": "Prize amount to withdraw",
          "_gid": "Game ID",
          "_tid": "Tournament ID",
          "_token": "Prize token address"
        }
      }
    },
    "stateVariables": {
      "addressRegistry": {
        "details": "AddressRegistry"
      },
      "totalNFTPrizeDeposit": {
        "details": "Game ID -> Tournament ID -> NFT Address -> Token ID -> Deposit Amount"
      },
      "totalNFTPrizeDistribution": {
        "details": "Game ID -> Tournament ID -> NFT Address -> Token ID -> Distribution Amount"
      },
      "totalPrizeDeposit": {
        "details": "Game ID -> Tournament ID -> Token Address -> Total Prize Deposit Amount"
      },
      "totalPrizeDistribution": {
        "details": "Game ID -> Tournament ID -> Token Address -> Total Prize Distribution Amount excluding Fee"
      },
      "totalPrizeFee": {
        "details": "Game ID -> Tournament ID -> Token Address -> Total Prize Fee Amount"
      },
      "totalUserDeposit": {
        "details": "Game ID -> Tournament ID -> Token Address -> Total User Deposit Amount"
      },
      "totalWithdrawAmount": {
        "details": "Token Address -> Total Withdraw Amount"
      }
    },
    "title": "Oparcade",
    "version": 1
  },
  "userdoc": {
    "kind": "user",
    "methods": {
      "deposit(uint256,uint256,address)": {
        "notice": "Deposit ERC20 tokens from user"
      },
      "depositNFTPrize(address,uint256,uint256,address,uint256,uint256[],uint256[])": {
        "notice": "Deposit NFT prize for the specific game/tournament"
      },
      "depositPrize(address,uint256,uint256,address,uint256)": {
        "notice": "Deposit the prize tokens for the specific game/tournament"
      },
      "distributeNFTPrize(uint256,uint256,address[],address,uint256,uint256[],uint256[])": {
        "notice": "Distribute winners NFT prizes"
      },
      "distributePrize(uint256,uint256,address[],address,uint256[])": {
        "notice": "Distribute winners their prizes"
      },
      "pause()": {
        "notice": "Pause Oparcade"
      },
      "unpause()": {
        "notice": "Resume Oparcade"
      },
      "withdraw(address[],uint256[],address)": {
        "notice": "Withdraw tokens"
      },
      "withdrawNFTPrize(address,uint256,uint256,address,uint256,uint256[],uint256[])": {
        "notice": "Withdraw NFT prize for the specific game/tournament"
      },
      "withdrawPrize(uint256,uint256,address,uint256)": {
        "notice": "Withdraw the prize tokens from the specific game/tournament"
      }
    },
    "notice": "This contract manages token deposit/distribution from/to the users playing the game/tournament",
    "version": 1
  },
  "storageLayout": {
    "storage": [
      {
        "astId": 130,
        "contract": "contracts/Oparcade.sol:Oparcade",
        "label": "_initialized",
        "offset": 0,
        "slot": "0",
        "type": "t_uint8"
      },
      {
        "astId": 133,
        "contract": "contracts/Oparcade.sol:Oparcade",
        "label": "_initializing",
        "offset": 1,
        "slot": "0",
        "type": "t_bool"
      },
      {
        "astId": 1490,
        "contract": "contracts/Oparcade.sol:Oparcade",
        "label": "__gap",
        "offset": 0,
        "slot": "1",
        "type": "t_array(t_uint256)50_storage"
      },
      {
        "astId": 10,
        "contract": "contracts/Oparcade.sol:Oparcade",
        "label": "_owner",
        "offset": 0,
        "slot": "51",
        "type": "t_address"
      },
      {
        "astId": 122,
        "contract": "contracts/Oparcade.sol:Oparcade",
        "label": "__gap",
        "offset": 0,
        "slot": "52",
        "type": "t_array(t_uint256)49_storage"
      },
      {
        "astId": 390,
        "contract": "contracts/Oparcade.sol:Oparcade",
        "label": "_status",
        "offset": 0,
        "slot": "101",
        "type": "t_uint256"
      },
      {
        "astId": 434,
        "contract": "contracts/Oparcade.sol:Oparcade",
        "label": "__gap",
        "offset": 0,
        "slot": "102",
        "type": "t_array(t_uint256)49_storage"
      },
      {
        "astId": 286,
        "contract": "contracts/Oparcade.sol:Oparcade",
        "label": "_paused",
        "offset": 0,
        "slot": "151",
        "type": "t_bool"
      },
      {
        "astId": 375,
        "contract": "contracts/Oparcade.sol:Oparcade",
        "label": "__gap",
        "offset": 0,
        "slot": "152",
        "type": "t_array(t_uint256)49_storage"
      },
      {
        "astId": 1205,
        "contract": "contracts/Oparcade.sol:Oparcade",
        "label": "__gap",
        "offset": 0,
        "slot": "201",
        "type": "t_array(t_uint256)50_storage"
      },
      {
        "astId": 1534,
        "contract": "contracts/Oparcade.sol:Oparcade",
        "label": "__gap",
        "offset": 0,
        "slot": "251",
        "type": "t_array(t_uint256)50_storage"
      },
      {
        "astId": 722,
        "contract": "contracts/Oparcade.sol:Oparcade",
        "label": "__gap",
        "offset": 0,
        "slot": "301",
        "type": "t_array(t_uint256)50_storage"
      },
      {
        "astId": 668,
        "contract": "contracts/Oparcade.sol:Oparcade",
        "label": "__gap",
        "offset": 0,
        "slot": "351",
        "type": "t_array(t_uint256)50_storage"
      },
      {
        "astId": 6742,
        "contract": "contracts/Oparcade.sol:Oparcade",
        "label": "totalUserDeposit",
        "offset": 0,
        "slot": "401",
        "type": "t_mapping(t_uint256,t_mapping(t_uint256,t_mapping(t_address,t_uint256)))"
      },
      {
        "astId": 6751,
        "contract": "contracts/Oparcade.sol:Oparcade",
        "label": "totalPrizeDistribution",
        "offset": 0,
        "slot": "402",
        "type": "t_mapping(t_uint256,t_mapping(t_uint256,t_mapping(t_address,t_uint256)))"
      },
      {
        "astId": 6760,
        "contract": "contracts/Oparcade.sol:Oparcade",
        "label": "totalPrizeFee",
        "offset": 0,
        "slot": "403",
        "type": "t_mapping(t_uint256,t_mapping(t_uint256,t_mapping(t_address,t_uint256)))"
      },
      {
        "astId": 6771,
        "contract": "contracts/Oparcade.sol:Oparcade",
        "label": "totalNFTPrizeDistribution",
        "offset": 0,
        "slot": "404",
        "type": "t_mapping(t_uint256,t_mapping(t_uint256,t_mapping(t_address,t_mapping(t_uint256,t_uint256))))"
      },
      {
        "astId": 6780,
        "contract": "contracts/Oparcade.sol:Oparcade",
        "label": "totalPrizeDeposit",
        "offset": 0,
        "slot": "405",
        "type": "t_mapping(t_uint256,t_mapping(t_uint256,t_mapping(t_address,t_uint256)))"
      },
      {
        "astId": 6791,
        "contract": "contracts/Oparcade.sol:Oparcade",
        "label": "totalNFTPrizeDeposit",
        "offset": 0,
        "slot": "406",
        "type": "t_mapping(t_uint256,t_mapping(t_uint256,t_mapping(t_address,t_mapping(t_uint256,t_uint256))))"
      },
      {
        "astId": 6796,
        "contract": "contracts/Oparcade.sol:Oparcade",
        "label": "totalWithdrawAmount",
        "offset": 0,
        "slot": "407",
        "type": "t_mapping(t_address,t_uint256)"
      },
      {
        "astId": 6800,
        "contract": "contracts/Oparcade.sol:Oparcade",
        "label": "addressRegistry",
        "offset": 0,
        "slot": "408",
        "type": "t_contract(IAddressRegistry)8223"
      }
    ],
    "types": {
      "t_address": {
        "encoding": "inplace",
        "label": "address",
        "numberOfBytes": "20"
      },
      "t_array(t_uint256)49_storage": {
        "base": "t_uint256",
        "encoding": "inplace",
        "label": "uint256[49]",
        "numberOfBytes": "1568"
      },
      "t_array(t_uint256)50_storage": {
        "base": "t_uint256",
        "encoding": "inplace",
        "label": "uint256[50]",
        "numberOfBytes": "1600"
      },
      "t_bool": {
        "encoding": "inplace",
        "label": "bool",
        "numberOfBytes": "1"
      },
      "t_contract(IAddressRegistry)8223": {
        "encoding": "inplace",
        "label": "contract IAddressRegistry",
        "numberOfBytes": "20"
      },
      "t_mapping(t_address,t_mapping(t_uint256,t_uint256))": {
        "encoding": "mapping",
        "key": "t_address",
        "label": "mapping(address => mapping(uint256 => uint256))",
        "numberOfBytes": "32",
        "value": "t_mapping(t_uint256,t_uint256)"
      },
      "t_mapping(t_address,t_uint256)": {
        "encoding": "mapping",
        "key": "t_address",
        "label": "mapping(address => uint256)",
        "numberOfBytes": "32",
        "value": "t_uint256"
      },
      "t_mapping(t_uint256,t_mapping(t_address,t_mapping(t_uint256,t_uint256)))": {
        "encoding": "mapping",
        "key": "t_uint256",
        "label": "mapping(uint256 => mapping(address => mapping(uint256 => uint256)))",
        "numberOfBytes": "32",
        "value": "t_mapping(t_address,t_mapping(t_uint256,t_uint256))"
      },
      "t_mapping(t_uint256,t_mapping(t_address,t_uint256))": {
        "encoding": "mapping",
        "key": "t_uint256",
        "label": "mapping(uint256 => mapping(address => uint256))",
        "numberOfBytes": "32",
        "value": "t_mapping(t_address,t_uint256)"
      },
      "t_mapping(t_uint256,t_mapping(t_uint256,t_mapping(t_address,t_mapping(t_uint256,t_uint256))))": {
        "encoding": "mapping",
        "key": "t_uint256",
        "label": "mapping(uint256 => mapping(uint256 => mapping(address => mapping(uint256 => uint256))))",
        "numberOfBytes": "32",
        "value": "t_mapping(t_uint256,t_mapping(t_address,t_mapping(t_uint256,t_uint256)))"
      },
      "t_mapping(t_uint256,t_mapping(t_uint256,t_mapping(t_address,t_uint256)))": {
        "encoding": "mapping",
        "key": "t_uint256",
        "label": "mapping(uint256 => mapping(uint256 => mapping(address => uint256)))",
        "numberOfBytes": "32",
        "value": "t_mapping(t_uint256,t_mapping(t_address,t_uint256))"
      },
      "t_mapping(t_uint256,t_uint256)": {
        "encoding": "mapping",
        "key": "t_uint256",
        "label": "mapping(uint256 => uint256)",
        "numberOfBytes": "32",
        "value": "t_uint256"
      },
      "t_uint256": {
        "encoding": "inplace",
        "label": "uint256",
        "numberOfBytes": "32"
      },
      "t_uint8": {
        "encoding": "inplace",
        "label": "uint8",
        "numberOfBytes": "1"
      }
    }
  }
}