{
  "address": "0x082cf025D1bA48DC9434bebFcf921E341c6fdC67",
  "abi": [
    {
      "anonymous": false,
      "inputs": [
        {
          "indexed": true,
          "internalType": "address",
          "name": "by",
          "type": "address"
        },
        {
          "indexed": true,
          "internalType": "uint256",
          "name": "gid",
          "type": "uint256"
        },
        {
          "indexed": true,
          "internalType": "uint256",
          "name": "tid",
          "type": "uint256"
        },
        {
          "indexed": false,
          "internalType": "address",
          "name": "token",
          "type": "address"
        },
        {
          "indexed": false,
          "internalType": "uint256",
          "name": "amount",
          "type": "uint256"
        }
      ],
      "name": "Deposit",
      "type": "event"
    },
    {
      "anonymous": false,
      "inputs": [
        {
          "indexed": true,
          "internalType": "address",
          "name": "by",
          "type": "address"
        },
        {
          "indexed": false,
          "internalType": "address",
          "name": "winner",
          "type": "address"
        },
        {
          "indexed": true,
          "internalType": "uint256",
          "name": "gid",
          "type": "uint256"
        },
        {
          "indexed": true,
          "internalType": "uint256",
          "name": "tid",
          "type": "uint256"
        },
        {
          "indexed": false,
          "internalType": "address",
          "name": "token",
          "type": "address"
        },
        {
          "indexed": false,
          "internalType": "uint256",
          "name": "amount",
          "type": "uint256"
        }
      ],
      "name": "Distribute",
      "type": "event"
    },
    {
      "anonymous": false,
      "inputs": [
        {
          "indexed": true,
          "internalType": "address",
          "name": "previousOwner",
          "type": "address"
        },
        {
          "indexed": true,
          "internalType": "address",
          "name": "newOwner",
          "type": "address"
        }
      ],
      "name": "OwnershipTransferred",
      "type": "event"
    },
    {
      "anonymous": false,
      "inputs": [
        {
          "indexed": false,
          "internalType": "address",
          "name": "account",
          "type": "address"
        }
      ],
      "name": "Paused",
      "type": "event"
    },
    {
      "anonymous": false,
      "inputs": [
        {
          "indexed": true,
          "internalType": "address",
          "name": "by",
          "type": "address"
        },
        {
          "indexed": true,
          "internalType": "address",
          "name": "oldFeeRecipient",
          "type": "address"
        },
        {
          "indexed": false,
          "internalType": "uint256",
          "name": "oldPlatformFee",
          "type": "uint256"
        },
        {
          "indexed": true,
          "internalType": "address",
          "name": "newFeeRecipient",
          "type": "address"
        },
        {
          "indexed": false,
          "internalType": "uint256",
          "name": "newPlatformFee",
          "type": "uint256"
        }
      ],
      "name": "PlatformFeeUpdated",
      "type": "event"
    },
    {
      "anonymous": false,
      "inputs": [
        {
          "indexed": false,
          "internalType": "address",
          "name": "account",
          "type": "address"
        }
      ],
      "name": "Unpaused",
      "type": "event"
    },
    {
      "inputs": [],
      "name": "addressRegistry",
      "outputs": [
        {
          "internalType": "contract IAddressRegistry",
          "name": "",
          "type": "address"
        }
      ],
      "stateMutability": "view",
      "type": "function"
    },
    {
      "inputs": [
        {
          "internalType": "uint256",
          "name": "_gid",
          "type": "uint256"
        },
        {
          "internalType": "uint256",
          "name": "_tid",
          "type": "uint256"
        },
        {
          "internalType": "address",
          "name": "_token",
          "type": "address"
        }
      ],
      "name": "deposit",
      "outputs": [],
      "stateMutability": "nonpayable",
      "type": "function"
    },
    {
      "inputs": [
        {
          "internalType": "uint256",
          "name": "_gid",
          "type": "uint256"
        },
        {
          "internalType": "uint256",
          "name": "_tid",
          "type": "uint256"
        },
        {
          "internalType": "address[]",
          "name": "_winners",
          "type": "address[]"
        },
        {
          "internalType": "address",
          "name": "_token",
          "type": "address"
        },
        {
          "internalType": "uint256[]",
          "name": "_amounts",
          "type": "uint256[]"
        }
      ],
      "name": "distribute",
      "outputs": [],
      "stateMutability": "nonpayable",
      "type": "function"
    },
    {
      "inputs": [],
      "name": "feeRecipient",
      "outputs": [
        {
          "internalType": "address",
          "name": "",
          "type": "address"
        }
      ],
      "stateMutability": "view",
      "type": "function"
    },
    {
      "inputs": [
        {
          "internalType": "address",
          "name": "_addressRegistry",
          "type": "address"
        },
        {
          "internalType": "address",
          "name": "_feeRecipient",
          "type": "address"
        },
        {
          "internalType": "uint16",
          "name": "_platformFee",
          "type": "uint16"
        }
      ],
      "name": "initialize",
      "outputs": [],
      "stateMutability": "nonpayable",
      "type": "function"
    },
    {
      "inputs": [],
      "name": "owner",
      "outputs": [
        {
          "internalType": "address",
          "name": "",
          "type": "address"
        }
      ],
      "stateMutability": "view",
      "type": "function"
    },
    {
      "inputs": [],
      "name": "pause",
      "outputs": [],
      "stateMutability": "nonpayable",
      "type": "function"
    },
    {
      "inputs": [],
      "name": "paused",
      "outputs": [
        {
          "internalType": "bool",
          "name": "",
          "type": "bool"
        }
      ],
      "stateMutability": "view",
      "type": "function"
    },
    {
      "inputs": [],
      "name": "platformFee",
      "outputs": [
        {
          "internalType": "uint16",
          "name": "",
          "type": "uint16"
        }
      ],
      "stateMutability": "view",
      "type": "function"
    },
    {
      "inputs": [],
      "name": "renounceOwnership",
      "outputs": [],
      "stateMutability": "nonpayable",
      "type": "function"
    },
    {
      "inputs": [
        {
          "internalType": "uint256",
          "name": "",
          "type": "uint256"
        },
        {
          "internalType": "uint256",
          "name": "",
          "type": "uint256"
        },
        {
          "internalType": "address",
          "name": "",
          "type": "address"
        }
      ],
      "name": "totalDeposit",
      "outputs": [
        {
          "internalType": "uint256",
          "name": "",
          "type": "uint256"
        }
      ],
      "stateMutability": "view",
      "type": "function"
    },
    {
      "inputs": [
        {
          "internalType": "uint256",
          "name": "",
          "type": "uint256"
        },
        {
          "internalType": "uint256",
          "name": "",
          "type": "uint256"
        },
        {
          "internalType": "address",
          "name": "",
          "type": "address"
        }
      ],
      "name": "totalDistribution",
      "outputs": [
        {
          "internalType": "uint256",
          "name": "",
          "type": "uint256"
        }
      ],
      "stateMutability": "view",
      "type": "function"
    },
    {
      "inputs": [
        {
          "internalType": "address",
          "name": "newOwner",
          "type": "address"
        }
      ],
      "name": "transferOwnership",
      "outputs": [],
      "stateMutability": "nonpayable",
      "type": "function"
    },
    {
      "inputs": [],
      "name": "unpause",
      "outputs": [],
      "stateMutability": "nonpayable",
      "type": "function"
    },
    {
      "inputs": [
        {
          "internalType": "address",
          "name": "_feeRecipient",
          "type": "address"
        },
        {
          "internalType": "uint16",
          "name": "_platformFee",
          "type": "uint16"
        }
      ],
      "name": "updatePlatformFee",
      "outputs": [],
      "stateMutability": "nonpayable",
      "type": "function"
    },
    {
      "stateMutability": "payable",
      "type": "receive"
    }
  ],
  "transactionHash": "0xd20b32845664340fe70f3c1d9d400f4ae201d01aa7b70f35632040791b8e29f2",
  "args": [],
  "numDeployments": 2,
  "solcInputHash": "568e4b159b5ff8abde9f161b565dc9fb",
  "bytecode": "0x608060405234801561001057600080fd5b50611eca806100206000396000f3fe6080604052600436106100ec5760003560e01c80637f3917e91161008a578063e041fada11610059578063e041fada14610298578063e62ad9f2146102d6578063f2fde38b146102f6578063f3ad65f41461031657600080fd5b80637f3917e9146102255780638456cb59146102455780638da5cb5b1461025a5780638dbdbe6d1461027857600080fd5b80635c975abb116100c65780635c975abb14610181578063715018a6146101a4578063798884c6146101b95780637ebef5291461020557600080fd5b806326232a2e146100f85780633f4ba83a14610132578063469048401461014957600080fd5b366100f357005b600080fd5b34801561010457600080fd5b5060cb5461011a90600160a01b900461ffff1681565b60405161ffff90911681526020015b60405180910390f35b34801561013e57600080fd5b50610147610336565b005b34801561015557600080fd5b5060cc54610169906001600160a01b031681565b6040516001600160a01b039091168152602001610129565b34801561018d57600080fd5b5060975460ff166040519015158152602001610129565b3480156101b057600080fd5b5061014761039f565b3480156101c557600080fd5b506101f76101d4366004611a67565b60c960209081526000938452604080852082529284528284209052825290205481565b604051908152602001610129565b34801561021157600080fd5b50610147610220366004611ab2565b610403565b34801561023157600080fd5b50610147610240366004611bcf565b610648565b34801561025157600080fd5b50610147610b6f565b34801561026657600080fd5b506033546001600160a01b0316610169565b34801561028457600080fd5b50610147610293366004611a67565b610bd1565b3480156102a457600080fd5b506101f76102b3366004611a67565b60ca60209081526000938452604080852082529284528284209052825290205481565b3480156102e257600080fd5b506101476102f1366004611cb8565b610e43565b34801561030257600080fd5b50610147610311366004611ced565b61101f565b34801561032257600080fd5b5060cb54610169906001600160a01b031681565b6033546001600160a01b031633146103955760405162461bcd60e51b815260206004820181905260248201527f4f776e61626c653a2063616c6c6572206973206e6f7420746865206f776e657260448201526064015b60405180910390fd5b61039d611101565b565b6033546001600160a01b031633146103f95760405162461bcd60e51b815260206004820181905260248201527f4f776e61626c653a2063616c6c6572206973206e6f7420746865206f776e6572604482015260640161038c565b61039d600061119d565b600054610100900460ff168061041c575060005460ff16155b61047f5760405162461bcd60e51b815260206004820152602e60248201527f496e697469616c697a61626c653a20636f6e747261637420697320616c72656160448201526d191e481a5b9a5d1a585b1a5e995960921b606482015260840161038c565b600054610100900460ff161580156104a1576000805461ffff19166101011790555b6104a96111fc565b6104b16112be565b6104b9611364565b6001600160a01b03841661050f5760405162461bcd60e51b815260206004820152601760248201527f496e76616c696420416464726573735265676973747279000000000000000000604482015260640161038c565b6001600160a01b038316151580610528575061ffff8216155b6105745760405162461bcd60e51b815260206004820152601560248201527f46656520726563697069656e74206e6f74207365740000000000000000000000604482015260640161038c565b6103e88261ffff1611156105ca5760405162461bcd60e51b815260206004820152601560248201527f506c6174666f726d206665652065786365656465640000000000000000000000604482015260640161038c565b60cb805460cc805473ffffffffffffffffffffffffffffffffffffffff19166001600160a01b038781169190911790915586167fffffffffffffffffffff0000000000000000000000000000000000000000000090911617600160a01b61ffff8516021790558015610642576000805461ff00191690555b50505050565b60975460ff161561068e5760405162461bcd60e51b815260206004820152601060248201526f14185d5cd8589b194e881c185d5cd95960821b604482015260640161038c565b60cb60009054906101000a90046001600160a01b03166001600160a01b0316639850d32b6040518163ffffffff1660e01b8152600401602060405180830381865afa1580156106e1573d6000803e3d6000fd5b505050506040513d601f19601f820116820180604052508101906107059190611d0a565b6001600160a01b0316336001600160a01b0316146107655760405162461bcd60e51b815260206004820152600f60248201527f4f6e6c79206d61696e7461696e65720000000000000000000000000000000000604482015260640161038c565b80518351146107b65760405162461bcd60e51b815260206004820152601e60248201527f4d69736d6174636865642077696e6e65727320616e6420616d6f756e74730000604482015260640161038c565b60cb60009054906101000a90046001600160a01b03166001600160a01b031663da0907556040518163ffffffff1660e01b8152600401602060405180830381865afa158015610809573d6000803e3d6000fd5b505050506040513d601f19601f8201168201806040525081019061082d9190611d0a565b6040516339ff00bd60e01b8152600481018790526001600160a01b03848116602483015291909116906339ff00bd90604401602060405180830381865afa15801561087c573d6000803e3d6000fd5b505050506040513d601f19601f820116820180604052508101906108a09190611d27565b6108ec5760405162461bcd60e51b815260206004820152601d60248201527f446973616c6c6f77656420646973747269627574696f6e20746f6b656e000000604482015260640161038c565b60005b8351811015610ab85781818151811061090a5761090a611d49565b602090810291909101810151600088815260ca8352604080822089835284528082206001600160a01b038816835290935291822080549192909161094f908490611d75565b92505081905550826001600160a01b031663a9059cbb85838151811061097757610977611d49565b602002602001015184848151811061099157610991611d49565b60200260200101516040518363ffffffff1660e01b81526004016109ca9291906001600160a01b03929092168252602082015260400190565b6020604051808303816000875af11580156109e9573d6000803e3d6000fd5b505050506040513d601f19601f82011682018060405250810190610a0d9190611d27565b508486336001600160a01b03167f94fefb2e0117588f5b7252bfe9ebebb1b9a97033a53f0f15e7d2636991321d0e878581518110610a4d57610a4d611d49565b602002602001015187878781518110610a6857610a68611d49565b6020026020010151604051610a9e939291906001600160a01b039384168152919092166020820152604081019190915260600190565b60405180910390a480610ab081611d8d565b9150506108ef565b50600085815260c96020908152604080832087845282528083206001600160a01b0386168452909152902054610aef906002611da8565b600086815260ca6020908152604080832088845282528083206001600160a01b03871684529091529020541115610b685760405162461bcd60e51b815260206004820152601660248201527f546f74616c207061796f75747320657863656564656400000000000000000000604482015260640161038c565b5050505050565b6033546001600160a01b03163314610bc95760405162461bcd60e51b815260206004820181905260248201527f4f776e61626c653a2063616c6c6572206973206e6f7420746865206f776e6572604482015260640161038c565b61039d611412565b60975460ff1615610c175760405162461bcd60e51b815260206004820152601060248201526f14185d5cd8589b194e881c185d5cd95960821b604482015260640161038c565b60cb546040805163da09075560e01b815290516000926001600160a01b03169163da0907559160048083019260209291908290030181865afa158015610c61573d6000803e3d6000fd5b505050506040513d601f19601f82011682018060405250810190610c859190611d0a565b60405163cb8f76f360e01b8152600481018690526001600160a01b038481166024830152919091169063cb8f76f390604401602060405180830381865afa158015610cd4573d6000803e3d6000fd5b505050506040513d601f19601f82011682018060405250810190610cf89190611dc7565b905060008111610d4a5760405162461bcd60e51b815260206004820152601560248201527f496e76616c6964206465706f73697420746f6b656e0000000000000000000000604482015260640161038c565b60cb546000906103e890610d6990600160a01b900461ffff1684611da8565b610d739190611de0565b90506000610d818284611e02565b60cc54909150610da0906001600160a01b03868116913391168561148d565b610db56001600160a01b03851633308461148d565b600086815260c96020908152604080832088845282528083206001600160a01b038816845290915281208054839290610def908490611d75565b9091555050604080516001600160a01b0386168152602081018590528691889133917eab9ea1934a18c419ebd648dfd54350d24ab746230b97428774bd8d923f4eaf910160405180910390a4505050505050565b6033546001600160a01b03163314610e9d5760405162461bcd60e51b815260206004820181905260248201527f4f776e61626c653a2063616c6c6572206973206e6f7420746865206f776e6572604482015260640161038c565b6001600160a01b038216151580610eb6575061ffff8116155b610f025760405162461bcd60e51b815260206004820152601560248201527f46656520726563697069656e74206e6f74207365740000000000000000000000604482015260640161038c565b6103e88161ffff161115610f585760405162461bcd60e51b815260206004820152601560248201527f506c6174666f726d206665652065786365656465640000000000000000000000604482015260640161038c565b60cc5460cb5460408051600160a01b90920461ffff9081168352841660208301526001600160a01b0385811693169133917f41340b8520c039756fdade211d2fd26138ba0673031cebf9ae4ae32d38357062910160405180910390a460cc80546001600160a01b0390931673ffffffffffffffffffffffffffffffffffffffff199093169290921790915560cb805461ffff909216600160a01b027fffffffffffffffffffff0000ffffffffffffffffffffffffffffffffffffffff909216919091179055565b6033546001600160a01b031633146110795760405162461bcd60e51b815260206004820181905260248201527f4f776e61626c653a2063616c6c6572206973206e6f7420746865206f776e6572604482015260640161038c565b6001600160a01b0381166110f55760405162461bcd60e51b815260206004820152602660248201527f4f776e61626c653a206e6577206f776e657220697320746865207a65726f206160448201527f6464726573730000000000000000000000000000000000000000000000000000606482015260840161038c565b6110fe8161119d565b50565b60975460ff166111535760405162461bcd60e51b815260206004820152601460248201527f5061757361626c653a206e6f7420706175736564000000000000000000000000604482015260640161038c565b6097805460ff191690557f5db9ee0a495bf2e6ff9c91a7834c1ba4fdd244a5e8aa4e537bd38aeae4b073aa335b6040516001600160a01b03909116815260200160405180910390a1565b603380546001600160a01b0383811673ffffffffffffffffffffffffffffffffffffffff19831681179093556040519116919082907f8be0079c531659141344cd1fd0a4f28419497f9722a3daafe3b4186f6b6457e090600090a35050565b600054610100900460ff1680611215575060005460ff16155b6112785760405162461bcd60e51b815260206004820152602e60248201527f496e697469616c697a61626c653a20636f6e747261637420697320616c72656160448201526d191e481a5b9a5d1a585b1a5e995960921b606482015260840161038c565b600054610100900460ff1615801561129a576000805461ffff19166101011790555b6112a26114fc565b6112aa6115ad565b80156110fe576000805461ff001916905550565b600054610100900460ff16806112d7575060005460ff16155b61133a5760405162461bcd60e51b815260206004820152602e60248201527f496e697469616c697a61626c653a20636f6e747261637420697320616c72656160448201526d191e481a5b9a5d1a585b1a5e995960921b606482015260840161038c565b600054610100900460ff1615801561135c576000805461ffff19166101011790555b6112aa611654565b600054610100900460ff168061137d575060005460ff16155b6113e05760405162461bcd60e51b815260206004820152602e60248201527f496e697469616c697a61626c653a20636f6e747261637420697320616c72656160448201526d191e481a5b9a5d1a585b1a5e995960921b606482015260840161038c565b600054610100900460ff16158015611402576000805461ffff19166101011790555b61140a6114fc565b6112aa61170b565b60975460ff16156114585760405162461bcd60e51b815260206004820152601060248201526f14185d5cd8589b194e881c185d5cd95960821b604482015260640161038c565b6097805460ff191660011790557f62e78cea01bee320cd4e420270b5ea74000d11b0c9f74754ebdbfc544b05a2586111803390565b604080516001600160a01b0385811660248301528416604482015260648082018490528251808303909101815260849091019091526020810180517bffffffffffffffffffffffffffffffffffffffffffffffffffffffff166323b872dd60e01b1790526106429085906117c7565b600054610100900460ff1680611515575060005460ff16155b6115785760405162461bcd60e51b815260206004820152602e60248201527f496e697469616c697a61626c653a20636f6e747261637420697320616c72656160448201526d191e481a5b9a5d1a585b1a5e995960921b606482015260840161038c565b600054610100900460ff161580156112aa576000805461ffff191661010117905580156110fe576000805461ff001916905550565b600054610100900460ff16806115c6575060005460ff16155b6116295760405162461bcd60e51b815260206004820152602e60248201527f496e697469616c697a61626c653a20636f6e747261637420697320616c72656160448201526d191e481a5b9a5d1a585b1a5e995960921b606482015260840161038c565b600054610100900460ff1615801561164b576000805461ffff19166101011790555b6112aa3361119d565b600054610100900460ff168061166d575060005460ff16155b6116d05760405162461bcd60e51b815260206004820152602e60248201527f496e697469616c697a61626c653a20636f6e747261637420697320616c72656160448201526d191e481a5b9a5d1a585b1a5e995960921b606482015260840161038c565b600054610100900460ff161580156116f2576000805461ffff19166101011790555b600160655580156110fe576000805461ff001916905550565b600054610100900460ff1680611724575060005460ff16155b6117875760405162461bcd60e51b815260206004820152602e60248201527f496e697469616c697a61626c653a20636f6e747261637420697320616c72656160448201526d191e481a5b9a5d1a585b1a5e995960921b606482015260840161038c565b600054610100900460ff161580156117a9576000805461ffff19166101011790555b6097805460ff1916905580156110fe576000805461ff001916905550565b600061181c826040518060400160405280602081526020017f5361666545524332303a206c6f772d6c6576656c2063616c6c206661696c6564815250856001600160a01b03166118b19092919063ffffffff16565b8051909150156118ac578080602001905181019061183a9190611d27565b6118ac5760405162461bcd60e51b815260206004820152602a60248201527f5361666545524332303a204552433230206f7065726174696f6e20646964206e60448201527f6f74207375636365656400000000000000000000000000000000000000000000606482015260840161038c565b505050565b60606118c084846000856118ca565b90505b9392505050565b6060824710156119425760405162461bcd60e51b815260206004820152602660248201527f416464726573733a20696e73756666696369656e742062616c616e636520666f60448201527f722063616c6c0000000000000000000000000000000000000000000000000000606482015260840161038c565b843b6119905760405162461bcd60e51b815260206004820152601d60248201527f416464726573733a2063616c6c20746f206e6f6e2d636f6e7472616374000000604482015260640161038c565b600080866001600160a01b031685876040516119ac9190611e45565b60006040518083038185875af1925050503d80600081146119e9576040519150601f19603f3d011682016040523d82523d6000602084013e6119ee565b606091505b50915091506119fe828286611a09565b979650505050505050565b60608315611a185750816118c3565b825115611a285782518084602001fd5b8160405162461bcd60e51b815260040161038c9190611e61565b6001600160a01b03811681146110fe57600080fd5b8035611a6281611a42565b919050565b600080600060608486031215611a7c57600080fd5b83359250602084013591506040840135611a9581611a42565b809150509250925092565b803561ffff81168114611a6257600080fd5b600080600060608486031215611ac757600080fd5b8335611ad281611a42565b92506020840135611ae281611a42565b9150611af060408501611aa0565b90509250925092565b634e487b7160e01b600052604160045260246000fd5b604051601f8201601f1916810167ffffffffffffffff81118282101715611b3857611b38611af9565b604052919050565b600067ffffffffffffffff821115611b5a57611b5a611af9565b5060051b60200190565b600082601f830112611b7557600080fd5b81356020611b8a611b8583611b40565b611b0f565b82815260059290921b84018101918181019086841115611ba957600080fd5b8286015b84811015611bc45780358352918301918301611bad565b509695505050505050565b600080600080600060a08688031215611be757600080fd5b853594506020808701359450604087013567ffffffffffffffff80821115611c0e57600080fd5b818901915089601f830112611c2257600080fd5b8135611c30611b8582611b40565b81815260059190911b8301840190848101908c831115611c4f57600080fd5b938501935b82851015611c76578435611c6781611a42565b82529385019390850190611c54565b9750611c8791505060608a01611a57565b94506080890135925080831115611c9d57600080fd5b5050611cab88828901611b64565b9150509295509295909350565b60008060408385031215611ccb57600080fd5b8235611cd681611a42565b9150611ce460208401611aa0565b90509250929050565b600060208284031215611cff57600080fd5b81356118c381611a42565b600060208284031215611d1c57600080fd5b81516118c381611a42565b600060208284031215611d3957600080fd5b815180151581146118c357600080fd5b634e487b7160e01b600052603260045260246000fd5b634e487b7160e01b600052601160045260246000fd5b60008219821115611d8857611d88611d5f565b500190565b6000600019821415611da157611da1611d5f565b5060010190565b6000816000190483118215151615611dc257611dc2611d5f565b500290565b600060208284031215611dd957600080fd5b5051919050565b600082611dfd57634e487b7160e01b600052601260045260246000fd5b500490565b600082821015611e1457611e14611d5f565b500390565b60005b83811015611e34578181015183820152602001611e1c565b838111156106425750506000910152565b60008251611e57818460208701611e19565b9190910192915050565b6020815260008251806020840152611e80816040850160208701611e19565b601f01601f1916919091016040019291505056fea2646970667358221220edcdf755b160899f4adf157c103ca9bab24642f4e2c644f3180990419308e7dc64736f6c634300080b0033",
  "devdoc": {
    "author": "David Lee",
    "kind": "dev",
    "methods": {
      "deposit(uint256,uint256,address)": {
        "details": "Only tokens registered in GameRegistry with an amount greater than zero is valid for the deposit",
        "params": {
          "_gid": "Game ID",
          "_tid": "Tournament ID",
          "_token": "Token address to deposit"
        }
      },
      "distribute(uint256,uint256,address[],address,uint256[])": {
        "details": "only maintainerTotal distribution amount of the tournament of the game must be equal to/less than the double amount deposited in the tournament of the game due to the bonus",
        "params": {
          "_amounts": "Prize list",
          "_gid": "Game ID",
          "_tid": "Tournament ID",
          "_token": "Distribution token address",
          "_winners": "Winners list"
        }
      },
      "owner()": {
        "details": "Returns the address of the current owner."
      },
      "pause()": {
        "details": "Only owner"
      },
      "paused()": {
        "details": "Returns true if the contract is paused, and false otherwise."
      },
      "renounceOwnership()": {
        "details": "Leaves the contract without owner. It will not be possible to call `onlyOwner` functions anymore. Can only be called by the current owner. NOTE: Renouncing ownership will leave the contract without an owner, thereby removing any functionality that is only available to the owner."
      },
      "transferOwnership(address)": {
        "details": "Transfers ownership of the contract to a new account (`newOwner`). Can only be called by the current owner."
      },
      "unpause()": {
        "details": "Only owner"
      },
      "updatePlatformFee(address,uint16)": {
        "details": "Only ownerAllow zero recipient address only of fee is also zero",
        "params": {
          "_platformFee": "platform fee"
        }
      }
    },
    "stateVariables": {
      "addressRegistry": {
        "details": "AddressRegistry"
      },
      "feeRecipient": {
        "details": "Platform fee recipient"
      },
      "platformFee": {
        "details": "Platform fee"
      },
      "totalDeposit": {
        "details": "Game ID -> Tournament ID -> Token Address -> Total Deposit Amount excluding fees"
      },
      "totalDistribution": {
        "details": "Game ID -> Tournament ID -> Token Address -> Total Distribution Amount excluding fees"
      }
    },
    "title": "Oparcade",
    "version": 1
  },
  "userdoc": {
    "kind": "user",
    "methods": {
      "deposit(uint256,uint256,address)": {
        "notice": "Deposit ERC20 tokens from user"
      },
      "distribute(uint256,uint256,address[],address,uint256[])": {
        "notice": "Distribute winners their prizes"
      },
      "pause()": {
        "notice": "Pause Oparcade"
      },
      "unpause()": {
        "notice": "Resume Oparcade"
      },
      "updatePlatformFee(address,uint16)": {
        "notice": "Update platform fee"
      }
    },
    "notice": "This manages the token deposit/distribution from/to the users",
    "version": 1
  },
  "storageLayout": {
    "storage": [
      {
        "astId": 130,
        "contract": "contracts/Oparcade.sol:Oparcade",
        "label": "_initialized",
        "offset": 0,
        "slot": "0",
        "type": "t_bool"
      },
      {
        "astId": 133,
        "contract": "contracts/Oparcade.sol:Oparcade",
        "label": "_initializing",
        "offset": 1,
        "slot": "0",
        "type": "t_bool"
      },
      {
        "astId": 929,
        "contract": "contracts/Oparcade.sol:Oparcade",
        "label": "__gap",
        "offset": 0,
        "slot": "1",
        "type": "t_array(t_uint256)50_storage"
      },
      {
        "astId": 10,
        "contract": "contracts/Oparcade.sol:Oparcade",
        "label": "_owner",
        "offset": 0,
        "slot": "51",
        "type": "t_address"
      },
      {
        "astId": 123,
        "contract": "contracts/Oparcade.sol:Oparcade",
        "label": "__gap",
        "offset": 0,
        "slot": "52",
        "type": "t_array(t_uint256)49_storage"
      },
      {
        "astId": 297,
        "contract": "contracts/Oparcade.sol:Oparcade",
        "label": "_status",
        "offset": 0,
        "slot": "101",
        "type": "t_uint256"
      },
      {
        "astId": 340,
        "contract": "contracts/Oparcade.sol:Oparcade",
        "label": "__gap",
        "offset": 0,
        "slot": "102",
        "type": "t_array(t_uint256)49_storage"
      },
      {
        "astId": 191,
        "contract": "contracts/Oparcade.sol:Oparcade",
        "label": "_paused",
        "offset": 0,
        "slot": "151",
        "type": "t_bool"
      },
      {
        "astId": 282,
        "contract": "contracts/Oparcade.sol:Oparcade",
        "label": "__gap",
        "offset": 0,
        "slot": "152",
        "type": "t_array(t_uint256)49_storage"
      },
      {
        "astId": 1729,
        "contract": "contracts/Oparcade.sol:Oparcade",
        "label": "totalDeposit",
        "offset": 0,
        "slot": "201",
        "type": "t_mapping(t_uint256,t_mapping(t_uint256,t_mapping(t_address,t_uint256)))"
      },
      {
        "astId": 1738,
        "contract": "contracts/Oparcade.sol:Oparcade",
        "label": "totalDistribution",
        "offset": 0,
        "slot": "202",
        "type": "t_mapping(t_uint256,t_mapping(t_uint256,t_mapping(t_address,t_uint256)))"
      },
      {
        "astId": 1742,
        "contract": "contracts/Oparcade.sol:Oparcade",
        "label": "addressRegistry",
        "offset": 0,
        "slot": "203",
        "type": "t_contract(IAddressRegistry)2127"
      },
      {
        "astId": 1745,
        "contract": "contracts/Oparcade.sol:Oparcade",
        "label": "platformFee",
        "offset": 20,
        "slot": "203",
        "type": "t_uint16"
      },
      {
        "astId": 1748,
        "contract": "contracts/Oparcade.sol:Oparcade",
        "label": "feeRecipient",
        "offset": 0,
        "slot": "204",
        "type": "t_address"
      }
    ],
    "types": {
      "t_address": {
        "encoding": "inplace",
        "label": "address",
        "numberOfBytes": "20"
      },
      "t_array(t_uint256)49_storage": {
        "base": "t_uint256",
        "encoding": "inplace",
        "label": "uint256[49]",
        "numberOfBytes": "1568"
      },
      "t_array(t_uint256)50_storage": {
        "base": "t_uint256",
        "encoding": "inplace",
        "label": "uint256[50]",
        "numberOfBytes": "1600"
      },
      "t_bool": {
        "encoding": "inplace",
        "label": "bool",
        "numberOfBytes": "1"
      },
      "t_contract(IAddressRegistry)2127": {
        "encoding": "inplace",
        "label": "contract IAddressRegistry",
        "numberOfBytes": "20"
      },
      "t_mapping(t_address,t_uint256)": {
        "encoding": "mapping",
        "key": "t_address",
        "label": "mapping(address => uint256)",
        "numberOfBytes": "32",
        "value": "t_uint256"
      },
      "t_mapping(t_uint256,t_mapping(t_address,t_uint256))": {
        "encoding": "mapping",
        "key": "t_uint256",
        "label": "mapping(uint256 => mapping(address => uint256))",
        "numberOfBytes": "32",
        "value": "t_mapping(t_address,t_uint256)"
      },
      "t_mapping(t_uint256,t_mapping(t_uint256,t_mapping(t_address,t_uint256)))": {
        "encoding": "mapping",
        "key": "t_uint256",
        "label": "mapping(uint256 => mapping(uint256 => mapping(address => uint256)))",
        "numberOfBytes": "32",
        "value": "t_mapping(t_uint256,t_mapping(t_address,t_uint256))"
      },
      "t_uint16": {
        "encoding": "inplace",
        "label": "uint16",
        "numberOfBytes": "2"
      },
      "t_uint256": {
        "encoding": "inplace",
        "label": "uint256",
        "numberOfBytes": "32"
      }
    }
  }
}