{
  "address": "0xC5f677DC74Db5f566aed52abc6919f68DC3e31E1",
  "abi": [
    {
      "anonymous": false,
      "inputs": [
        {
          "indexed": true,
          "internalType": "address",
          "name": "by",
          "type": "address"
        },
        {
          "indexed": true,
          "internalType": "uint256",
          "name": "gid",
          "type": "uint256"
        },
        {
          "indexed": true,
          "internalType": "uint256",
          "name": "tid",
          "type": "uint256"
        },
        {
          "indexed": false,
          "internalType": "address",
          "name": "token",
          "type": "address"
        },
        {
          "indexed": false,
          "internalType": "uint256",
          "name": "amount",
          "type": "uint256"
        }
      ],
      "name": "Deposit",
      "type": "event"
    },
    {
      "anonymous": false,
      "inputs": [
        {
          "indexed": true,
          "internalType": "address",
          "name": "by",
          "type": "address"
        },
        {
          "indexed": false,
          "internalType": "address",
          "name": "winner",
          "type": "address"
        },
        {
          "indexed": true,
          "internalType": "uint256",
          "name": "gid",
          "type": "uint256"
        },
        {
          "indexed": true,
          "internalType": "uint256",
          "name": "tid",
          "type": "uint256"
        },
        {
          "indexed": false,
          "internalType": "address",
          "name": "token",
          "type": "address"
        },
        {
          "indexed": false,
          "internalType": "uint256",
          "name": "amount",
          "type": "uint256"
        }
      ],
      "name": "Distribute",
      "type": "event"
    },
    {
      "anonymous": false,
      "inputs": [
        {
          "indexed": true,
          "internalType": "address",
          "name": "previousOwner",
          "type": "address"
        },
        {
          "indexed": true,
          "internalType": "address",
          "name": "newOwner",
          "type": "address"
        }
      ],
      "name": "OwnershipTransferred",
      "type": "event"
    },
    {
      "anonymous": false,
      "inputs": [
        {
          "indexed": false,
          "internalType": "address",
          "name": "account",
          "type": "address"
        }
      ],
      "name": "Paused",
      "type": "event"
    },
    {
      "anonymous": false,
      "inputs": [
        {
          "indexed": true,
          "internalType": "address",
          "name": "by",
          "type": "address"
        },
        {
          "indexed": true,
          "internalType": "address",
          "name": "oldFeeRecipient",
          "type": "address"
        },
        {
          "indexed": false,
          "internalType": "uint256",
          "name": "oldPlatformFee",
          "type": "uint256"
        },
        {
          "indexed": true,
          "internalType": "address",
          "name": "newFeeRecipient",
          "type": "address"
        },
        {
          "indexed": false,
          "internalType": "uint256",
          "name": "newPlatformFee",
          "type": "uint256"
        }
      ],
      "name": "PlatformFeeUpdated",
      "type": "event"
    },
    {
      "anonymous": false,
      "inputs": [
        {
          "indexed": false,
          "internalType": "address",
          "name": "account",
          "type": "address"
        }
      ],
      "name": "Unpaused",
      "type": "event"
    },
    {
      "inputs": [],
      "name": "addressRegistry",
      "outputs": [
        {
          "internalType": "contract IAddressRegistry",
          "name": "",
          "type": "address"
        }
      ],
      "stateMutability": "view",
      "type": "function"
    },
    {
      "inputs": [
        {
          "internalType": "uint256",
          "name": "_gid",
          "type": "uint256"
        },
        {
          "internalType": "uint256",
          "name": "_tid",
          "type": "uint256"
        },
        {
          "internalType": "address",
          "name": "_token",
          "type": "address"
        }
      ],
      "name": "deposit",
      "outputs": [],
      "stateMutability": "nonpayable",
      "type": "function"
    },
    {
      "inputs": [
        {
          "internalType": "uint256",
          "name": "_gid",
          "type": "uint256"
        },
        {
          "internalType": "uint256",
          "name": "_tid",
          "type": "uint256"
        },
        {
          "internalType": "address[]",
          "name": "_winners",
          "type": "address[]"
        },
        {
          "internalType": "address",
          "name": "_token",
          "type": "address"
        },
        {
          "internalType": "uint256[]",
          "name": "_amounts",
          "type": "uint256[]"
        }
      ],
      "name": "distribute",
      "outputs": [],
      "stateMutability": "nonpayable",
      "type": "function"
    },
    {
      "inputs": [],
      "name": "feeRecipient",
      "outputs": [
        {
          "internalType": "address",
          "name": "",
          "type": "address"
        }
      ],
      "stateMutability": "view",
      "type": "function"
    },
    {
      "inputs": [
        {
          "internalType": "address",
          "name": "_addressRegistry",
          "type": "address"
        },
        {
          "internalType": "address",
          "name": "_feeRecipient",
          "type": "address"
        },
        {
          "internalType": "uint16",
          "name": "_platformFee",
          "type": "uint16"
        }
      ],
      "name": "initialize",
      "outputs": [],
      "stateMutability": "nonpayable",
      "type": "function"
    },
    {
      "inputs": [],
      "name": "owner",
      "outputs": [
        {
          "internalType": "address",
          "name": "",
          "type": "address"
        }
      ],
      "stateMutability": "view",
      "type": "function"
    },
    {
      "inputs": [],
      "name": "pause",
      "outputs": [],
      "stateMutability": "nonpayable",
      "type": "function"
    },
    {
      "inputs": [],
      "name": "paused",
      "outputs": [
        {
          "internalType": "bool",
          "name": "",
          "type": "bool"
        }
      ],
      "stateMutability": "view",
      "type": "function"
    },
    {
      "inputs": [],
      "name": "platformFee",
      "outputs": [
        {
          "internalType": "uint16",
          "name": "",
          "type": "uint16"
        }
      ],
      "stateMutability": "view",
      "type": "function"
    },
    {
      "inputs": [],
      "name": "renounceOwnership",
      "outputs": [],
      "stateMutability": "nonpayable",
      "type": "function"
    },
    {
      "inputs": [
        {
          "internalType": "bytes",
          "name": "",
          "type": "bytes"
        }
      ],
      "name": "signatures",
      "outputs": [
        {
          "internalType": "bool",
          "name": "",
          "type": "bool"
        }
      ],
      "stateMutability": "view",
      "type": "function"
    },
    {
      "inputs": [
        {
          "internalType": "uint256",
          "name": "",
          "type": "uint256"
        },
        {
          "internalType": "uint256",
          "name": "",
          "type": "uint256"
        },
        {
          "internalType": "address",
          "name": "",
          "type": "address"
        }
      ],
      "name": "totalDeposit",
      "outputs": [
        {
          "internalType": "uint256",
          "name": "",
          "type": "uint256"
        }
      ],
      "stateMutability": "view",
      "type": "function"
    },
    {
      "inputs": [
        {
          "internalType": "uint256",
          "name": "",
          "type": "uint256"
        },
        {
          "internalType": "uint256",
          "name": "",
          "type": "uint256"
        },
        {
          "internalType": "address",
          "name": "",
          "type": "address"
        }
      ],
      "name": "totalDistribution",
      "outputs": [
        {
          "internalType": "uint256",
          "name": "",
          "type": "uint256"
        }
      ],
      "stateMutability": "view",
      "type": "function"
    },
    {
      "inputs": [
        {
          "internalType": "address",
          "name": "newOwner",
          "type": "address"
        }
      ],
      "name": "transferOwnership",
      "outputs": [],
      "stateMutability": "nonpayable",
      "type": "function"
    },
    {
      "inputs": [],
      "name": "unpause",
      "outputs": [],
      "stateMutability": "nonpayable",
      "type": "function"
    },
    {
      "inputs": [
        {
          "internalType": "address",
          "name": "_feeRecipient",
          "type": "address"
        },
        {
          "internalType": "uint16",
          "name": "_platformFee",
          "type": "uint16"
        }
      ],
      "name": "updatePlatformFee",
      "outputs": [],
      "stateMutability": "nonpayable",
      "type": "function"
    },
    {
      "stateMutability": "payable",
      "type": "receive"
    }
  ],
  "transactionHash": "0x71a2484b6c94284cddd74e902cb4bc621889cc5025d8eaec532768df252eddc9",
  "args": [],
  "numDeployments": 1,
  "solcInputHash": "fd4510f6895959e0124806d15805db02",
  "bytecode": "0x608060405234801561001057600080fd5b50611f62806100206000396000f3fe6080604052600436106100f75760003560e01c80638456cb591161008a578063e041fada11610059578063e041fada146102de578063e62ad9f21461031c578063f2fde38b1461033c578063f3ad65f41461035c57600080fd5b80638456cb59146102505780638da5cb5b146102655780638dbdbe6d14610283578063d31e22de146102a357600080fd5b8063715018a6116100c6578063715018a6146101af578063798884c6146101c45780637ebef529146102105780637f3917e91461023057600080fd5b806326232a2e146101035780633f4ba83a14610136578063469048401461014d5780635c975abb1461018b57600080fd5b366100fe57005b600080fd5b34801561010f57600080fd5b5060cd5461011e9061ffff1681565b60405161ffff90911681526020015b60405180910390f35b34801561014257600080fd5b5061014b61037c565b005b34801561015957600080fd5b5060cd54610173906201000090046001600160a01b031681565b6040516001600160a01b03909116815260200161012d565b34801561019757600080fd5b5060975460ff165b604051901515815260200161012d565b3480156101bb57600080fd5b5061014b6103e5565b3480156101d057600080fd5b506102026101df366004611a6a565b60c960209081526000938452604080852082529284528284209052825290205481565b60405190815260200161012d565b34801561021c57600080fd5b5061014b61022b366004611ab5565b610449565b34801561023c57600080fd5b5061014b61024b366004611bd2565b61068e565b34801561025c57600080fd5b5061014b610b9c565b34801561027157600080fd5b506033546001600160a01b0316610173565b34801561028f57600080fd5b5061014b61029e366004611a6a565b610bfe565b3480156102af57600080fd5b5061019f6102be366004611cbb565b805160208183018101805160cc8252928201919093012091525460ff1681565b3480156102ea57600080fd5b506102026102f9366004611a6a565b60ca60209081526000938452604080852082529284528284209052825290205481565b34801561032857600080fd5b5061014b610337366004611d50565b610e70565b34801561034857600080fd5b5061014b610357366004611d85565b611022565b34801561036857600080fd5b5060cb54610173906001600160a01b031681565b6033546001600160a01b031633146103db5760405162461bcd60e51b815260206004820181905260248201527f4f776e61626c653a2063616c6c6572206973206e6f7420746865206f776e657260448201526064015b60405180910390fd5b6103e3611104565b565b6033546001600160a01b0316331461043f5760405162461bcd60e51b815260206004820181905260248201527f4f776e61626c653a2063616c6c6572206973206e6f7420746865206f776e657260448201526064016103d2565b6103e360006111a0565b600054610100900460ff1680610462575060005460ff16155b6104c55760405162461bcd60e51b815260206004820152602e60248201527f496e697469616c697a61626c653a20636f6e747261637420697320616c72656160448201526d191e481a5b9a5d1a585b1a5e995960921b60648201526084016103d2565b600054610100900460ff161580156104e7576000805461ffff19166101011790555b6104ef6111ff565b6104f76112c1565b6104ff611367565b6001600160a01b0384166105555760405162461bcd60e51b815260206004820152601760248201527f496e76616c69642041646472657373526567697374727900000000000000000060448201526064016103d2565b6001600160a01b03831615158061056e575061ffff8216155b6105ba5760405162461bcd60e51b815260206004820152601560248201527f46656520726563697069656e74206e6f7420736574000000000000000000000060448201526064016103d2565b6103e88261ffff1611156106105760405162461bcd60e51b815260206004820152601560248201527f506c6174666f726d20666565206578636565646564000000000000000000000060448201526064016103d2565b60cb805473ffffffffffffffffffffffffffffffffffffffff19166001600160a01b038681169190911790915560cd805475ffffffffffffffffffffffffffffffffffffffffffff1916620100009286169290920261ffff19169190911761ffff84161790558015610688576000805461ff00191690555b50505050565b60975460ff16156106d45760405162461bcd60e51b815260206004820152601060248201526f14185d5cd8589b194e881c185d5cd95960821b60448201526064016103d2565b60cb60009054906101000a90046001600160a01b03166001600160a01b0316639850d32b6040518163ffffffff1660e01b8152600401602060405180830381865afa158015610727573d6000803e3d6000fd5b505050506040513d601f19601f8201168201806040525081019061074b9190611da2565b6001600160a01b0316336001600160a01b0316146107ab5760405162461bcd60e51b815260206004820152600f60248201527f4f6e6c79206d61696e7461696e6572000000000000000000000000000000000060448201526064016103d2565b80518351146107fc5760405162461bcd60e51b815260206004820152601e60248201527f4d69736d6174636865642077696e6e65727320616e6420616d6f756e7473000060448201526064016103d2565b60cb60009054906101000a90046001600160a01b03166001600160a01b031663da0907556040518163ffffffff1660e01b8152600401602060405180830381865afa15801561084f573d6000803e3d6000fd5b505050506040513d601f19601f820116820180604052508101906108739190611da2565b6040516339ff00bd60e01b8152600481018790526001600160a01b03848116602483015291909116906339ff00bd90604401602060405180830381865afa1580156108c2573d6000803e3d6000fd5b505050506040513d601f19601f820116820180604052508101906108e69190611dbf565b6109325760405162461bcd60e51b815260206004820152601d60248201527f446973616c6c6f77656420646973747269627574696f6e20746f6b656e00000060448201526064016103d2565b60005b8351811015610afe5781818151811061095057610950611de1565b602090810291909101810151600088815260ca8352604080822089835284528082206001600160a01b0388168352909352918220805491929091610995908490611e0d565b92505081905550826001600160a01b031663a9059cbb8583815181106109bd576109bd611de1565b60200260200101518484815181106109d7576109d7611de1565b60200260200101516040518363ffffffff1660e01b8152600401610a109291906001600160a01b03929092168252602082015260400190565b6020604051808303816000875af1158015610a2f573d6000803e3d6000fd5b505050506040513d601f19601f82011682018060405250810190610a539190611dbf565b508486336001600160a01b03167f94fefb2e0117588f5b7252bfe9ebebb1b9a97033a53f0f15e7d2636991321d0e878581518110610a9357610a93611de1565b602002602001015187878781518110610aae57610aae611de1565b6020026020010151604051610ae4939291906001600160a01b039384168152919092166020820152604081019190915260600190565b60405180910390a480610af681611e25565b915050610935565b50600085815260c96020908152604080832087845282528083206001600160a01b0386168085529083528184205489855260ca845282852089865284528285209185529252909120541115610b955760405162461bcd60e51b815260206004820152601660248201527f546f74616c207061796f7574732065786365656465640000000000000000000060448201526064016103d2565b5050505050565b6033546001600160a01b03163314610bf65760405162461bcd60e51b815260206004820181905260248201527f4f776e61626c653a2063616c6c6572206973206e6f7420746865206f776e657260448201526064016103d2565b6103e3611415565b60975460ff1615610c445760405162461bcd60e51b815260206004820152601060248201526f14185d5cd8589b194e881c185d5cd95960821b60448201526064016103d2565b60cb546040805163da09075560e01b815290516000926001600160a01b03169163da0907559160048083019260209291908290030181865afa158015610c8e573d6000803e3d6000fd5b505050506040513d601f19601f82011682018060405250810190610cb29190611da2565b60405163cb8f76f360e01b8152600481018690526001600160a01b038481166024830152919091169063cb8f76f390604401602060405180830381865afa158015610d01573d6000803e3d6000fd5b505050506040513d601f19601f82011682018060405250810190610d259190611e40565b905060008111610d775760405162461bcd60e51b815260206004820152601560248201527f496e76616c6964206465706f73697420746f6b656e000000000000000000000060448201526064016103d2565b60cd546000906103e890610d8f9061ffff1684611e59565b610d999190611e78565b90506000610da78284611e9a565b60cd54909150610dcd906001600160a01b03868116913391620100009091041685611490565b610de26001600160a01b038516333084611490565b600086815260c96020908152604080832088845282528083206001600160a01b038816845290915281208054839290610e1c908490611e0d565b9091555050604080516001600160a01b0386168152602081018590528691889133917eab9ea1934a18c419ebd648dfd54350d24ab746230b97428774bd8d923f4eaf910160405180910390a4505050505050565b6033546001600160a01b03163314610eca5760405162461bcd60e51b815260206004820181905260248201527f4f776e61626c653a2063616c6c6572206973206e6f7420746865206f776e657260448201526064016103d2565b6001600160a01b038216151580610ee3575061ffff8116155b610f2f5760405162461bcd60e51b815260206004820152601560248201527f46656520726563697069656e74206e6f7420736574000000000000000000000060448201526064016103d2565b6103e88161ffff161115610f855760405162461bcd60e51b815260206004820152601560248201527f506c6174666f726d20666565206578636565646564000000000000000000000060448201526064016103d2565b60cd546040805161ffff8084168252841660208201526001600160a01b0385811693620100009004169133917f41340b8520c039756fdade211d2fd26138ba0673031cebf9ae4ae32d38357062910160405180910390a460cd805475ffffffffffffffffffffffffffffffffffffffffffff1916620100006001600160a01b03949094169390930261ffff19169290921761ffff91909116179055565b6033546001600160a01b0316331461107c5760405162461bcd60e51b815260206004820181905260248201527f4f776e61626c653a2063616c6c6572206973206e6f7420746865206f776e657260448201526064016103d2565b6001600160a01b0381166110f85760405162461bcd60e51b815260206004820152602660248201527f4f776e61626c653a206e6577206f776e657220697320746865207a65726f206160448201527f646472657373000000000000000000000000000000000000000000000000000060648201526084016103d2565b611101816111a0565b50565b60975460ff166111565760405162461bcd60e51b815260206004820152601460248201527f5061757361626c653a206e6f742070617573656400000000000000000000000060448201526064016103d2565b6097805460ff191690557f5db9ee0a495bf2e6ff9c91a7834c1ba4fdd244a5e8aa4e537bd38aeae4b073aa335b6040516001600160a01b03909116815260200160405180910390a1565b603380546001600160a01b0383811673ffffffffffffffffffffffffffffffffffffffff19831681179093556040519116919082907f8be0079c531659141344cd1fd0a4f28419497f9722a3daafe3b4186f6b6457e090600090a35050565b600054610100900460ff1680611218575060005460ff16155b61127b5760405162461bcd60e51b815260206004820152602e60248201527f496e697469616c697a61626c653a20636f6e747261637420697320616c72656160448201526d191e481a5b9a5d1a585b1a5e995960921b60648201526084016103d2565b600054610100900460ff1615801561129d576000805461ffff19166101011790555b6112a56114ff565b6112ad6115b0565b8015611101576000805461ff001916905550565b600054610100900460ff16806112da575060005460ff16155b61133d5760405162461bcd60e51b815260206004820152602e60248201527f496e697469616c697a61626c653a20636f6e747261637420697320616c72656160448201526d191e481a5b9a5d1a585b1a5e995960921b60648201526084016103d2565b600054610100900460ff1615801561135f576000805461ffff19166101011790555b6112ad611657565b600054610100900460ff1680611380575060005460ff16155b6113e35760405162461bcd60e51b815260206004820152602e60248201527f496e697469616c697a61626c653a20636f6e747261637420697320616c72656160448201526d191e481a5b9a5d1a585b1a5e995960921b60648201526084016103d2565b600054610100900460ff16158015611405576000805461ffff19166101011790555b61140d6114ff565b6112ad61170e565b60975460ff161561145b5760405162461bcd60e51b815260206004820152601060248201526f14185d5cd8589b194e881c185d5cd95960821b60448201526064016103d2565b6097805460ff191660011790557f62e78cea01bee320cd4e420270b5ea74000d11b0c9f74754ebdbfc544b05a2586111833390565b604080516001600160a01b0385811660248301528416604482015260648082018490528251808303909101815260849091019091526020810180517bffffffffffffffffffffffffffffffffffffffffffffffffffffffff166323b872dd60e01b1790526106889085906117ca565b600054610100900460ff1680611518575060005460ff16155b61157b5760405162461bcd60e51b815260206004820152602e60248201527f496e697469616c697a61626c653a20636f6e747261637420697320616c72656160448201526d191e481a5b9a5d1a585b1a5e995960921b60648201526084016103d2565b600054610100900460ff161580156112ad576000805461ffff19166101011790558015611101576000805461ff001916905550565b600054610100900460ff16806115c9575060005460ff16155b61162c5760405162461bcd60e51b815260206004820152602e60248201527f496e697469616c697a61626c653a20636f6e747261637420697320616c72656160448201526d191e481a5b9a5d1a585b1a5e995960921b60648201526084016103d2565b600054610100900460ff1615801561164e576000805461ffff19166101011790555b6112ad336111a0565b600054610100900460ff1680611670575060005460ff16155b6116d35760405162461bcd60e51b815260206004820152602e60248201527f496e697469616c697a61626c653a20636f6e747261637420697320616c72656160448201526d191e481a5b9a5d1a585b1a5e995960921b60648201526084016103d2565b600054610100900460ff161580156116f5576000805461ffff19166101011790555b60016065558015611101576000805461ff001916905550565b600054610100900460ff1680611727575060005460ff16155b61178a5760405162461bcd60e51b815260206004820152602e60248201527f496e697469616c697a61626c653a20636f6e747261637420697320616c72656160448201526d191e481a5b9a5d1a585b1a5e995960921b60648201526084016103d2565b600054610100900460ff161580156117ac576000805461ffff19166101011790555b6097805460ff191690558015611101576000805461ff001916905550565b600061181f826040518060400160405280602081526020017f5361666545524332303a206c6f772d6c6576656c2063616c6c206661696c6564815250856001600160a01b03166118b49092919063ffffffff16565b8051909150156118af578080602001905181019061183d9190611dbf565b6118af5760405162461bcd60e51b815260206004820152602a60248201527f5361666545524332303a204552433230206f7065726174696f6e20646964206e60448201527f6f7420737563636565640000000000000000000000000000000000000000000060648201526084016103d2565b505050565b60606118c384846000856118cd565b90505b9392505050565b6060824710156119455760405162461bcd60e51b815260206004820152602660248201527f416464726573733a20696e73756666696369656e742062616c616e636520666f60448201527f722063616c6c000000000000000000000000000000000000000000000000000060648201526084016103d2565b843b6119935760405162461bcd60e51b815260206004820152601d60248201527f416464726573733a2063616c6c20746f206e6f6e2d636f6e747261637400000060448201526064016103d2565b600080866001600160a01b031685876040516119af9190611edd565b60006040518083038185875af1925050503d80600081146119ec576040519150601f19603f3d011682016040523d82523d6000602084013e6119f1565b606091505b5091509150611a01828286611a0c565b979650505050505050565b60608315611a1b5750816118c6565b825115611a2b5782518084602001fd5b8160405162461bcd60e51b81526004016103d29190611ef9565b6001600160a01b038116811461110157600080fd5b8035611a6581611a45565b919050565b600080600060608486031215611a7f57600080fd5b83359250602084013591506040840135611a9881611a45565b809150509250925092565b803561ffff81168114611a6557600080fd5b600080600060608486031215611aca57600080fd5b8335611ad581611a45565b92506020840135611ae581611a45565b9150611af360408501611aa3565b90509250925092565b634e487b7160e01b600052604160045260246000fd5b604051601f8201601f1916810167ffffffffffffffff81118282101715611b3b57611b3b611afc565b604052919050565b600067ffffffffffffffff821115611b5d57611b5d611afc565b5060051b60200190565b600082601f830112611b7857600080fd5b81356020611b8d611b8883611b43565b611b12565b82815260059290921b84018101918181019086841115611bac57600080fd5b8286015b84811015611bc75780358352918301918301611bb0565b509695505050505050565b600080600080600060a08688031215611bea57600080fd5b853594506020808701359450604087013567ffffffffffffffff80821115611c1157600080fd5b818901915089601f830112611c2557600080fd5b8135611c33611b8882611b43565b81815260059190911b8301840190848101908c831115611c5257600080fd5b938501935b82851015611c79578435611c6a81611a45565b82529385019390850190611c57565b9750611c8a91505060608a01611a5a565b94506080890135925080831115611ca057600080fd5b5050611cae88828901611b67565b9150509295509295909350565b60006020808385031215611cce57600080fd5b823567ffffffffffffffff80821115611ce657600080fd5b818501915085601f830112611cfa57600080fd5b813581811115611d0c57611d0c611afc565b611d1e601f8201601f19168501611b12565b91508082528684828501011115611d3457600080fd5b8084840185840137600090820190930192909252509392505050565b60008060408385031215611d6357600080fd5b8235611d6e81611a45565b9150611d7c60208401611aa3565b90509250929050565b600060208284031215611d9757600080fd5b81356118c681611a45565b600060208284031215611db457600080fd5b81516118c681611a45565b600060208284031215611dd157600080fd5b815180151581146118c657600080fd5b634e487b7160e01b600052603260045260246000fd5b634e487b7160e01b600052601160045260246000fd5b60008219821115611e2057611e20611df7565b500190565b6000600019821415611e3957611e39611df7565b5060010190565b600060208284031215611e5257600080fd5b5051919050565b6000816000190483118215151615611e7357611e73611df7565b500290565b600082611e9557634e487b7160e01b600052601260045260246000fd5b500490565b600082821015611eac57611eac611df7565b500390565b60005b83811015611ecc578181015183820152602001611eb4565b838111156106885750506000910152565b60008251611eef818460208701611eb1565b9190910192915050565b6020815260008251806020840152611f18816040850160208701611eb1565b601f01601f1916919091016040019291505056fea2646970667358221220d7d45557906aab563562011ba2689edf33cdc60875271b6c3b33b6d5017bc1e164736f6c634300080b0033",
  "devdoc": {
    "author": "David Lee",
    "kind": "dev",
    "methods": {
      "deposit(uint256,uint256,address)": {
        "details": "Only tokens registered in GameRegistry with an amount greater than zero is valid for the deposit",
        "params": {
          "_gid": "Game ID",
          "_tid": "Tournament ID",
          "_token": "Token address to deposit"
        }
      },
      "owner()": {
        "details": "Returns the address of the current owner."
      },
      "pause()": {
        "details": "Only owner"
      },
      "paused()": {
        "details": "Returns true if the contract is paused, and false otherwise."
      },
      "renounceOwnership()": {
        "details": "Leaves the contract without owner. It will not be possible to call `onlyOwner` functions anymore. Can only be called by the current owner. NOTE: Renouncing ownership will leave the contract without an owner, thereby removing any functionality that is only available to the owner."
      },
      "transferOwnership(address)": {
        "details": "Transfers ownership of the contract to a new account (`newOwner`). Can only be called by the current owner."
      },
      "unpause()": {
        "details": "Only owner"
      },
      "updatePlatformFee(address,uint16)": {
        "details": "Only ownerAllow zero recipient address only of fee is also zero",
        "params": {
          "_platformFee": "platform fee"
        }
      }
    },
    "stateVariables": {
      "addressRegistry": {
        "details": "AddressRegistry"
      },
      "feeRecipient": {
        "details": "Platform fee recipient"
      },
      "platformFee": {
        "details": "Platform fee"
      },
      "signatures": {
        "details": "Signature -> Bool"
      },
      "totalDeposit": {
        "details": "Game ID -> Tournament ID -> Token Address -> Total Deposit Amount excluding fees"
      },
      "totalDistribution": {
        "details": "Game ID -> Tournament ID -> Token Address -> Total Distribution Amount excluding fees"
      }
    },
    "title": "Oparcade",
    "version": 1
  },
  "userdoc": {
    "kind": "user",
    "methods": {
      "deposit(uint256,uint256,address)": {
        "notice": "Deposit ERC20 tokens from user"
      },
      "pause()": {
        "notice": "Pause Oparcade"
      },
      "unpause()": {
        "notice": "Resume Oparcade"
      },
      "updatePlatformFee(address,uint16)": {
        "notice": "Update platform fee"
      }
    },
    "notice": "This manages the token deposit/distribution from/to the users",
    "version": 1
  },
  "storageLayout": {
    "storage": [
      {
        "astId": 130,
        "contract": "contracts/Oparcade.sol:Oparcade",
        "label": "_initialized",
        "offset": 0,
        "slot": "0",
        "type": "t_bool"
      },
      {
        "astId": 133,
        "contract": "contracts/Oparcade.sol:Oparcade",
        "label": "_initializing",
        "offset": 1,
        "slot": "0",
        "type": "t_bool"
      },
      {
        "astId": 929,
        "contract": "contracts/Oparcade.sol:Oparcade",
        "label": "__gap",
        "offset": 0,
        "slot": "1",
        "type": "t_array(t_uint256)50_storage"
      },
      {
        "astId": 10,
        "contract": "contracts/Oparcade.sol:Oparcade",
        "label": "_owner",
        "offset": 0,
        "slot": "51",
        "type": "t_address"
      },
      {
        "astId": 123,
        "contract": "contracts/Oparcade.sol:Oparcade",
        "label": "__gap",
        "offset": 0,
        "slot": "52",
        "type": "t_array(t_uint256)49_storage"
      },
      {
        "astId": 297,
        "contract": "contracts/Oparcade.sol:Oparcade",
        "label": "_status",
        "offset": 0,
        "slot": "101",
        "type": "t_uint256"
      },
      {
        "astId": 340,
        "contract": "contracts/Oparcade.sol:Oparcade",
        "label": "__gap",
        "offset": 0,
        "slot": "102",
        "type": "t_array(t_uint256)49_storage"
      },
      {
        "astId": 191,
        "contract": "contracts/Oparcade.sol:Oparcade",
        "label": "_paused",
        "offset": 0,
        "slot": "151",
        "type": "t_bool"
      },
      {
        "astId": 282,
        "contract": "contracts/Oparcade.sol:Oparcade",
        "label": "__gap",
        "offset": 0,
        "slot": "152",
        "type": "t_array(t_uint256)49_storage"
      },
      {
        "astId": 1729,
        "contract": "contracts/Oparcade.sol:Oparcade",
        "label": "totalDeposit",
        "offset": 0,
        "slot": "201",
        "type": "t_mapping(t_uint256,t_mapping(t_uint256,t_mapping(t_address,t_uint256)))"
      },
      {
        "astId": 1738,
        "contract": "contracts/Oparcade.sol:Oparcade",
        "label": "totalDistribution",
        "offset": 0,
        "slot": "202",
        "type": "t_mapping(t_uint256,t_mapping(t_uint256,t_mapping(t_address,t_uint256)))"
      },
      {
        "astId": 1742,
        "contract": "contracts/Oparcade.sol:Oparcade",
        "label": "addressRegistry",
        "offset": 0,
        "slot": "203",
        "type": "t_contract(IAddressRegistry)2129"
      },
      {
        "astId": 1747,
        "contract": "contracts/Oparcade.sol:Oparcade",
        "label": "signatures",
        "offset": 0,
        "slot": "204",
        "type": "t_mapping(t_bytes_memory_ptr,t_bool)"
      },
      {
        "astId": 1750,
        "contract": "contracts/Oparcade.sol:Oparcade",
        "label": "platformFee",
        "offset": 0,
        "slot": "205",
        "type": "t_uint16"
      },
      {
        "astId": 1753,
        "contract": "contracts/Oparcade.sol:Oparcade",
        "label": "feeRecipient",
        "offset": 2,
        "slot": "205",
        "type": "t_address"
      }
    ],
    "types": {
      "t_address": {
        "encoding": "inplace",
        "label": "address",
        "numberOfBytes": "20"
      },
      "t_array(t_uint256)49_storage": {
        "base": "t_uint256",
        "encoding": "inplace",
        "label": "uint256[49]",
        "numberOfBytes": "1568"
      },
      "t_array(t_uint256)50_storage": {
        "base": "t_uint256",
        "encoding": "inplace",
        "label": "uint256[50]",
        "numberOfBytes": "1600"
      },
      "t_bool": {
        "encoding": "inplace",
        "label": "bool",
        "numberOfBytes": "1"
      },
      "t_bytes_memory_ptr": {
        "encoding": "bytes",
        "label": "bytes",
        "numberOfBytes": "32"
      },
      "t_contract(IAddressRegistry)2129": {
        "encoding": "inplace",
        "label": "contract IAddressRegistry",
        "numberOfBytes": "20"
      },
      "t_mapping(t_address,t_uint256)": {
        "encoding": "mapping",
        "key": "t_address",
        "label": "mapping(address => uint256)",
        "numberOfBytes": "32",
        "value": "t_uint256"
      },
      "t_mapping(t_bytes_memory_ptr,t_bool)": {
        "encoding": "mapping",
        "key": "t_bytes_memory_ptr",
        "label": "mapping(bytes => bool)",
        "numberOfBytes": "32",
        "value": "t_bool"
      },
      "t_mapping(t_uint256,t_mapping(t_address,t_uint256))": {
        "encoding": "mapping",
        "key": "t_uint256",
        "label": "mapping(uint256 => mapping(address => uint256))",
        "numberOfBytes": "32",
        "value": "t_mapping(t_address,t_uint256)"
      },
      "t_mapping(t_uint256,t_mapping(t_uint256,t_mapping(t_address,t_uint256)))": {
        "encoding": "mapping",
        "key": "t_uint256",
        "label": "mapping(uint256 => mapping(uint256 => mapping(address => uint256)))",
        "numberOfBytes": "32",
        "value": "t_mapping(t_uint256,t_mapping(t_address,t_uint256))"
      },
      "t_uint16": {
        "encoding": "inplace",
        "label": "uint16",
        "numberOfBytes": "2"
      },
      "t_uint256": {
        "encoding": "inplace",
        "label": "uint256",
        "numberOfBytes": "32"
      }
    }
  }
}